:020000040800F2
:1000000090520320D1800108D9800108DB800108CB
:10001000DD800108DF800108E180010800000000A8
:100020000000000000000000000000001580010832
:10003000E58001080000000069800108C3FC010898
:10004000EB800108EB800108EB800108EB800108E0
:10005000EB800108EB800108EB800108EB800108D0
:10006000EB800108EB800108EB8001086592010834
:10007000EB800108EB800108EB800108EB800108B0
:10008000EB800108EB800108EB800108EB800108A0
:10009000EB800108EB800108EB800108D59801088E
:1000A00099FE0108EB800108EB800108EB80010854
:1000B000EB800108EB800108EB800108EB80010870
:1000C000EB800108EB800108EB800108EB80010860
:1000D000EB800108390B0208EB800108EB80010876
:1000E000EB800108EB800108EB800108EB80010840
:1000F000EB800108EB800108EB800108EB80010830
:10010000EB800108EB800108EB800108EB8001081F
:10011000EB800108EB800108A9FE0108EB800108D3
:10012000EB8001087592010885920108EB800108B7
:1001300095920108FD950108EB800108EB8001080C
:10014000EB800108EB800108EB800108EB800108DF
:10015000EB800108A5920108B5920108EB80010827
:10016000EB800108EB800108EB800108EB800108BF
:10017000EB800108EB800108EB8001080000000023
:10018000EB800108EB800108EB800108EB8001089F
:10019000EB800108EB800108EB800108EB8001088F
:1001A000EB800108EB800108EB800108EB8001087F
:1001B000EB800108EB800108EB800108EB8001086F
:1001C000EB800108EB80010800000000EB800108D3
:1001D000EB800108EB800108EB800108EB8001084F
:1001E000EB800108EB800108EB800108EB8001083F
:0801F000EB800108EB8001081F
:020000040800F2
:108000000000000000000000000000000000000070
:108010000000000000000000000000000000000060
:108020000000000000000000000000000000000050
:108030000000000000000000000000000000000040
:108040000000000000000000000000000000000030
:04805000000000002C
:020000040801F1
:1000000000000000000000000000000000000000F0
:1000100000000000000000000000000000000000E0
:1000200000000000000000000000000000000000D0
:1000300000000000000000000000000000000000C0
:1000400000000000000000000000000000000000B0
:0400500000000000AC
:020000040801F1
:10800000DFF80CD000F0B4FA004800477D70020899
:10801000905203202B4B19680868B0E8F04F80F3AA
:108020000988BFF36F8F4FF0000080F3118870470D
:108030000000000006480068006880F3088862B607
:1080400061B6BFF34F8FBFF36F8F00DF00BF00BF7C
:1080500008ED00E0DFF80C00016841F470010160F8
:10806000704700BF88ED00E0EFF30980BFF36F8F2A
:10807000144B1A681EF0100F08BF20ED108A20E97B
:10808000F04F106008B44FF0500072B680F31188C2
:10809000BFF34F8FBFF36F8F62B615F0F5FE4FF051
:1080A000000080F3118808BC19680868B0E8F04F38
:1080B0001EF0100F08BFB0EC108A80F30988BFF3E0
:1080C0006F8F704700000020EFF3058070470000BD
:1080D0000648804706480047FEE7FEE7FEE7FEE762
:1080E000FEE7FEE7FEE7FEE7FEE7FEE7B9FD010873
:1080F0000180010840EA01039B0703D009E008C999
:10810000121F08C0042AFAD203E011F8013B00F85C
:10811000013B521EF9D27047D2B201E000F8012BA8
:10812000491EFBD270470022F6E710B513460A46F7
:1081300004461946FFF7F0FF204610BD10B5002297
:1081400000E0521C835C8C5CA34201D1002BF8D16F
:10815000D8B2E1B2401A10BD30B504460020034643
:1081600000E05B1C934203D2E05CCD5C401BF8D086
:1081700030BD30B50B46014600202022012409E025
:1081800021FA02F59D4205D303FA02F5491B04FAD0
:1081900002F52844151EA2F10102F1DC30BD2DE9E3
:1081A000F05F0546002092469B468846064681467B
:1081B00040241BE0284641464746224600F0F9F994
:1081C00053465A46C01A914110D3114618462246CA
:1081D00000F0E0F92D1A67EB01084F462246012016
:1081E000002100F0D7F917EB00094E41201EA4F141
:1081F0000104DFDC484631462A464346BDE8F09F8D
:108200002DE9FE4F804681EA0300C00F0C46009026
:1082100021F0004123F00045B8EB0200A94105D24E
:108220004046214690461C460B46024623F000403D
:10823000104347D0270DC7F30A00C3F30A51029039
:10824000401A019040286BDAC3F3130040F4801BFE
:108250000098924620B10023D2EB030A63EB0B0B8C
:1082600001985946C0F14002504600F093F9064685
:108270000D4650465946019A00F0ABF910EB080044
:108280006141002487EA115284EAE7731A4340D01F
:10829000009A62B3019A012A4FEA075215DC001BCB
:1082A00061EB02014FF0004202EA0752CDE90042C1
:1082B000001C41F5801132462B4600F0ABF903B0AB
:1082C000BDE8F08F40462146F9E7001B61EB020153
:1082D000001C41F5801300185B412018A2F500171F
:1082E00047EB030140EAD570B6196D4111E06D0806
:1082F0004FEA360645EAC0754FEA0752001B61EBAC
:108300000201001C41F5801149084FEA30000019B4
:10831000514132462B4603B0BDE8F04F00F06BB937
:108320000098012240000023D0EB020263EBE073CF
:10833000009821464FEAE074B8EB000061EB0401BD
:10834000E9E783F000435BE781F0004158E72DE95E
:10835000FE4F81EA030404F0004421F00041009440
:108360004FF0000B23F0004350EA01045ED052EAC4
:1083700003045BD0C3F30A54C1F30A552C44A4F29E
:10838000F3340194A0FB0254C1F3130141F48011B2
:10839000C3F3130343F4801301FB024400FB034EB9
:1083A000840A970A44EA815447EA8357A4FB076882
:1083B00002958D0A05FB07854FEA932C04FB0C54AC
:1083C0002705029D4FEA065847EA1637B5EB080520
:1083D0006EEB070C870E920E47EA811742EA831272
:1083E000A7FB0201B6EB0B0164EB00042B0D43EA83
:1083F0000C335E1844EB1C50DA465146E7FB020191
:10840000C5F313044FEA0B3343EA14534FEA043223
:10841000019C43EA0603A4F10C040294009CCDE9FC
:1084200000B400F0F7F803B0BDE8F08F002001467B
:10843000F9E72DE9F04D81EA030404F0004B21F047
:10844000004514464FF0000A23F0004150EA0502AF
:1084500020D054EA01021DD0C5F30A570246C5F3E5
:108460001303C1F31300C1F30A5640F4801543F41B
:108470008013A7EB0608101BD64608F2FD3873EBF5
:10848000050002D308F1010801E092185B41B8F140
:10849000000F03DA00200146BDE8F08D00204FF404
:1084A0008011064684460EE0171B73EB050705D3C3
:1084B000121B63EB050306434CEA010C49084FEA23
:1084C000300092185B4150EA0107EDD152EA0300F7
:1084D00012D082EA040083EA0501084305D0101B8C
:1084E000AB4106D20122002306E000224FF00043F8
:1084F00002E06FF0010253101AEB06004CEB08513A
:1085000010EB0A0041EB0B01BDE8F04D00F073B831
:10851000C1F30A52C1F3130140F2FF3341F4801159
:108520009A4202DA00200146704740F233439A42F1
:10853000A2F2334202DC524200F03BB800F02AB80B
:1085400030B5041E71F1000404DB4FF000444042DA
:1085500064EB0101141E73F1000405DB1C464FF0AF
:108560000043524263EB0403994208BF904230BD7E
:10857000064C074D06E0E06840F0010394E8070070
:1085800098471034AC42F6D3FFF73EFDC4F702081B
:10859000E4F70208202A04DB203A00FA02F1002066
:1085A00070479140C2F1200320FA03F31943904031
:1085B0007047202A04DB203A21FA02F0002170479C
:1085C00021FA02F3D040C2F120029140084319463B
:1085D0007047202A06DBCB17203A41FA02F043EA23
:1085E000E07306E041FA02F3D040C2F1200291406C
:1085F00008431946704710B5141E73F1000408DAD9
:10860000401C41F1000192185B411A4301D120F056
:10861000010010BD2DE9F04D92469B4611B1B1FA13
:1086200081F202E0B0FA80F220329046FFF7B2FF0A
:1086300004460F4640EA0A0041EA0B0153465A46F7
:10864000084313D0114653EA010019D0C8F1400283
:108650005046FFF7AEFF05460E4650465946424685
:10866000FFF798FF084305D0012004E02046394673
:10867000BDE8F08D0020054346EAE0762C43374301
:108680000A986305E40AA0EB08000022FD0A44EA08
:1086900047540A3002D500200146E9E701051019C8
:1086A0006941DDE9084500196941BDE8F04DA2E7DF
:1086B00070B58C1810F8015B15F0070301D110F8A4
:1086C000013B2A1106D110F8012B03E010F8016BD1
:1086D00001F8016B5B1EF9D12B0705D40023521E54
:1086E0000DD401F8013BFAE710F8013BCB1A921CBC
:1086F00003E013F8015B01F8015B521EF9D5A142BA
:10870000D8D3002070BD00002DE9F04785B00E469B
:108710001546DDE90E4CDDF834800021B4E207781F
:108720000497DDE9039767F3CF39CDF80C90049FE8
:108730004FEA5709029F69F3CF370297049F4FEA28
:108740009709019F69F3CF370197049F4FEAD70933
:10875000009F69F3CF37009747780497DDE90397C7
:1087600067F38E39CDF80C90049F4FEA5709029FAA
:1087700069F38E370297049F4FEA9709019F69F3C7
:108780008E370197049F4FEAD709009F69F38E3710
:10879000009787780497DDE9039767F34D39CDF8A3
:1087A0000C90049F4FEA5709029F69F34D370297D7
:1087B000049F4FEA9709019F69F34D370197049F82
:1087C0004FEAD709009F69F34D370097C7780497A0
:1087D000DDE9039767F30C39CDF80C90049F4FEA5D
:1087E0005709029F69F30C370297049F4FEA9709D4
:1087F000019F69F30C370197049F4FEAD709009F47
:1088000069F30C37009707790497DDE9039767F35D
:10881000CB29CDF80C90049F4FEA5709029F69F3CA
:10882000CB270297049F4FEA9709019F69F3CB2753
:108830000197049F4FEAD709009F69F3CB27009760
:1088400047790497DDE9039767F38A29CDF80C90FF
:10885000049F4FEA5709029F69F38A270297049FF2
:108860004FEA9709019F69F38A270197049F4FEA0E
:10887000D709009F69F38A27009787790497DDE974
:10888000039767F34929CDF80C90049F4FEA5709E5
:10889000029F69F349270297049F4FEA9709019FB6
:1088A00069F349270197049F4FEAD709009F69F3AD
:1088B00049270097C7790497DDE9039767F30829EB
:1088C000CDF80C90049F4FEA5709029F69F30827DF
:1088D0000297049F4FEA9709019F69F308270197C0
:1088E000049F4FEAD709009F69F308270097077A8A
:1088F0000497DDE9039767F3C719CDF80C90049F3F
:108900004FEA5709029F69F3C7170297049F4FEA7E
:108910009709019F69F3C7170197049F4FEAD70989
:10892000009F69F3C7170097477A0497DDE903971B
:1089300067F38619CDF80C90049F4FEA5709029F00
:1089400069F386170297049F4FEA9709019F69F31D
:1089500086170197049F4FEAD709009F69F386178E
:108960000097877A0497DDE9039767F34519CDF8F7
:108970000C90049F4FEA5709029F69F3451702972D
:10898000049F4FEA9709019F69F345170197049FD8
:108990004FEAD709009F69F345170097C77A0497F4
:1089A000DDE9039767F30419CDF80C90049F4FEAB3
:1089B0005709029F69F304170297049F4FEA97092A
:1089C000019F69F304170197049F4FEAD709009F9D
:1089D00069F304170097077B0497DDE9039767F3B2
:1089E000C309CDF80C90049F4FEA5709029F69F321
:1089F000C3070297049F4FEA9709019F69F3C307D2
:108A00000197049F4FEAD709009F69F3C3070097B6
:108A1000477B0497DDE9039767F38209CDF80C9053
:108A2000049F4FEA5709029F69F382070297049F48
:108A30004FEA9709019F69F382070197049F4FEA64
:108A4000D709009F69F382070097877B0497DDE9C8
:108A5000039767F34109CDF80C90049F4FEA57093B
:108A6000029F69F341070297049F4FEA9709019F0C
:108A700069F341070197049F4FEAD709009F69F303
:108A800041070097C77B0497DDE9039767F3000967
:108A9000CDF80C90049F4FEA5709029F69F3000735
:108AA0000297049F4FEA9709019F69F30007019716
:108AB000049F4FEAD709009F69F30007009700223F
:108AC000DFF8DC91039FA9F80070029FA9F80270FB
:108AD000019FA9F80470009FA9F80670714F97EDE7
:108AE0000A0A97ED091A039FBFB200EE907AF8EEDA
:108AF000600A01EE200A4F4687ED060A694F97ED9E
:108B00000C0A97ED0B1A029FBFB200EE907AF8EEB6
:108B1000600A01EE200A4F4687ED050A614F97ED86
:108B20000E0A97ED0D1A019FBFB200EE907AF8EE93
:108B3000600A01EE200A4F4687ED040A594F97ED6F
:108B4000100A97ED0F1A009FBFB200EE907AF8EE70
:108B5000600A01EE200A4F4687ED030A97ED060AE8
:108B6000B7EEC00AB1EE0E1BB4EEC10BF1EE10FA77
:108B700026DB97ED050AB7EEC00A9FED4B1BB4EE5E
:108B8000C10BF1EE10FA15DB97ED040AB7EEC00A3F
:108B90009FED471BB4EEC10BF1EE10FA04DB97ED2D
:108BA000030A87ED070A10E03D4F97ED050A87EDB0
:108BB000070A0AE03A4F97ED050A87ED070A04E035
:108BC000374F97ED060A87ED070A354F97ED070AED
:108BD00004EB820787ED000A571CFAB20F464FEAF2
:108BE000E17901EB99794FEAA90935F81990DFF895
:108BF000B0A0AAF808904FEAE17901EB99794FEA21
:108C0000A90933F81990AAF80A904FEAE17901EB23
:108C100099794FEAA90935F8199000EE109AF8EE03
:108C2000C00ADFF8809099ED120A99ED111A01EE51
:108C3000200A04EB820989ED000AD14689ED080A71
:108C4000571CFAB20F464FEAE17901EB99794FEAE6
:108C5000A90933F8199000EE109AF8EEC00ADFF86F
:108C6000449099ED140A99ED131A01EE200A04EBD1
:108C7000820989ED000AD14689ED090A571CFAB22A
:108C800010300C344A1C91B2B1EB261FFFF647ADF1
:108C900001EB4102ACF8002005B0BDE8F087000010
:108CA000B8440220B4C902200000000000C05240B5
:108CB0000000000000C0624010B588B004462022C9
:108CC00021466846FFF716FA08498988C1F308016A
:108CD000074A02EB411020226946FFF70BFA0348CE
:108CE0004068401C0149486008B010BD681003206E
:108CF00068D00220F0B589B007460E4600251D4811
:108D00000078012802D1002009B0F0BD1A4841685E
:108D10000068081AB6EB401F01D234460BE0164833
:108D200041680068081A4FF6FF7101EA40143146A5
:108D30003846FFF7F8F9002517E00F480088C0F320
:108D400008000E4A02EB4011202201A8FFF7D2F9D9
:108D500007EB4510202201A9FFF7CCF9064800686F
:108D6000401C05490860681C85B2B5EB541FE4D36C
:108D70002046C9E7280200206810032068D002209E
:108D8000024881880088081A80B270476810032062
:108D900010B517A11948FFF7D1F918B917481849A4
:108DA00008601DE012A11748FFF7C8F918B9154867
:108DB0001349086014E016221049134800F008FF18
:108DC000002802DA4FF0FF3010BD0E4800F08AFD97
:108DD000002802DA4FF0FF30F6E70848084908603B
:108DE0005422074801680948FFF784F90020EBE79F
:108DF0004346475F534543544F52000000800008EC
:108E0000D001002000000108D4F40208B4C90220F7
:108E100010B50F4800680F49884201D10E4C00E0A0
:108E20000C4C162221460D4800F0D2FE002802DA32
:108E30004FF0FF3010BD0648006800F053FD0028D9
:108E400002DA4FF0FF30F5E7014804600020F1E757
:108E5000D00100200080000800000108B4C90220F1
:108E600010B50021014805F09DFB10BDD4BC0120C8
:108E700010B50021014805F0BBFB10BDD4BC01209A
:108E80000548006800210A0442EA10420104034830
:108E90000068084311467047240C00402408004035
:108EA000014903C970470000B001002010B500223D
:108EB00008211F4803F000F9002210211D4803F08B
:108EC000FBF8012220211B4803F0F6F80022402184
:108ED000184803F0F1F801228021164803F0ECF85D
:108EE00001220421124803F0E7F8032200210120A7
:108EF00015F0C9FB104908601049487F00F05CF884
:108F00000F4A01210F4802F0F1F90F4A00210D48E4
:108F100002F0ECF90D4805F049F80D4805F046F867
:108F20004FF4FA530B4A00210B4800F07BFF10BDB1
:108F300000080240000C0240B8010020B4C9022021
:108F40006591010828BA0120E591010854BD01206E
:108F500094BD0120B44C0220D8B9012010B51048AE
:108F60000068006820F001000D49096808600020D1
:108F70000C4908600C49086000210C4A11605160DE
:108F80004FF4FA530A4A0B4800F04CFF04480068BB
:108F9000006840F0010002490968086010BD000047
:108FA00028BA0120240C004024080040B001002011
:108FB000B44C0220D8B9012070B50546052D31D238
:108FC000DFE805F0030C151E27000920284948603A
:108FD00000212848417742F62F242CE00020244924
:108FE000486001212348417742F62F2423E00020E6
:108FF0001F49486002211F48417741F217541AE087
:1090000000201B49486003211A48417740F66F044D
:1090100011E000201649486004211648417740F2CB
:10902000374408E00A20124948600021114841777E
:1090300042F62F2400BF00BF4FF080400C4908606B
:1090400000210B4881600B48D0ED080A00EE104A61
:10905000B8EE400A20EE800ABCEEC00A10EE100AFC
:1090600081B20348C1600021016104F0B7FE70BD08
:10907000D4BC0120B4C9022070B50546AC6BA06C0D
:10908000406D022806D0012084F83500E06C40F0E5
:109090004000E064204600F0E9FD70BD70B5064672
:1090A0000025B46BA06B68B3A06C0068006800F486
:1090B0000025A06B00F0010078B975B1A06C0068C4
:1090C000C568E26B082303FB02510022A06C00F08C
:1090D0001BFFA06B401EA0632FE0A06C006800681F
:1090E00000F4002048BBA06C00680569E26B08230F
:1090F00003FB02510122A06C00F006FFA06B401E92
:10910000A0631AE0A06C0068006800F4002020B1A1
:10911000D4E911010968C8600FE0A06C006800681C
:1091200000F4002048B9656CE06B042101FB00509D
:10913000A16C09680861206CA063A06B216C884257
:109140000ED12068C06840F001002168C860206826
:10915000006800F00200022802D1012084F83500E6
:1091600070BD000010B50020154908601548006862
:1091700000210A0442EA1042010413480068014336
:10918000124806C012481349086013480068401C82
:10919000114908600A491148006815F039FD08486E
:1091A000006801280AD10648006838B14FF08050A5
:1091B0000B490860BFF34F8FBFF36F8F10BD0000E6
:1091C000C8010020240C004024080040B001002009
:1091D000B44C0220A8010020C0010020B8010020EA
:1091E00004ED00E010B5002015490860154800683E
:1091F00000210A0442EA10420104134800680143B6
:10920000124806C012481349086013480068401C01
:10921000114908600A491148006815F0F9FC08482E
:10922000006801280AD10648006838B14FF0805024
:109230000B490860BFF34F8FBFF36F8F10BD000065
:10924000CC010020240C004024080040B001002084
:10925000348B0220A8010020C4010020B8010020A6
:1092600004ED00E010B5024801F0A8FE10BD0000BA
:10927000B4BB012010B5024801F0A0FE10BD0000F3
:1092800028BA012010B5024801F098FE10BD000078
:10929000C4BE012010B5024801F090FE10BD0000D0
:1092A00014BC012010B5024801F088FE10BD00007A
:1092B00074BC012010B5024801F080FE10BD000012
:1092C00024BF01200146087810381823B0FBF3F2C0
:1092D0000848805CC865032A05D908686FF309004F
:1092E000001D886503E008686FF309008865886DD4
:1092F0007047000068F40208014600208A6A8B6902
:1093000003BB32B1012A0CD0022A10D0032A17D194
:1093100015E0CB6A03F08073B3F1807F00D10120A8
:109320000FE0CB6AB3F1C07F00D1012009E0CB6A26
:1093300003F08073B3F1807F00D1012001E000E0F1
:1093400000BF35E08B69B3F5005F1BD132B1012A54
:1093500006D0022A0CD0032A12D10BE0012010E023
:10936000CB6A03F08073B3F1807F00D1012008E065
:10937000012006E0CB6AB3F1C07F00D1012000E0FC
:1093800000BF15E032B1012A05D0022A04D0032A19
:109390000CD103E000BF00BF012008E0CB6A03F05E
:1093A0008073B3F1807F00D1012000E000BF00BFD7
:1093B000704710B5046863608468402C04D1046869
:1093C000A2600468E16003E00468A1600468E260F0
:1093D00010BD30B50468246824F4802405682C602E
:1093E000046863608468402C04D10468A260046847
:1093F000E16003E00468A1600468E26030BD000041
:1094000010B50446012C05D101228021044802F048
:1094100053FE04E000228021014802F04DFE10BD01
:10942000001002401CB503220021012015F02BF989
:10943000124908600120FFF7E3FF002220211048B5
:1094400002F03AFE4FF0FF30014600F02DF8002206
:1094500002210C4802F030FE00224FF480410A48FD
:1094600002F02AFE00200521084B8022CDE90010E1
:1094700007A10C4815F0FAFC1CBD000008020020F2
:10948000001402400004024000180240E8010020DD
:109490005365742053657175656E63652020546152
:1094A000736B0000DD94010870B504460D4620463C
:1094B000294606F0B5F9064A03C2002220210548D4
:1094C00002F0FAFD08220249034804F07BFB70BD5C
:1094D0001002002000140240ECBA012005460026CC
:1094E00043E000235A1E19462048006815F0FAF898
:1094F00001201F4908702C46208B0A2832DB208B64
:1095000042F2107188422DDC608B01282ADB608BCF
:10951000642827DC002619E0164AD4E9000103C2BA
:10952000D4E900211046FFF7BFFF208B14F01EFA8C
:10953000104AD4E9020103C2D4E902211046FFF720
:10954000B3FF208B14F012FA701C86B2608BB0420D
:10955000E2DC084AD4E9040103C2D4E9042110463C
:10956000FFF7A2FF002002490870BAE708020020B6
:10957000D8010020E001002010B50548007830B97E
:1095800000231A4619460348006815F0E1F910BD9A
:10959000D801002008020020016801F58051896986
:1095A00041F00202016801F580518A61704701684B
:1095B00001F58051896941F40052016801F580513B
:1095C0008A61704738B5044600200090206800F595
:1095D0008050806940F48011206800F580508161DE
:1095E000206800F5805080690090012001F0FCFEA9
:1095F0000099206800F58050816138BD10B502489F
:1096000001F0E5FF10BD000090B9012030B5034620
:109610001479557944EA0520084C0C442064D47828
:109620002406957844EA0544557844EA05241578DB
:1096300044EA0500014C0C44606430BD00800240E7
:1096400070B5AEB004460E46002526B14FF4006159
:10965000E160C900A1600020119012901390149055
:1096600015901690E06918B94FF48060179001E0EA
:10967000002017904FF400701890002019901A9055
:109680001B901C901D9040201E9000201F90209049
:10969000219022902390249025902690802027903E
:1096A0000020289029902A902B902C902D902068B3
:1096B000056871480540DDE9110108431399084325
:1096C00014990843A168084315990843169908435B
:1096D000E168084317990843189908431999084302
:1096E0001A9908431B9908430543206805602068C0
:1096F0000568012001F078FE20680560DDE91C01A5
:1097000008431E9908431F9908432099084321994B
:109710000843229908432399084321684860206838
:109720004568012001F060FE2068456024982168AA
:10973000886025982168C860206885694FF6417067
:109740000540DDE9261040EA01402899084329999F
:1097500008432A9908432B990843054320688561EB
:1097600020688569012001F03FFE20688561DDE900
:109770002C0108432168C8612068C569012001F0F7
:1097800033FE2068C561002001904FF00070029008
:10979000002003904FF400100490002005900690E4
:1097A0000790089004200990C0050A9040120B9081
:1097B00080010C9040120D9080200E9000200F90A0
:1097C0001090206800F5805085692C480540DDE93F
:1097D0000101084303990843049908430599084384
:1097E00006990843079908430899084309990843CB
:1097F0000543206800F580508561206800F58050A1
:109800008569012001F0F0FD206800F58050856138
:10981000DDE90A0108430C9908430D9908430E99A4
:1098200008430F9940EA81001099084340F4000171
:10983000206800F580500160206800F580500568C0
:10984000012001F0D1FD206800F580500560A0697D
:10985000012809D1206800F58050C06908490843F3
:10986000216801F58051C861002120466269FFF737
:10987000CDFE2EB070BD00000F8120FF233FDEF82B
:109880004000010038B504460020009020680068C0
:1098900040F0040021680860206800680090012002
:1098A00001F0A2FD00982168086038BD38B5044673
:1098B000002000902068006840F0080021680860DF
:1098C000206800680090012001F08EFD009821685A
:1098D000086038BD10B54FF4007002F0CBFA10BD2F
:1098E00000BFFEE710B586B00446002001900220BC
:1098F00005900D48844202D10120039001E002202E
:1099000003900120049002F09DFA694601A802F03C
:10991000E7F928B102F03AFA4FF0FF3006B010BD77
:1099200002F034FA0020F9E70080000810B50022A8
:1099300001B909E0012901D10A0205E0022901D19A
:109940000A0201E04FF440720B2800D9001D154BAC
:109950001B6823F44073134C236023461B68134396
:10996000236023461B6823F0F803236023461B680B
:10997000F82494FAA4F4B4FA84F400FA04F444F059
:1099800002042343074C236023461B6843F48033BF
:10999000236000BF00BF00BFBFF34F8F00BF00BFF9
:1099A00000BF10BD103C0240174A126822F44072FA
:1099B000154B1A60032906D11A461268DB131A43A5
:1099C000114B1A600EE0022906D10F4A126842F4C8
:1099D00000420D4B1A6005E00B4A126842F0040287
:1099E000094B1A60084A12684FF4803343EA002397
:1099F0001A43054B1A6000BF00BF00BFBFF34F8F73
:109A000000BF00BF00BF7047103C02400B4A126805
:109A100022F44072094B1A601A4612681A601A46FC
:109A2000126842F001021A60017000BF00BF00BF5F
:109A3000BFF34F8F00BF00BF00BF7047103C024014
:109A400010B50D49096821F440710B4C2160214685
:109A5000096841F4407121602146096841F0010123
:109A600021600260436000BF00BF00BFBFF34F8FA3
:109A700000BF00BF00BF10BD103C02400C4A12687E
:109A800022F440720A4B1A601A46126842F480723D
:109A90001A601A46126842F001021A60018000BF83
:109AA00000BF00BFBFF34F8F00BF00BF00BF7047B4
:109AB000103C02400C4A126822F440720A4B1A60B1
:109AC0001A46126842F400721A601A46126842F08E
:109AD00001021A60016000BF00BF00BFBFF34F8FDB
:109AE00000BF00BF00BF7047103C02401D48006827
:109AF00000F0020028B11C48806940F020001A499B
:109B000088611848006800F0100028B11648806984
:109B100040F01000144988611248006800F02000ED
:109B200028B11148806940F008000F4988610D484C
:109B3000006800F0400028B10B48806940F0040044
:109B4000094988610748006800F0800028B106488C
:109B5000806940F0020004498861F22001490860F0
:109B6000704700000C3C0240D488012070B50446C8
:109B7000002500201449886102F0A4FA054609E096
:109B8000601C38B124B102F09DFA401BA04201D9FB
:109B9000032070BD0D48006800F480300028EFD12C
:109BA0000A48006800F0F20018B1FFF79FFF01209B
:109BB000EFE70648006800F0010010B101200349FA
:109BC00008600020E5E70000D48801200C3C02403A
:109BD000F0B587B004460D461646002002900220DC
:109BE00006901848854202D10120049001E002202D
:109BF00004900120059002F025F901A902A802F0C5
:109C00006FF828B102F0C2F84FF0FF3007B0F0BD96
:109C1000002710E0D4F800C0624600232946022045
:109C200002F0BEF820B102F0B1F84FF0FF30EDE7DE
:109C30007F1C241D2D1DB742ECDB02F0A7F800208D
:109C4000E4E700000080000810B50446FFF7E0F8E4
:109C5000002013F02BFF10BD08B58DED000ABDF8F4
:109C600000100180BDF80210418008BD704700005F
:109C700010B504460CB9012010BD94F8350010B998
:109C8000204600F053F8022084F835002068006870
:109C90002549084021680860616960680843E168F7
:109CA000084321690843A1680843A1690843216A60
:109CB0000843616A0843A16A0843E16A0843216BCB
:109CC0000843216809680843216808606068102813
:109CD0001DD1217F607F4FF47F4292FAA2F2B2FA47
:109CE00082F290400843A17F4FF47F0292FAA2F2E1
:109CF000B2FA82F291400843E17F4FF07F4292FA3C
:109D0000A2F2B2FA82F29140084321688861206889
:109D1000C06840F01E002168C8600020E064012097
:109D200084F835000020A7E707F0E0FF10B586B003
:109D3000044634492068884262D100BF3248006836
:109D400040F00100304908600846006800F001005A
:109D5000009000BF00BF7020019002200290002000
:109D6000039004900D20059001A9284802F090F876
:109D700050200190022002900020039004900D20BA
:109D8000059001A9224802F083F84FF47070019009
:109D9000022002900020039004900D20059001A95C
:109DA0001C4802F075F8C0200190022002900020AB
:109DB000039004900D20059001A9174802F068F85F
:109DC0001648174908604FF0007048600021144899
:109DD0008160C1604FF48061016189004161890047
:109DE00081618911C16100210162416201F00AFAB9
:109DF00008B1FFF775FD00BF0948A064846300BF88
:109E000006B010BD0000055034380240001002407A
:109E100000000240000802400004024028640240A2
:109E200028BA01202DE9F84304460F4615461E4680
:109E30004FF0000800BF94F83400012802D102203E
:109E4000BDE8F883012084F8340000BF022084F8C4
:109E500035002068006840F4804021680860206870
:109E6000006820F00200216808602068006838431C
:109E7000216808602248A16CC8640020A16C0865B4
:109E8000A0632064B6F5803F08D2226802F1280161
:109E900033462A46A06C01F058FA24E01948A16C18
:109EA00048640120A063E663656405E0E06B400858
:109EB000E063A06B4000A063E06BB0F5803FF5D29B
:109EC000A06B801EA063A06B2064E06B042101FBEB
:109ED0000058E06B0090226802F1280143462A46B0
:109EE000A06C00F01BF82068006840F001002168B9
:109EF000086000BF002084F8340000BF00BF9FE767
:109F0000799001089D900108034612B91868C16054
:109F100001E0186801610020704700002DE9F0475A
:109F200004460E4617461D46DDF820804FF0000916
:109F3000A068802804D1400060650120BDE8F0875A
:109F400000BF94F83400012801D10220F6E7012077
:109F500084F8340000BF94F83500012873D1022042
:109F600084F83500002060652068006840F4802097
:109F7000216808602068056143463A46314620461C
:109F8000FFF717FAFA49206888425DD9F949206835
:109F9000884201D1202052E0F549483920688842A2
:109FA00001D120204BE0F34960312068884201D183
:109FB000202044E0EE4918312068884201D1202059
:109FC0003DE0EC4918312068884201D1C01436E0E8
:109FD000E74930392068884201D1C0142FE0E549B3
:109FE00078312068884201D1C01428E0E04930313E
:109FF0002068884201D1C01421E0DE493031206858
:10A00000884202D14FF4001019E0D949183920686C
:10A01000884202D14FF4001011E0D64990312068F7
:10A02000884202D14FF4001009E0D149483120683C
:10A03000884202D14FF4001001E04FF00060CC499B
:10A040004C39086020E1EFE3CA49A8312068884212
:10A050005CD9C8492068884201D1202052E0C44917
:10A0600048392068884201D120204BE0C149603145
:10A070002068884201D1202044E0BD491831206881
:10A08000884201D120203DE0BA4918312068884239
:10A0900001D1C01436E0B64930392068884201D178
:10A0A000C0142FE0B34978312068884201D1C01430
:10A0B00028E0AF4930312068884201D1C01421E046
:10A0C000AC4930312068884202D14FF4001019E0C9
:10A0D000A74918392068884202D14FF4001011E0D6
:10A0E000A44990312068884202D14FF4001009E061
:10A0F0009F4948312068884202D14FF4001001E0A6
:10A100004FF000609A4950390860BDE099494831E4
:10A11000206888425CD997492068884201D1202074
:10A1200052E0934948392068884201D120204BE011
:10A13000904960312068884201D1202044E08C4958
:10A1400018312068884201D120203DE0894918312A
:10A150002068884201D1C01436E085493039206832
:10A16000884201D1C0142FE08249783120688842AA
:10A1700001D1C01428E07E4930312068884201D1E5
:10A18000C01421E07B4930312068884202D14FF46D
:10A19000001019E0764918392068884202D14FF43E
:10A1A000001011E0734990312068884202D14FF4C9
:10A1B000001009E06E4948312068884202D14FF40E
:10A1C000001001E04FF000606A491039C8605BE0A0
:10A1D00068492068884201D1202052E0644948390A
:10A1E0002068884201D120204BE06249603120681C
:10A1F000884201D1202044E05D491831206888421E
:10A2000001D120203DE05B4918312068884201D10E
:10A21000C01436E0564930392068884201D1C01454
:10A220002FE0544978312068884201D1C01428E0D9
:10A230004F4930312068884201D1C01421E04D4996
:10A2400030312068884202D14FF4001019E04849AB
:10A2500018392068884202D14FF4001011E04549B6
:10A2600090312068884202D14FF4001009E0404943
:10A2700048312068884202D14FF4001001E04FF0CD
:10A2800000603C49103988603949206888425CD9AF
:10A2900038492068884201D1102052E034494839B9
:10A2A0002068884201D110204BE03249603120689B
:10A2B000884201D1102044E02D491831206888429D
:10A2C00001D110203DE02B4918312068884201D18E
:10A2D000001536E0264930392068884201D1001542
:10A2E0002FE0244978312068884201D1001528E008
:10A2F0001F4930312068884201D1001521E01D49F5
:10A3000030312068884202D14FF4801019E018499A
:10A3100018392068884202D14FF4801011E01549A5
:10A3200090312068884202D14FF4801009E0104932
:10A3300048312068884202D14FF4801001E04FF08C
:10A3400080600B494C39086020E10A49A831206837
:10A3500088425FD907492068884201D1102055E022
:10A36000034948392068884206D110204EE0000099
:10A370005864024010600240F8492068884201D1C8
:10A38000102043E0F6492068884201D110203DE0CA
:10A39000F24948392068884201D1001536E0F04979
:10A3A00048392068884201D100152FE0EB49183167
:10A3B0002068884201D1001528E0E9491831206859
:10A3C000884201D1001521E0E449303920688842F3
:10A3D00002D14FF4801019E0E149303920688842F9
:10A3E00002D14FF4801011E0DC49303120688842FE
:10A3F00002D14FF4801009E0D949303120688842F9
:10A4000002D14FF4801001E04FF08060D4496839E8
:10A410000860BBE0D1491839206888425BD9CF4930
:10A4200060392068884201D1102050E0CC49603961
:10A430002068884201D1102049E0C849206888423C
:10A4400001D1102043E0C6492068884201D1102084
:10A450003DE0C24948392068884201D1001536E004
:10A46000BF4948392068884201D100152FE0BB4917
:10A4700018312068884201D1001528E0B849183108
:10A480002068884201D1001521E0B44930392068A4
:10A49000884202D14FF4801019E0B1493039206868
:10A4A000884202D14FF4801011E0AC49303120686D
:10A4B000884202D14FF4801009E0A9493031206868
:10A4C000884202D14FF4801001E04FF08060A34930
:10A4D0007039C8605AE0A14960392068884201D1CA
:10A4E000102050E09E4960392068884201D1102038
:10A4F00049E09A492068884201D1102043E09849F8
:10A500002068884201D110203DE0944948392068F4
:10A51000884201D1001536E09149483920688842C7
:10A5200001D100152FE08D4918312068884201D1F2
:10A53000001528E08A4918312068884201D10015A9
:10A5400021E0864930392068884202D14FF48010DA
:10A5500019E0834930392068884202D14FF48010D5
:10A5600011E07E4930312068884202D14FF48010DA
:10A5700009E07B4930312068884202D14FF48010D5
:10A5800001E04FF08060754970398860744918396E
:10A59000206888425BD9714960392068884201D1BE
:10A5A000082050E06E4960392068884201D10820B7
:10A5B00049E06A492068884201D1082043E068499F
:10A5C0002068884201D108203DE06449483920686C
:10A5D000884201D1401536E06149483920688842F7
:10A5E00001D140152FE05D4918312068884201D122
:10A5F000401528E05A4918312068884201D1401599
:10A6000021E0564930392068884202D14FF40020B9
:10A6100019E0534930392068884202D14FF40020B4
:10A6200011E04E4930312068884202D14FF40020B9
:10A6300009E04B4930312068884202D14FF40020B4
:10A6400001E04FF000704649643908601FE143495A
:10A650004831206888425BD9404960392068884287
:10A6600001D1082050E03E4960392068884201D17C
:10A67000082049E039492068884201D1082043E098
:10A6800037492068884201D108203DE033494839E4
:10A690002068884201D1401536E0314948392068A8
:10A6A000884201D140152FE02C491831206888429A
:10A6B00001D1401528E02A4918312068884201D18B
:10A6C000401521E0254930392068884202D14FF4F5
:10A6D000002019E0224930392068884202D14FF425
:10A6E000002011E01D4930312068884202D14FF42A
:10A6F000002009E01A4930312068884202D14FF425
:10A70000002001E04FF00070154968390860BEE094
:10A7100012491839206888425DD91049603920688B
:10A72000884201D1082052E00D49603920688842F2
:10A7300001D108204BE009492068884201D1082056
:10A7400045E007492068884201D108203FE00349DD
:10A7500048392068884205D1401538E070600240D1
:10A7600070640240FA492068884201D140152EE009
:10A77000F8492068884201D1401528E0F449603149
:10A780002068884201D1401521E0F249483920680B
:10A79000884202D14FF4002019E0ED4918312068B9
:10A7A000884202D14FF4002011E0EA4918312068B4
:10A7B000884202D14FF4002009E0E5497831206851
:10A7C000884202D14FF4002001E04FF00070E149CF
:10A7D0008839C8605BE0DF4978392068884201D158
:10A7E000082051E0DA4918392068884201D1082050
:10A7F0004AE0D84918392068884201D1082043E04E
:10A80000D34948312068884201D108203CE0D14931
:10A8100060392068884201D1401535E0CC49206874
:10A82000884202D140152FE04EE3CA492068884291
:10A8300001D1401528E0C64960312068884201D125
:10A84000401521E0C34948392068884202D14FF4BD
:10A85000002019E0BE4918312068884202D14FF427
:10A86000002011E0BB4918312068884202D14FF422
:10A87000002009E0B64978312068884202D14FF4BF
:10A88000002001E04FF00070B24988398860B0497B
:10A890003031206888425BD9AE49783920688842D7
:10A8A00001D1AD4850E0AA4918392068884201D149
:10A8B000A94849E0A74918392068884201D1A6482B
:10A8C00042E0A34948312068884201D1A2483BE0D8
:10A8D000A04960392068884201D1801534E09C4944
:10A8E0002068884201D180152EE09A49206888426C
:10A8F00001D1801528E0964960312068884201D155
:10A90000801521E0934948392068884202D14FF4EC
:10A91000802019E08E4918312068884202D14FF416
:10A92000802011E08B4918312068884202D14FF411
:10A93000802009E0864978312068884202D14FF4AE
:10A94000802001E04FF0807081491C39086020E1CF
:10A9500080493031206888425BD97E497839206847
:10A96000884201D17C4850E07949183920688842F2
:10A9700001D1794849E0774918392068884201D1E6
:10A98000754842E0724948312068884201D17248D6
:10A990003BE0704960392068884201D1801534E07D
:10A9A0006B492068884201D180152EE069492068F2
:10A9B000884201D1801528E06549603120688842CD
:10A9C00001D1801521E0634948392068884202D1CD
:10A9D0004FF4802019E05E4918312068884202D186
:10A9E0004FF4802011E05B4918312068884202D181
:10A9F0004FF4802009E0564978312068884202D11E
:10AA00004FF4802001E04FF08070514920390860F8
:10AA1000BFE050493039206888425BD94D497839C8
:10AA20002068884201D14C4850E0494918392068D3
:10AA3000884201D1484849E046491839206888428F
:10AA400001D1454842E0424948312068884201D15D
:10AA500041483BE03F4960392068884201D1801578
:10AA600034E03B492068884201D180152EE0394905
:10AA70002068884201D1801528E03549603120687E
:10AA8000884201D1801521E0324948392068884246
:10AA900002D14FF4802019E02D49183120688842F6
:10AAA00002D14FF4802011E02A49183120688842F1
:10AAB00002D14FF4802009E025497831206888428E
:10AAC00002D14FF4802001E04FF080702149883995
:10AAD000C8605EE01F4978392068884201D11E486D
:10AAE00054E01B4918392068884201D11A484DE0CA
:10AAF000184918392068884201D1174846E014499E
:10AB000048312068884201D113483FE0114960393B
:10AB10002068884201D1801538E00D4920688842BC
:10AB200001D1801532E00B492068884201D180159F
:10AB30002CE0074960312068884201D1801525E06A
:10AB4000044948392068884208D14FF480201DE02C
:10AB5000286402408860024004008000DF492068C9
:10AB6000884202D14FF4802010E0DD4920688842FD
:10AB700002D14FF4802009E0D84960312068884232
:10AB800002D14FF4802001E04FF08070D449A03909
:10AB90008860D2491831206888425BD9D049903901
:10ABA0002068884201D1CF4850E0CC493039206834
:10ABB000884201D1CB4849E0C949303920688842F0
:10ABC00001D1C84842E0C54930312068884201D1EE
:10ABD000C4483BE0C24978392068884201D140200E
:10ABE00034E0BE4918392068884201D140202DE068
:10ABF000BB4918392068884201D1402026E0B74976
:10AC000048312068884201D140201FE0B4496039B2
:10AC10002068884202D14FF4803017E0AF492068A5
:10AC2000884202D14FF4803010E0AD49206888425C
:10AC300002D14FF4803009E0A84960312068884291
:10AC400002D14FF4803001E04FF48000A349343941
:10AC500008601CE1A2491831206888425BD9A049EC
:10AC600090392068884201D19E4850E09B49303994
:10AC70002068884201D19B4849E0994930392068D1
:10AC8000884201D1974842E0944930312068884297
:10AC900001D194483BE0924978392068884201D13B
:10ACA000402034E08D4918392068884201D1402085
:10ACB0002DE08B4918392068884201D1402026E0D8
:10ACC000864948312068884201D140201FE08449EC
:10ACD00060392068884202D14FF4803017E07F4904
:10ACE0002068884202D14FF4803010E07C4920680F
:10ACF000884202D14FF4803009E078496031206801
:10AD0000884202D14FF4803001E04FF48000734953
:10AD100038390860BBE072494839206888425BD9FD
:10AD20006F4990392068884201D16E4850E06B49E4
:10AD300030392068884201D16A4849E06849303991
:10AD40002068884201D1674842E064493031206878
:10AD5000884201D163483BE06149783920688842E4
:10AD600001D1402034E05D4918392068884201D182
:10AD700040202DE05A4918392068884201D14020EE
:10AD800026E0564948312068884201D140201FE022
:10AD9000534960392068884202D14FF4803017E06F
:10ADA0004E492068884202D14FF4803010E04C496F
:10ADB0002068884202D14FF4803009E04749603171
:10ADC0002068884202D14FF4803001E04FF48000C7
:10ADD0004349A039C8605AE0414990392068884207
:10ADE00001D1404850E03D4930392068884201D1C6
:10ADF0003C4849E03A4930392068884201D1394815
:10AE000042E0364930312068884201D135483BE084
:10AE1000334978392068884201D1402034E02F49F5
:10AE200018392068884201D140202DE02C4918397A
:10AE30002068884201D1402026E028494831206816
:10AE4000884201D140201FE02549603920688842AE
:10AE500002D14FF4803017E020492068884202D1A7
:10AE60004FF4803010E01E492068884202D14FF430
:10AE7000803009E0194960312068884202D14FF4DE
:10AE8000803001E04FF480001549A03988602068C7
:10AE9000006840F01600216808602068406940F0B2
:10AEA000800021684861206C08B9A06C28B1206836
:10AEB000006840F00800216808602068006840F0E1
:10AEC00001002168086006E000BF002084F834001B
:10AED00000BF4FF002094846FFF730B84064024017
:10AEE000A06002400100800070B50446A56D01F02D
:10AEF000E9F8064694F83500022808D080206065FD
:10AF000000BF002084F8340000BF012070BD20681D
:10AF1000006820F01600216808602068406920F071
:10AF2000800021684861206C08B9A06C28B12068B5
:10AF3000006820F00800216808602068006820F0A0
:10AF40000100216808600FE001F0BCF8801B0528B3
:10AF50000AD92020606500BF002084F8340000BFBB
:10AF6000032084F83500D1E72068006800F0010074
:10AF70000028E9D194F85C103F208840A86000BF09
:10AF8000002084F8340000BF012084F83500002040
:10AF9000BCE7014691F83500022803D080204865BF
:10AFA00001207047052081F835000868006820F00E
:10AFB00001000A6810600020F3E70000F8B50446BD
:10AFC000002000908D4800684FF41651B0FBF1F757
:10AFD000A56D2E6894F85C1008208840304098B128
:10AFE0002068006800F0040070B12068006820F05C
:10AFF00004002168086094F85C1008208840A8606C
:10B00000606D40F00100606594F85C107C488840F9
:10B01000304068B12068406900F0800040B194F889
:10B020005C1077488840A860606D40F00200606561
:10B0300094F85C107248C01C8840304070B12068A1
:10B04000006800F0020048B194F85C106C48C01C25
:10B050008840A860606D40F00400606594F85C1062
:10B0600010208840304078B32068006800F0080065
:10B0700050B394F85C1010208840A86020680068E5
:10B0800000F4802080B12068006800F4002028B916
:10B09000206CC8B12046216C884715E0A06C98B19F
:10B0A0002046A16C88470FE02068006800F480709B
:10B0B00028B92068006820F0080021680860206C2A
:10B0C00010B12046216C884794F85C1020208840FD
:10B0D0003040002865D02068006800F0100000288B
:10B0E0005FD094F85C1020208840A86094F8350068
:10B0F000052828D12068006820F016002168086023
:10B100002068406920F0800021684861206C08B9FF
:10B11000A06C28B12068006820F008002168086051
:10B1200094F85C103F208840A86000BF002084F89D
:10B13000340000BF012084F83500206D10B1204696
:10B14000216D8847F8BD2068006800F4802080B138
:10B150002068006800F4002028B9606C10B1204617
:10B16000616C88471DE0E06BD8B12046E16B8847F1
:10B1700017E02068006800F4807068B920680068F3
:10B1800020F010002168086000BF002084F834001F
:10B1900000BF012084F83500E06B10B12046E16B60
:10B1A0008847606D38B3606D00F00100F0B1052094
:10B1B00084F835002068006820F0010021680860EC
:10B1C00000BF0098401C0090B84200D905E02068FC
:10B1D000006800F001000028F3D100BF00BF00208C
:10B1E00084F8340000BF012084F83500E06C10B111
:10B1F0002046E16C884700BFA4E70000440100201E
:10B20000010080002DE9F0410446002500F05AFFBE
:10B21000074614B90120BDE8F081606A00B100BFA3
:10B2200000BF002084F8340000BF022084F83500FD
:10B230002068006820F00100216808600AE000F042
:10B2400041FFC01B052805D920206065032084F834
:10B250003500E0E72068006800F001000028EED12A
:10B260002068056820480540D4E901010843E168E9
:10B2700008432169084361690843A1690843E169FA
:10B280000843216A08430543606A042803D1D4E9CE
:10B290000B0108430543206805602068456925F0D7
:10B2A0000705606A0543606A04280BD1A06A05435C
:10B2B0002046FEF721F828B140206065012084F87F
:10B2C0003500A8E7206845612046FDF7FBFF0646EC
:10B2D00094F85C103F208840B06000206065012039
:10B2E00084F83500002096E73F8010E010B5034653
:10B2F000002400BF93F83400012801D1022010BDC2
:10B30000012083F8340000BF93F83500012814D1E0
:10B31000062910D2DFE801F0030507090B0DDA63F7
:10B320000AE01A6408E05A6406E09A6404E0DA6409
:10B3300002E01A6500E000BF00E0012400BF002029
:10B3400083F8340000BF2046D9E72DE9F0470446D2
:10B350000D4616461F464FF00008D4F8589000BF1F
:10B3600094F83400012802D10220BDE8F0870120C2
:10B3700084F8340000BF94F8350001282BD1022056
:10B3800084F83500002060653B4632462946204659
:10B39000FEF71FF894F85C103F208840C9F80800B9
:10B3A0002068006840F01600216808602068406945
:10B3B00040F0800021684861206C28B12068006856
:10B3C00040F00800216808602068006840F0010033
:10B3D0002168086006E000BF002084F8340000BF48
:10B3E0004FF002084046C0E731B5002400F06AFE85
:10B3F000044600BF00F066FE001B00998842F9D3A6
:10B4000038BD70B504460D461646002200BF94F8BC
:10B410004500012801D1022070BD012084F84500BB
:10B4200000BF022084F84400A56200221FE005EB63
:10B4300042114FF00040086044F2F4504860C2EB03
:10B44000C21000EB400006EB80008860A069012874
:10B4500003D1486820F000404860581E904204D94B
:10B4600005EB42102030C86000E0CD60521C9A42CB
:10B47000DDD3206800F58050C560012084F84400C9
:10B4800000BF002084F8450000BF00BFC4E770B5CE
:10B4900004460D461646002200BF94F845000128D8
:10B4A00001D1022070BD012084F8450000BF0220B8
:10B4B00084F84400E56200221BE005EB42114FF4E2
:10B4C00080100860C2EBC21000EB400006EB800069
:10B4D0008860E06918B9086840F440000860581EA8
:10B4E000904204D905EB42102030C86000E0CD60E6
:10B4F000521C9A42E1D3206800F58050056101207A
:10B5000084F8440000BF002084F8450000BF00BF5D
:10B51000C8E770470146002200BF91F845000128A6
:10B5200001D102207047012081F8450000BF0220B0
:10B5300081F844003AE0521C886A006800F44070C8
:10B54000B0F5007F07D1886A086301238B63886A9E
:10B55000C06888622AE0886A006800F4407030B9E8
:10B56000886B401C8863886AC06888621EE08B6AAA
:10B570004B63886B401C8863886B012801D1886A03
:10B580000863886A0068C0F30D40001FC863086B39
:10B5900083680B64886AC0688862012081F844006F
:10B5A00000BF002081F8450000BFBBE7886A006843
:10B5B00000F0004008B9042ABDD3012081F84400FE
:10B5C00000BF002081F8450000BF0120AAE710B5A8
:10B5D0000446206800F58050406900F04000402893
:10B5E0000FD1204600F060FA4021206800F580501D
:10B5F0004161012084F8440000BF002084F8450028
:10B6000016E0206800F58050406900F0010078B134
:10B61000204600F01BFB0121206800F580504161AD
:10B62000012084F8440000BF002084F8450000BFDA
:10B630004FF48031206800F580504161206800F5AA
:10B640008050406900F40040B0F5004F10D1204612
:10B65000FFF75FFF4FF40041206800F58050416123
:10B66000012084F8440000BF002084F8450000BF9A
:10B6700010BD00002DE9FC4104460025002001908A
:10B680009C4E0027804614B90120BDE8FC8194F847
:10B69000440028B9002084F84500204600F038F91D
:10B6A00000BF9548006840F4804093490860084610
:10B6B000006800F48040009000BF00BF8F48006821
:10B6C00020F400008D49086008460068216A08439C
:10B6D0008A490860206800F58050006840F0010148
:10B6E000206800F58050016000F0ECFC07460FE098
:10B6F00000F0E8FCC01BB0F5FA7F09D9032084F8FC
:10B70000440000BF002084F8450000BF0320BCE7D0
:10B71000206800F58050006800F001000028E7D1A3
:10B720002068056925F01C0501F06EFB064674488B
:10B73000864205D37348864202D245F008051AE0D6
:10B740007048864205D36B48864202D245F00C050C
:10B7500011E06848864203D36B48864200D20AE073
:10B760006948864205D36948864202D245F00405FD
:10B7700001E045F01005206805614FF4004200210A
:10B78000204600F064FA48B14FF0010841462046D7
:10B79000FDF756FF012084F8440076E7FF20FFF70D
:10B7A00023FE6068002871D000F08CFC074600BFC3
:10B7B00001AA0121204600F02DF900F083FCC01BF6
:10B7C00041F2883188420FD94FF0010841462046A6
:10B7D000FDF736FF012084F8440000BF002084F804
:10B7E000450000BF032050E7019800F00400042842
:10B7F000DED182020021204600F029FA48B14FF044
:10B80000010841462046FDF71BFF012084F8440053
:10B810003BE700F057FC074600BF01AA0121204684
:10B8200000F0F8F800F04EFCC01B41F2883188426D
:10B830000FD94FF0010841462046FDF701FF0120D6
:10B8400084F8440000BF002084F8450000BF0320B6
:10B850001BE7019800F020002028DED101AA10216A
:10B86000204600F0D7F848B14FF001084146204685
:10B87000FDF7E6FE012084F8440006E7019800F099
:10B88000040020B14FF40061E16002E00DE000210E
:10B89000E160019800F00200022802D10021A160BD
:10B8A0001EE04FF48041A1601AE0E068C0F3CF00D1
:10B8B000A168C1F34F0140EA01020021204600F0D7
:10B8C000C6F948B14FF0010841462046FDF7B8FEE1
:10B8D000012084F84400D8E640F6FF70FFF784FDAD
:10B8E00041462046FDF7ACFE012084F844000020CC
:10B8F000CBE600000087930344380240043801403F
:10B90000002D3101C00E160200E1F50580D1F008CE
:10B9100010B586B004463949206888426BD100BF13
:10B9200000BF3748006840F000703549086008469D
:10B93000006800F00070009000BF00BF00BF084624
:10B94000006840F0806008600846006800F0806091
:10B95000009000BF00BF00BF0846006840F00060D4
:10B9600008600846006800F00060009000BF00BF5B
:10B9700000BF32200190022002900020039003209B
:10B9800004900B20059001A91E4800F081FA862042
:10B9900001900220029000200390032004900B20CD
:10B9A000059001A9184800F073FA4FF40050019077
:10B9B0000220029000200390032004900B200590A9
:10B9C00001A9124800F064FA4FF4205001900220BF
:10B9D000029000200390032004900B20059001A901
:10B9E0000B4800F055FA002205213D2000F0D8FB5D
:10B9F0003D2000F0C8FB06B010BD000000800240F2
:10BA000030380240000802400000024000040240BA
:10BA1000001802402DE9F04104460E461746002565
:10BA2000A84694F84400822802D10220BDE8F081A3
:10BA3000822084F844002068056905F01C05208AEE
:10BA40004FF4784101EAC0200543481100EA86100E
:10BA5000054325F0020545F001052068056100F069
:10BA600031FB804612E000F02DFBA0EB0800B0F5A2
:10BA7000803F09D3012084F8440000BF002084F8EF
:10BA8000450000BF0320D1E72068056905F00100EB
:10BA90000028E8D12068406980B23860012084F82D
:10BAA00044000020C2E7000010B5044602480068C8
:10BAB0000CF0E6FA10BD00004801002010B5044665
:10BAC00000BF94F84500012801D1022010BD0120DB
:10BAD00084F8450000BF022084F844002046FDF7AA
:10BAE000E5FE2046FDF7CEFE2046FDF76BFD204625
:10BAF000FDF75DFD2046FDF74FFD012084F8440071
:10BB000000BF002084F8450000BF00BFDEE770B52D
:10BB1000024600230025002400BF92F845000128BA
:10BB200001D1022070BD012082F8450000BF022033
:10BB300082F8440049B9012082F8440000BF002087
:10BB400082F8450000BF0120ECE7D06A006800F0F1
:10BB5000004048B1122082F8440000BF002082F863
:10BB6000450000BF0120DDE740F2F450814208D9D2
:10BB7000B1FBF0F3B1FBF0F600FB161010B15B1C4B
:10BB800000E00123012B13D1D06A006840F040503F
:10BB9000D66A3060C1F30C00D66A7060D06A006863
:10BBA00040F00040D66A3060D06AC068D06232E0AF
:10BBB00000242EE0D06A006820F04050D66A306041
:10BBC0002CB9D06A006840F08050D66A306040F2EC
:10BBD000F450D66A7060581EA04210D1D06A006836
:10BBE00040F00050D66A3060581EC0EBC01000EB29
:10BBF0004000A1EB8005C5F30C00D66A7060D06AE6
:10BC0000006840F00040D66A3060D06AC068D062F8
:10BC1000641C9C42CED3106800F58050406900F04F
:10BC2000040048B10426106800F5805046610026E3
:10BC3000106800F580504660012082F8440000BF83
:10BC4000002082F8450000BF00BF6BE770472DE978
:10BC5000F04104460E4617460025A84694F84400D5
:10BC6000422802D10220BDE8F081422084F844003D
:10BC70002068056905F01C05208A4FF4784101EA27
:10BC8000C0200543481100EA8610054345F002052F
:10BC900045F00105B8B2216848612068056100F0EF
:10BCA00011FA804612E000F00DFAA0EB0800B0F5A2
:10BCB000803F09D3012084F8440000BF002084F8AD
:10BCC000450000BF0320CEE72068056905F00100AC
:10BCD0000028E8D1012084F844000020C3E70000D8
:10BCE0002DE9F04104460E460127002500BF2548F6
:10BCF000007D012802D10220BDE8F0810120214908
:10BD0000087500BF4CF25030FDF730FF0746002F9A
:10BD100030D1401E30602068012810D1207C61683D
:10BD2000FDF742FE4CF25030FDF720FF0746164863
:10BD3000006848F204018843134908601AE0A568C6
:10BD400012E0217C2846FDF7F1FD4CF25030FDF762
:10BD50000DFF07460C48006820F0FA000A49086009
:10BD60000FB1356005E06D1CD4E902100844A8420B
:10BD7000E7D800BF00BF00200249087500BF384661
:10BD8000BAE70000D4880120103C02400348006854
:10BD900040F000400149086000207047103C02401C
:10BDA0002DE9F04106460F4614461D464FF00108A6
:10BDB00000BF2248007D012802D10220BDE8F081A9
:10BDC00001201E49087500BF4CF25030FDF7CEFE31
:10BDD0008046B8F1000F29D136B1012E09D0022ECC
:10BDE0000CD0032E15D10EE0E1B23846FDF70EFE61
:10BDF00010E0A1B23846FDF741FE0BE0214638467F
:10BE0000FDF758FE06E022462B463846FDF718FEA1
:10BE100000E000BF00BF4CF25030FDF7A7FE8046A7
:10BE20000748006820F001000549086000BF0020B5
:10BE30000249087500BF4046C0E70000D4880120D1
:10BE4000103C02400748006800F0004030B106484E
:10BE500004490C3908600548086001E0012070477A
:10BE60000020FCE7103C024023016745AB89EFCD81
:10BE70007047000010B5044604480068204020B117
:10BE8000024804602046FFF7F3FF10BD143C014058
:10BE9000F8B502460B46002100250024002000BF13
:10BEA000E4E0012606FA01F51E6806EA0504AC4244
:10BEB00071D15E68022E02D05E68122E13D1CF08B7
:10BEC00002F1200656F827004E07F70E0F26BE4057
:10BED000B0434F07FF0E1E69BE403043CF0802F14A
:10BEE000200646F8270010684F000326BE40B043E6
:10BEF0001E7906F003064F00BE40304310605E68B6
:10BF0000012E08D05E68022E05D05E68112E02D088
:10BF10005E68122E13D190684F000326BE40B043D6
:10BF20004F00DE68BE4030439060506801268E406E
:10BF3000B0431E79C6F300168E4030435060D0687F
:10BF40004F000326BE40B0434F009E68BE403043C2
:10BF5000D0605E6806F08056B6F1805FA8D100BF61
:10BF6000444E366846F48046424F3E603E46366850
:10BF700006F48046009600BF00BF3F4E8F0856F87B
:10BF800027008E07370F0F26BE40B0433B4EB2420C
:10BF900002D100262EE068E0394EB24201D10126DE
:10BFA00028E0384EB24201D1022623E0364EB2429A
:10BFB00001D103261EE0354EB24201D1042619E01C
:10BFC000334EB24201D1052614E0324EB24201D1C5
:10BFD00006260FE0304EB24201D107260AE02F4E6E
:10BFE000B24201D1082605E02D4EB24201D1092608
:10BFF00000E00A268F073F0FBE4030431E4E8F08D9
:10C0000046F82700274E3068A0435E6806F4803665
:10C01000B6F5803F00D12043224E3060361D306897
:10C02000A0435E6806F40036B6F5003F00D1204319
:10C030001C4E361D3060361D3068A0435E6806F425
:10C040008016B6F5801F00D12043164E08363060AA
:10C05000361D3068A0435E6806F40016B6F5001F72
:10C0600000D120430F4E0C363060491C1029FFF4DC
:10C0700018AFF8BD443802400838014000000240C3
:10C080000004024000080240000C02400010024080
:10C090000014024000180240001C02400020024030
:10C0A00000240240003C0140024613690B400BB1E2
:10C0B000012000E0002070470AB1816101E00B041B
:10C0C000836170470148006870470000400100200C
:10C0D00002480068401C0149086070474001002088
:10C0E00010B50848006840F4007006490860032055
:10C0F00000F094F80F2000F007F800F019F8002085
:10C1000010BD0000003C024070B5044607480068BE
:10C110004FF47A71B0FBF1F5284601F00CFE0022D5
:10C120002146501E00F03CF8002070BD4401002064
:10C1300010B5032000F072F8002211466FF00B00DA
:10C1400000F02EF8002211466FF00A0000F028F8E7
:10C15000002211466FF0090000F022F8002211467B
:10C16000501F00F01DF800221146101F00F018F8B3
:10C1700000220F21901E00F013F800220F21501E04
:10C1800000F00EF810BD00BF00F01F020121914029
:10C190004209920002F1E022C2F8001100BF70478C
:10C1A0002DE9F05F80460D461646002703F01CFB84
:10C1B000074639462A46334601F00700C0F1070A10
:10C1C000BAF1040F02D94FF0040A01E0C0F1070AE6
:10C1D000D14600F1040ABAF1070F02D24FF0000A6B
:10C1E00001E0A0F1030AD4464FF0010A0AFA09FA65
:10C1F000AAF1010A0AEA020A0AFA0CFA4FF0010B44
:10C200000BFA0CFBABF1010B0BEA030B4AEA0B0434
:10C210002146404603F0F0FABDE8F09F00BF00F071
:10C220000702064B19684FF6FF031940044B0B43F6
:10C2300043EA0221014B196000BF70470CED00E09A
:10C240000000FA0538B5002400BF2048006840F01F
:10C2500080501E4908600846006800F08050009039
:10C2600000BF00BF1A48006840F4803018490860D9
:10C27000FFF728FF044607E0FFF724FF001BB0F597
:10C280007A7F01D9032038BD1148406800F480301E
:10C29000B0F5803FF0D10E48006840F400300C4902
:10C2A0000860FFF70FFF044607E0FFF70BFF001BD6
:10C2B000B0F57A7F01D90320E5E70548406800F42E
:10C2C0000030B0F5003FF0D10020DCE740380240FC
:10C2D000007000402DE9F8430446002600250027A1
:10C2E000A846A946207800F0010088B100BFFE48AA
:10C2F000006820F40000FC49086008460068616B93
:10C300000843F949086000BF606B08B94FF00108A5
:10C31000206800F40020B0F5002F13D1F2488430DB
:10C32000006820F44010E16B0843EF498431086055
:10C33000E06BB0F5801F01D14FF00108E06B08B948
:10C340004FF00109206800F48010B0F5801F13D170
:10C35000E5488430006820F44000216C0843E2493D
:10C3600084310860206CB0F5800F01D14FF00108D6
:10C37000206C08B94FF00109206800F08070B0F11E
:10C38000807F01D14FF00108207800F020002028A4
:10C3900070D100BFD4483830006840F08050D24996
:10C3A000383108600846006800F08050009000BFF7
:10C3B00000BFCE48006840F48070CC490860FFF7A9
:10C3C00081FE064607E0FFF77DFE801B642802D948
:10C3D0000320BDE8F883C548006800F48070002899
:10C3E000F1D0C1486830006800F4407585B3208EF4
:10C3F00000F44070A8422BD0BB486830006820F49D
:10C400004075B9486830006840F48030B6496831FA
:10C4100008600846006820F480300860084605601F
:10C42000006800F0010098B1FFF74CFE064608E0F6
:10C43000FFF748FE801B41F28831884201D9032072
:10C44000C7E7A94868300068C0F340000028EFD073
:10C4500000BF208E00F44070B0F5407F0BD1A248A1
:10C46000006820F4F810A24A216B114008439E494D
:10C47000086006E010E09C48006820F4F8109A4933
:10C480000860994868300068218EC1F30B010843A9
:10C4900095496831086000BF207800F0100010282E
:10C4A00010D100BF90488430006820F080708E4921
:10C4B0008431086008460068A16B08438A498431CA
:10C4C000086000BF208800F48040B0F5804F09D19B
:10C4D00085488830006820F44030616E0843824906
:10C4E00088310860208800F40040B0F5004F09D181
:10C4F0007D488830006820F44020A16E08437A49C6
:10C5000088310860206800F48030B0F5803F09D1A0
:10C5100075488830006820F44010E16E0843724985
:10C5200088310860206800F40030B0F5003F09D180
:10C530006D488830006820F44000216F08436A4944
:10C5400088310860207800F04000402809D1664812
:10C550008830006820F00300616C0843624988312C
:10C560000860207800F08000802809D15E4888307B
:10C57000006820F00C00A16C08435B49883108601A
:10C58000208800F48070B0F5807F09D1564888304B
:10C59000006820F03000E16C08435349883108609E
:10C5A000208800F40070B0F5007F09D14E48883033
:10C5B000006820F0C000216D08434B4988310860B5
:10C5C000208800F48060B0F5806F09D1464888303B
:10C5D000006820F44070616D084343498831086069
:10C5E000208800F40060B0F5006F09D13E48883023
:10C5F000006820F44060A16D08433B498831086021
:10C60000208800F48050B0F5805F09D1364888302A
:10C61000006820F44050E16D0843334988310860D8
:10C62000208800F40050B0F5005F09D12E48883012
:10C63000006820F44040216E08432B49883108608F
:10C64000206800F48000B0F5800F09D126488830BA
:10C65000006820F08060A16F08432349883108609A
:10C66000206800F40010B0F5001F0FD11E4888307C
:10C67000006820F00060E16F08431B4988310860C2
:10C68000E06FB0F1006F01D14FF00109207800F0A8
:10C690000800082801D14FF00109206800F480202B
:10C6A000B0F5802F09D110488830006820F0407024
:10C6B000616F08430C4988310860206800F400006D
:10C6C000B0F5000F0AD108488830006820F080508B
:10C6D000D4F880100843044988310860206800F0CD
:10C6E0008060B0F1806F05E00838024000700040C3
:10C6F000FFFCFF0F08D1FE48006820F00050D4F87E
:10C7000084100843FA490860206800F00060B0F126
:10C71000006F0AD1F648001F006820F00070D4F8BE
:10C7200088100843F249091F0860206800F0805013
:10C73000B0F1805F0AD1EE48001F006820F08060F1
:10C74000D4F88C100843EA49091F0860B8F1010FBA
:10C7500003D02068B0F1007F7DD1E54890380068B3
:10C7600020F08060E24990390860FFF7ABFC064694
:10C7700006E0FFF7A7FC801B642801D9032028E608
:10C78000DB4890380068C0F3C0600028F1D1207801
:10C7900000F00100F0B3606BE0BBD5480C380068D6
:10C7A00000F440304FF4403191FAA1F1B1FA81F137
:10C7B00020FA01F5CE480C38006800F070604FF0A8
:10C7C000706191FAA1F1B1FA81F120FA01F747F60F
:10C7D000C07191FAA1F1B1FA81F1606888404FF41B
:10C7E000403191FAA1F1B1FA81F105FA01F1084362
:10C7F0004FF0706191FAA1F1B1FA81F107FA01F1FC
:10C8000008434FF0E04292FAA2F2B2FA82F2A16833
:10C81000914000E003E00843B5490C390860206806
:10C8200000F40020B0F5002F03D1E06BB0F5801FBD
:10C8300009D0206800F48010B0F5801F50D1206C22
:10C84000B0F5800F4CD1AA480C38006800F4403095
:10C850004FF4403100E0CFE091FAA1F1B1FA81F15B
:10C8600020FA01F5A2480C38006800F0E0404FF0D3
:10C87000E04191FAA1F1B1FA81F120FA01F747F60E
:10C88000C07191FAA1F1B1FA81F1606888404FF46A
:10C89000403191FAA1F1B1FA81F105FA01F10843B1
:10C8A0004FF0706292FAA2F2B2FA82F2E16891401D
:10C8B00008434FF0E04191FAA1F1B1FA81F107FA92
:10C8C00001F108438A490C3908608948001F006853
:10C8D00020F01F00616A491E08438549091F08604E
:10C8E000206800F08070B0F1807F3FD180480C3824
:10C8F000006800F070604FF0706191FAA1F1B1FA38
:10C9000081F120FA01F57A480C38006800F0E04027
:10C910004FF0E04191FAA1F1B1FA81F120FA01F76B
:10C9200047F6C07191FAA1F1B1FA81F160688840CF
:10C930004FF4403292FAA2F2B2FA82F221699140A7
:10C9400008434FF0706191FAA1F1B1FA81F105FA53
:10C9500001F108434FF0E04191FAA1F1B1FA81F100
:10C9600007FA01F1084362490C390860206800F0B9
:10C970000070B0F1007F25D147F6C07191FAA1F1A6
:10C98000B1FA81F1606888404FF4403292FAA2F225
:10C99000B2FA82F22169914008434FF0706292FA34
:10C9A000A2F2B2FA82F2E168914008434FF0E0420D
:10C9B00092FAA2F2B2FA82F2A168914008434C497D
:10C9C0000C3908604A489038006840F08060484957
:10C9D00090390860FFF776FB064606E0FFF772FB2A
:10C9E000801B642801D90320F3E441489038006893
:10C9F000C0F3C0600028F1D0B9F1010F69D13C4803
:10CA00009038006820F08050394990390860FFF76D
:10CA100059FB064606E0FFF755FB801B642801D949
:10CA20000320D6E4324890380068C0F340700028F4
:10CA3000F1D1206800F40020B0F5002F01D1E06BA7
:10CA400038B1206800F48010B0F5801F4FD1206C01
:10CA5000F0BB27480838006800F440304FF44031FC
:10CA600091FAA1F1B1FA81F120FA01F520480838D4
:10CA7000006800F0E0404FF0E04191FAA1F1B1FA16
:10CA800081F120FA01F747F6C07191FAA1F1B1FAEC
:10CA900081F1606988404FF4403191FAA1F1B1FA17
:10CAA00081F105FA01F108434FF0706292FAA2F2A7
:10CAB000B2FA82F2A169914008434FF0E04191FA45
:10CAC000A1F1B1FA81F107FA01F10843084901E047
:10CAD0000DE0BBE008390860081D006820F4F8513B
:10CAE000A06A401E41EA00200149091F086001E0D8
:10CAF00090380240206800F40010B0F5001F40D1CB
:10CB0000E06FB0F1006F3CD15148006800F07060F8
:10CB10004FF0706191FAA1F1B1FA81F120FA01F5BB
:10CB20004B48006800F0E0404FF0E04191FAA1F17D
:10CB3000B1FA81F120FA01F747F6C07191FAA1F13B
:10CB4000B1FA81F1606988404FF4403292FAA2F262
:10CB5000B2FA82F2216A914008434FF0706191FA73
:10CB6000A1F1B1FA81F105FA01F108434FF0E0417A
:10CB700091FAA1F1B1FA81F107FA01F108433449C0
:10CB80000860207800F00800082845D13048006887
:10CB900000F070604FF0706191FAA1F1B1FA81F18B
:10CBA00020FA01F52A48006800F440304FF4403183
:10CBB00091FAA1F1B1FA81F120FA01F747F6C071BB
:10CBC00091FAA1F1B1FA81F1606988404FF44031E6
:10CBD00091FAA1F1B1FA81F107FA01F108434FF09E
:10CBE000706191FAA1F1B1FA81F105FA01F10843FE
:10CBF0004FF0E04292FAA2F2B2FA82F2E169914079
:10CC0000084313490860081D006820F44030E16AB9
:10CC100008430F49091D08600D488838006840F036
:10CC200080500B4988390860FFF74CFA064606E049
:10CC3000FFF748FA801B642801D903209FE50448C8
:10CC400088380068C0F340700028F1D0002096E5D5
:10CC50008838024070B504460D46002666480068D4
:10CC600000F00F00A8420ED26348006820F00F00C9
:10CC70002843614908600846006800F00F00A84298
:10CC800001D0012070BD207800F00200022807D1F9
:10CC90005A48006820F0F000A1680843574908602E
:10CCA000207800F00100002860D06068012807D1DA
:10CCB000524808380068C0F34040A0B90120E1E7BD
:10CCC0006068022807D14D4808380068C0F340600A
:10CCD00048B90120D6E7494808380068C0F3400049
:10CCE00008B90120CEE74548006820F003006168DC
:10CCF000084342490860FFF7E5F9064660680128E5
:10CD000010D108E0FFF7DEF9801B41F2883188423C
:10CD100001D90320B6E73948006800F00C00042868
:10CD2000F0D123E06068022810D108E0FFF7CAF9CB
:10CD3000801B41F28831884201D90320A2E72F48A5
:10CD4000006800F00C000828F0D10FE008E0FFF7C1
:10CD5000B9F9801B41F28831884201D9032091E75B
:10CD60002648006800F00C000028F0D12248006836
:10CD700000F00F00A8420ED91F48006820F00F00F5
:10CD800028431D4908600846006800F00F00A842CB
:10CD900001D0012076E7207800F00400042807D1B4
:10CDA0001648006820F4E050E16808431349086021
:10CDB000207800F00800082808D11048006820F406
:10CDC0006040216940EAC1000C49086000F04EF85B
:10CDD0000A49096801F0F001F02292FAA2F2B2FACF
:10CDE00082F2D140064A515CC840064908600F20D3
:10CDF000FFF78AF9002045E7003C0240083802406E
:10CE000070F40208440100200148006870470000E7
:10CE10004401002000B5FFF7F7FF0749096801F456
:10CE2000E0514FF4E05292FAA2F2B2FA82F2D1400B
:10CE3000024A515CC84000BD0838024080F4020834
:10CE400000B5FFF7E1FF0749096801F460414FF4BD
:10CE5000604292FAA2F2B2FA82F2D140024A515CE6
:10CE6000C84000BD0838024080F4020870B50021B7
:10CE7000002200230020274C246804F00C0424B175
:10CE8000042C04D0082C41D103E0234840E023487F
:10CE90003EE0204C241F246804F03F011D4C241F59
:10CEA000246804F4800484B11C4CB4FBF1F5194CE3
:10CEB000241F246847F6C076344096FAA6F6B6FAE0
:10CEC00086F6F44005FB04F20FE0134CB4FBF1F5D9
:10CED000104C241F246847F6C076344096FAA6F614
:10CEE000B6FA86F6F44005FB04F20A4C241F2468C7
:10CEF00004F440344FF4403595FAA5F5B5FA85F5BC
:10CF0000EC40641C6300B2FBF3F001E0024800BF98
:10CF100000BF70BD083802400024F40000127A00FF
:10CF200070B586B006460C46154636BB00BF27488E
:10CF3000006840F00100254908600846006800F0DC
:10CF40000100009000BF00BF8815019002200290F0
:10CF50000320049000200390059001A91C48FEF7CF
:10CF600097FF1A482838006820F0EC6044EA050171
:10CF7000084316492839086025E000BF13480068B7
:10CF800040F00400114908600846006800F0040001
:10CF9000009000BF00BF48150190022002900320BE
:10CFA000049000200390059001A90A48FEF770FF45
:10CFB00006482838006820F0784044EAC501084354
:10CFC00002492839086006B070BD000030380240C0
:10CFD0000000024000080240F8B504460025002683
:10CFE000207800F00100002871D0FD48006800F0B2
:10CFF0000C0004280DD0FA48006800F00C00082846
:10D0000013D1F748001F006800F48000B0F5800FCE
:10D010000BD1F34808380068C0F34040002869D0BD
:10D020006068002866D10120F8BD00BF6068B0F5D7
:10D03000803F08D1EA480838006840F48030E84969
:10D04000083908602EE0606868B9E548083800686B
:10D0500020F48030E249083908600846006820F46E
:10D06000802008601EE06068B0F5A02F0DD1DC487C
:10D070000838006840F48020D9490839086008461B
:10D08000006840F4803008600CE0D548083800683B
:10D0900020F48030D249083908600846006820F43E
:10D0A0008020086000BF606890B1FFF70BF805466C
:10D0B00006E0FFF707F8401B642801D90320B3E717
:10D0C000C74808380068C0F340400028F1D011E09C
:10D0D000FEF7F8FF054606E0FEF7F4FF401B642864
:10D0E00001D90320A0E7BE4808380068C0F34040DB
:10D0F0000028F1D1207800F00200022873D1B8484E
:10D10000006800F00C0058B1B548006800F00C0051
:10D11000082821D1B248001F006800F48000D8B967
:10D12000AF4808380068C0F3400020B1E06801282B
:10D1300001D0012078E7AA480838006820F0F800FC
:10D14000F82292FAA2F2B2FA82F2216991400843DF
:10D15000A3490839086046E0E06850B3A0480838A1
:10D16000006840F001009E4908390860FEF7AAFFF8
:10D17000054606E0FEF7A6FF401B022801D9032062
:10D1800052E7974808380068C0F340000028F1D003
:10D1900093480838006820F0F800F82292FAA2F2CA
:10D1A000B2FA82F22169914008438D49083908603A
:10D1B00019E08B480838006820F0010088490839D8
:10D1C0000860FEF77FFF054606E0FEF77BFF401B89
:10D1D000022801D9032027E7814808380068C0F3F6
:10D1E00040000028F1D1207800F00800082836D14E
:10D1F0006069D0B17A486C30006840F0010078492D
:10D200006C310860FEF75EFF054606E0FEF75AFF48
:10D21000401B022801D9032006E771486C300068E2
:10D22000C0F340000028F1D019E06D486C30006870
:10D2300020F001006A496C310860FEF743FF0546A3
:10D2400006E0FEF73FFF401B022801D90320EBE672
:10D2500063486C300068C0F340000028F1D12078AA
:10D2600000F00400042874D15D483830006800F0F4
:10D27000805080B900BF5A483830006840F0805074
:10D280005749383108600846006800F08050009027
:10D2900000BF00BF01265348006800F48070B0B999
:10D2A0005048006840F480704E490860FEF70AFF5D
:10D2B000054606E0FEF706FF401B642801D903205F
:10D2C000B2E64848006800F480700028F2D000BF41
:10D2D000A068012808D142486830006840F0010089
:10D2E0003F49683108602DE0A06868B93C48683063
:10D2F000006820F001003A4968310860084600687B
:10D3000020F0040008601DE0A06805280DD1344815
:10D310006830006840F00400314968310860084610
:10D32000006840F0010008600CE02D48683000689B
:10D3300020F001002A49683108600846006820F0A2
:10D340000400086000BFA068A8B1FEF7BBFE054658
:10D3500009E02EE0FEF7B6FE401B41F2883188421C
:10D3600001D9032060E61E4868300068C0F3400021
:10D370000028EFD013E0FEF7A5FE054608E0FEF713
:10D38000A1FE401B41F28831884201D903204BE6BF
:10D39000134868300068C0F340000028EFD1012E28
:10D3A00007D10F483830006820F080500C493831E0
:10D3B0000860A069F0B30A48006800F00C00082873
:10D3C0007FD0A069022863D105480838006820F0A2
:10D3D0008070034908390860FEF774FE05460AE0CC
:10D3E0000838024000700040FEF76CFE401B022827
:10D3F00001D9032018E635480068C0F340600028D2
:10D40000F2D1D4E90701084347F6C07292FAA2F2BA
:10D41000B2FA82F2616A914008430122A16AC2EB2A
:10D4200051014FF4403292FAA2F2B2FA82F29140E4
:10D43000084300E047E04FF0706292FAA2F2B2FABD
:10D4400082F2E16A914008434FF0E04292FAA2F280
:10D45000B2FA82F2216B914008431C49091D086011
:10D46000081F006840F08070091F0860FEF72AFE60
:10D47000054606E0FEF726FE401B022801D90320E0
:10D48000D2E512480068C0F340600028F2D01AE0EC
:10D490000E48006820F080700C490860FEF712FE0C
:10D4A000054607E00DE0FEF70DFE401B022801D9FE
:10D4B0000320B9E505480068C0F340600028F2D1B8
:10D4C00001E00120B0E50020AEE500000038024098
:10D4D000704770B504460CB9012070BD606A00B990
:10D4E00000BF0021A16294F85D0028B9002084F8F3
:10D4F0005C00204600F054F8022084F85D002068AB
:10D50000006820F0400021680860E068B0F5E06F36
:10D5100001D9002501E04FF48055E068B0F5706F47
:10D5200005D0E068B0F5E06F01D00021A162206B6A
:10D5300040B9E068B0F5E06F02D90221216301E053
:10D5400001212163D4E9010108432169084361698C
:10D550000843218B01F400710843E1690843216A03
:10D560000843A16A0843216808600421A06901EA10
:10D570001040616A0843616B0843E168084328432F
:10D58000216848602068C06920F400602168C86193
:10D5900000202066012084F85D0000209DE7000047
:10D5A00010B586B0044669492068884238D100BF6A
:10D5B0006748006840F40040654908600846006814
:10D5C00000F40040009000BF00BF4FF440600190A5
:10D5D0000220029000200390032004900620059072
:10D5E00001A95C48FEF754FC5B485C4908600020D8
:10D5F0004860002159488160C1604FF48061016139
:10D60000002141618161C16101624162FDF7FAFD62
:10D6100008B1FCF765F900BF5048A065846392E04B
:10D620004F49206888423FD100BF4948001D00682B
:10D6300040F480104649091D08600846006800F45F
:10D640008010009000BF00BF4FF4207001900220B6
:10D65000029000200390032004900520059001A96A
:10D660004048FEF715FC4048404908604FF0806094
:10D67000486040213D4881600021C1604FF48061D5
:10D680000161002141618161C1614FF4403101625A
:10D6900000214162FDF7B6FD08B1FCF721F900BF9A
:10D6A0003248606584634EE03149206888424AD13F
:10D6B00000BF2748001D006840F400102449091DE0
:10D6C00008600846006800F40010009000BF00BF2A
:10D6D000202001900220029000200390032004905B
:10D6E0000820059001A92348FEF7D2FB4FF4805093
:10D6F0000190022002900020039003200490052056
:10D70000059001A91C48FEF7C3FB174830301B49A0
:10D7100008604FF000704860002118488160C160C7
:10D720004FF480610161002141618161C161016249
:10D730004162FDF767FD08B1FCF7D2F800BF0F4862
:10D74000A065846300BF06B010BD0000003C00402F
:10D75000403802400008024010600240B4BB012083
:10D7600000500140001402407064024014BC0120CB
:10D7700000540140000002400018024074BC012027
:10D780002DE9F04104460E4615460027A06870B901
:10D790006068B0F5827F0AD1042084F85D002B46D2
:10D7A00032463146204600F009F9BDE8F08100BF5D
:10D7B00094F85C00012801D10220F6E7012084F8EA
:10D7C0005C0000BF94F85D00012801D002276CE0E6
:10D7D00006B10DB9012768E0042084F85D0000203F
:10D7E00020662664A4F84450A4F84650E0642065FE
:10D7F000A087E087A068B0F5004F05D120680068D9
:10D8000020F4804021680860E068B0F5E06F06D839
:10D81000A06D8069B0F5005F01D1012745E0206867
