:020000040800F2
:1000000038A80320D1800108D9800108DB800108CD
:10001000DD800108DF800108E180010800000000A8
:100020000000000000000000000000001580010832
:10003000E58001080000000069800108ABFD0108AF
:10004000EB800108EB800108EB800108EB800108E0
:10005000EB800108EB800108EB800108EB800108D0
:10006000EB800108EB800108EB800108A1930108F7
:10007000EB800108EB800108EB800108EB800108B0
:10008000EB800108EB800108EB800108EB800108A0
:10009000EB800108EB800108EB800108899A0108D8
:1000A000A9FF0108EB800108EB800108EB80010843
:1000B000EB800108EB800108EB800108EB80010870
:1000C000EB800108EB800108EB800108EB80010860
:1000D000EB800108A10D0208EB800108EB8001080C
:1000E000EB800108EB800108EB800108EB80010840
:1000F000EB800108EB800108EB800108EB80010830
:10010000EB800108EB800108EB800108EB8001081F
:10011000EB800108EB800108B9FF0108EB800108C2
:10012000EB800108B1930108C1930108EB8001083D
:10013000D1930108B1970108EB800108EB80010819
:10014000EB800108EB800108EB800108EB800108DF
:10015000EB800108E1930108F1930108EB800108AD
:10016000EB800108EB800108EB800108EB800108BF
:10017000EB800108EB800108EB8001080000000023
:10018000EB800108EB800108EB800108EB8001089F
:10019000EB800108EB800108EB800108EB8001088F
:1001A000EB800108EB800108EB800108EB8001087F
:1001B000EB800108EB800108EB800108EB8001086F
:1001C000EB800108EB80010800000000EB800108D3
:1001D000EB800108EB800108EB800108EB8001084F
:1001E000EB800108EB800108EB800108EB8001083F
:0801F000EB800108EB8001081F
:020000040800F2
:108000000000000000000000000000000000000070
:108010000000000000000000000000000000000060
:108020000000000000000000000000000000000050
:108030000000000000000000000000000000000040
:108040000000000000000000000000000000000030
:108050000000000000000000000000000000000020
:108060000000000000000000000000000000000010
:108070000000000000000000000000000000000000
:088080000000000000000000F8
:020000040801F1
:1000000000000000000000000000000000000000F0
:1000100000000000000000000000000000000000E0
:1000200000000000000000000000000000000000D0
:1000300000000000000000000000000000000000C0
:1000400000000000000000000000000000000000B0
:1000500000000000000000000000000000000000A0
:100060000000000000000000000000000000000090
:100070000000000000000000000000000000000080
:08008000000000000000000078
:020000040801F1
:10800000DFF80CD000F0B4FA0048004765770208AA
:1080100038A803202B4B19680868B0E8F04F80F3AC
:108020000988BFF36F8F4FF0000080F3118870470D
:108030000000000006480068006880F3088862B607
:1080400061B6BFF34F8FBFF36F8F00DF00BF00BF7C
:1080500008ED00E0DFF80C00016841F470010160F8
:10806000704700BF88ED00E0EFF30980BFF36F8F2A
:10807000144B1A681EF0100F08BF20ED108A20E97B
:10808000F04F106008B44FF0500072B680F31188C2
:10809000BFF34F8FBFF36F8F62B616F0EBF84FF060
:1080A000000080F3118808BC19680868B0E8F04F38
:1080B0001EF0100F08BFB0EC108A80F30988BFF3E0
:1080C0006F8F704700000020EFF3058070470000BD
:1080D0000648804706480047FEE7FEE7FEE7FEE762
:1080E000FEE7FEE7FEE7FEE7FEE7FEE7C9FE010862
:1080F0000180010840EA01039B0703D009E008C999
:10810000121F08C0042AFAD203E011F8013B00F85C
:10811000013B521EF9D27047D2B201E000F8012BA8
:10812000491EFBD270470022F6E710B513460A46F7
:1081300004461946FFF7F0FF204610BD10B5002297
:1081400000E0521C835C8C5CA34201D1002BF8D16F
:10815000D8B2E1B2401A10BD30B504460020034643
:1081600000E05B1C934203D2E05CCD5C401BF8D086
:1081700030BD30B50B46014600202022012409E025
:1081800021FA02F59D4205D303FA02F5491B04FAD0
:1081900002F52844151EA2F10102F1DC30BD2DE9E3
:1081A000F05F0546002092469B468846064681467B
:1081B00040241BE0284641464746224600F0F9F994
:1081C00053465A46C01A914110D3114618462246CA
:1081D00000F0E0F92D1A67EB01084F462246012016
:1081E000002100F0D7F917EB00094E41201EA4F141
:1081F0000104DFDC484631462A464346BDE8F09F8D
:108200002DE9FE4F804681EA0300C00F0C46009026
:1082100021F0004123F00045B8EB0200A94105D24E
:108220004046214690461C460B46024623F000403D
:10823000104347D0270DC7F30A00C3F30A51029039
:10824000401A019040286BDAC3F3130040F4801BFE
:108250000098924620B10023D2EB030A63EB0B0B8C
:1082600001985946C0F14002504600F093F9064685
:108270000D4650465946019A00F0ABF910EB080044
:108280006141002487EA115284EAE7731A4340D01F
:10829000009A62B3019A012A4FEA075215DC001BCB
:1082A00061EB02014FF0004202EA0752CDE90042C1
:1082B000001C41F5801132462B4600F0ABF903B0AB
:1082C000BDE8F08F40462146F9E7001B61EB020153
:1082D000001C41F5801300185B412018A2F500171F
:1082E00047EB030140EAD570B6196D4111E06D0806
:1082F0004FEA360645EAC0754FEA0752001B61EBAC
:108300000201001C41F5801149084FEA30000019B4
:10831000514132462B4603B0BDE8F04F00F06BB937
:108320000098012240000023D0EB020263EBE073CF
:10833000009821464FEAE074B8EB000061EB0401BD
:10834000E9E783F000435BE781F0004158E72DE95E
:10835000FE4F81EA030404F0004421F00041009440
:108360004FF0000B23F0004350EA01045ED052EAC4
:1083700003045BD0C3F30A54C1F30A552C44A4F29E
:10838000F3340194A0FB0254C1F3130141F48011B2
:10839000C3F3130343F4801301FB024400FB034EB9
:1083A000840A970A44EA815447EA8357A4FB076882
:1083B00002958D0A05FB07854FEA932C04FB0C54AC
:1083C0002705029D4FEA065847EA1637B5EB080520
:1083D0006EEB070C870E920E47EA811742EA831272
:1083E000A7FB0201B6EB0B0164EB00042B0D43EA83
:1083F0000C335E1844EB1C50DA465146E7FB020191
:10840000C5F313044FEA0B3343EA14534FEA043223
:10841000019C43EA0603A4F10C040294009CCDE9FC
:1084200000B400F0F7F803B0BDE8F08F002001467B
:10843000F9E72DE9F04D81EA030404F0004B21F047
:10844000004514464FF0000A23F0004150EA0502AF
:1084500020D054EA01021DD0C5F30A570246C5F3E5
:108460001303C1F31300C1F30A5640F4801543F41B
:108470008013A7EB0608101BD64608F2FD3873EBF5
:10848000050002D308F1010801E092185B41B8F140
:10849000000F03DA00200146BDE8F08D00204FF404
:1084A0008011064684460EE0171B73EB050705D3C3
:1084B000121B63EB050306434CEA010C49084FEA23
:1084C000300092185B4150EA0107EDD152EA0300F7
:1084D00012D082EA040083EA0501084305D0101B8C
:1084E000AB4106D20122002306E000224FF00043F8
:1084F00002E06FF0010253101AEB06004CEB08513A
:1085000010EB0A0041EB0B01BDE8F04D00F073B831
:10851000C1F30A52C1F3130140F2FF3341F4801159
:108520009A4202DA00200146704740F233439A42F1
:10853000A2F2334202DC524200F03BB800F02AB80B
:1085400030B5041E71F1000404DB4FF000444042DA
:1085500064EB0101141E73F1000405DB1C464FF0AF
:108560000043524263EB0403994208BF904230BD7E
:10857000064C074D06E0E06840F0010394E8070070
:1085800098471034AC42F6D3FFF73EFDB0FB02082B
:10859000D0FB0208202A04DB203A00FA02F1002076
:1085A00070479140C2F1200320FA03F31943904031
:1085B0007047202A04DB203A21FA02F0002170479C
:1085C00021FA02F3D040C2F120029140084319463B
:1085D0007047202A06DBCB17203A41FA02F043EA23
:1085E000E07306E041FA02F3D040C2F1200291406C
:1085F00008431946704710B5141E73F1000408DAD9
:10860000401C41F1000192185B411A4301D120F056
:10861000010010BD2DE9F04D92469B4611B1B1FA13
:1086200081F202E0B0FA80F220329046FFF7B2FF0A
:1086300004460F4640EA0A0041EA0B0153465A46F7
:10864000084313D0114653EA010019D0C8F1400283
:108650005046FFF7AEFF05460E4650465946424685
:10866000FFF798FF084305D0012004E02046394673
:10867000BDE8F08D0020054346EAE0762C43374301
:108680000A986305E40AA0EB08000022FD0A44EA08
:1086900047540A3002D500200146E9E701051019C8
:1086A0006941DDE9084500196941BDE8F04DA2E7DF
:1086B00070B58C1810F8015B15F0070301D110F8A4
:1086C000013B2A1106D110F8012B03E010F8016BD1
:1086D00001F8016B5B1EF9D12B0705D40023521E54
:1086E0000DD401F8013BFAE710F8013BCB1A921CBC
:1086F00003E013F8015B01F8015B521EF9D5A142BA
:10870000D8D3002070BD00002DE9F04389B00546A4
:108710000F464FF47A5906A9F84807F003F907A95C
:10872000F74807F0FFF808A800F052FC002452E2D6
:10873000089800780590DDE9041060F3CF310491CA
:1087400005984108039861F3CF300390059881089C
:10875000029861F3CF3002900598C108019861F347
:10876000CF300190089840780590DDE9041060F35F
:108770008E31049105984108039861F38E3003907F
:1087800005988108029861F38E3002900598C1081F
:10879000019861F38E300190089880780590DDE9AA
:1087A000041060F34D31049105984108039861F37A
:1087B0004D30039005988108029861F34D30029086
:1087C0000598C108019861F34D3001900898C07870
:1087D0000590DDE9041060F30C310491059841081F
:1087E000039861F30C30039005988108029861F3B7
:1087F0000C3002900598C108019861F30C3001908B
:10880000089800790590DDE9041060F3CB2104910C
:1088100005984108039861F3CB20039005988108DF
:10882000029861F3CB2002900598C108019861F38A
:10883000CB200190089840790590DDE9041060F3A1
:108840008A21049105984108039861F38A200390D6
:1088500005988108029861F38A2002900598C10862
:10886000019861F38A200190089880790590DDE9EC
:10887000041060F34921049105984108039861F3BD
:108880004920039005988108029861F349200290DD
:108890000598C108019861F3492001900898C079B2
:1088A0000590DDE9041060F3082104910598410862
:1088B000039861F30820039005988108029861F3FA
:1088C000082002900598C108019861F308200190E2
:1088D0000898007A0590DDE9041060F3C71104914F
:1088E00005984108039861F3C71003900598810823
:1088F000029861F3C71002900598C108019861F3CE
:10890000C71001900898407A0590DDE9041060F3E3
:108910008611049105984108039861F3861003902D
:1089200005988108029861F3861002900598C108A5
:10893000019861F3861001900898807A0590DDE92E
:10894000041060F34511049105984108039861F300
:108950004510039005988108029861F34510029034
:108960000598C108019861F3451001900898C07AF4
:108970000590DDE9041060F30411049105984108A5
:10898000039861F30410039005988108029861F33D
:10899000041002900598C108019861F30410019039
:1089A0000898007B0590DDE9041060F3C301049191
:1089B00005984108039861F3C30003900598810866
:1089C000029861F3C30002900598C108019861F311
:1089D000C30001900898407B0590DDE9041060F326
:1089E0008201049105984108039861F38200039085
:1089F00005988108029861F3820002900598C108E9
:108A0000019861F3820001900898807B0590DDE970
:108A1000041060F34101049105984108039861F343
:108A20004100039005988108029861F3410002908B
:108A30000598C108019861F3410001900898C07B36
:108A40000590DDE9041060F30001049105984108E8
:108A5000039861F30000039005988108029861F380
:108A6000000002900598C108019861F30000019090
:108A7000089810300890234904980880039848808B
:108A8000029888800198C8802046E11704EB917114
:108A90008910079A32F811101A4A1181E11704EB74
:108AA00091718910069A32F81110164A518106F018
:108AB00057F806460EBB049881B2002000F002F978
:108AC000114880ED000A039881B2012000F0FAF805
:108AD0000D4880ED010A029881B2022000F0F2F800
:108AE000094880ED020A9FED090A80ED030A00F0B3
:108AF000A9F8054880ED040A41E009E0C0CF012053
:108B000088D0012028DD012034DD01200000000094
:108B1000012E34D1049881B2002000F0D3F8F0EE99
:108B2000000A80EE201A314880ED001A039881B2C5
:108B3000012000F0C7F8F0EE000A80EE201A2B4862
:108B400080ED011A029881B2022000F0BBF8F0EE2D
:108B5000000A80EE201A254880ED021A019881B2A1
:108B6000032000F0AFF8F0EE000A80EE201A1F4854
:108B700080ED031A00F0C4F81C4880ED040AA046FA
:108B8000E01704EB90708010079A32F81010042060
:108B900000F098F8154880ED050AE01704EB907096
:108BA0008010069A32F81010052000F08BF80F485C
:108BB00080ED060A90ED040A85ED000A2D1D90ED6A
:108BC000050A85ED000A2D1D90ED060A85ED000AC7
:108BD0002D1D601C84B2B4F57A7FFFF6A9AD04EBBD
:108BE0004400388009B0BDE8F083000034DD012086
:108BF0001DE000234FF4FA6219460D48006815F095
:108C000067FF88B101200B4908700B490B48FFF73B
:108C10007BFD0B48007850B107480188074807F0F2
:108C2000E1FF08F019F802E0002002490870E0E7CF
:108C3000BC010020930100209401002050DD0120A0
:108C400092010020104890ED000AB7EEC00AB1EE84
:108C50000E1BB4EEC10BF1EE10FA11DB90ED010A20
:108C6000B7EEC00A9FED091BB4EEC10BF1EE10FA8E
:108C700002DB90ED020A7047034890ED010AFAE723
:108C8000014890ED000AF6E734DD01200000000005
:108C900000C052401CB50020042103460A02CDE961
:108CA000001002A1064816F0D7FA1CBD414443202B
:108CB000436F6E766572746572205461736B000049
:108CC000F18B0108094A02EBC002D2ED010A074A02
:108CD00002EBC00292ED001A00EE101AF8EE401AF4
:108CE000B0EE600A01EE210A7047000044DF022066
:108CF000024901EB800191ED000A704734DD01204B
:108D00009FED1B0AB0EE401A9FED190AF0EE400AE3
:108D1000184890ED000AB7EEC02AB1EE0E3BB4EE53
:108D2000C32BF1EE10FA04DB90ED010AB0EE401A0D
:108D300004E0104890ED000AB0EE401A0D4890EDA6
:108D4000020AB7EEC02AB1EE0E3BB4EEC32BF1EE31
:108D500010FA04DB90ED030AF0EE400A04E0054847
:108D600090ED020AF0EE400A31EE200A7047000052
:108D70000000000034DD01200146062903DA034823
:108D800030F8110070470020FCE7000028DD0120CA
:108D900001480078704700009301002001480078E6
:108DA000704700009201002010B588B004462022D0
:108DB00021466846FFF79EF908498988C1F30901F1
:108DC000074A02EB411020226946FFF793F9034856
:108DD0004068401C0149486008B010BD0C66032083
:108DE0000CE60220F0B589B007460E4600251D4866
:108DF0000078012802D1002009B0F0BD1A4841686E
:108E00000068081AB6EB401F01D234460BE0164842
:108E100041680068081A4FF6FF7101EA40143146B4
:108E20003846FFF780F9002517E00F480088C0F3A7
:108E300009000E4A02EB4011202201A8FFF75AF95F
:108E400007EB4510202201A9FFF754F906480068F6
:108E5000401C05490860681C85B2B5EB541FE4D37B
:108E60002046C9E7200200200C6603200CE6022001
:108E7000024881880088081A80B270470C66032077
:108E8000014800787047000020020020014903C912
:108E90007047000028020020014908707047000058
:108EA00020020020014A03C270470000280200206F
:108EB00018B10121034A117002E00021014A11702A
:108EC000704700009201002010B517A11948FFF764
:108ED00035F918B91748184908601DE012A117485C
:108EE000FFF72CF918B915481349086014E023223C
:108EF0001049134800F03EFF002802DA4FF0FF301F
:108F000010BD0E4800F0C6FD002802DA4FF0FF3019
:108F1000F6E70848084908608822074801680948B8
:108F2000FFF7E8F80020EBE74346475F534543541B
:108F30004F52000000800008C80100200000010816
:108F40009CF8020824DF022010B50F4800680F4982
:108F5000884201D10E4C00E00C4C232221460D48E2
:108F600000F008FF002802DA4FF0FF3010BD06487D
:108F7000006800F08FFD002802DA4FF0FF30F5E7BF
:108F8000014804600020F1E7C801002000800008CB
:108F90000000010824DF022010B50021034805F07D
:108FA0007DFA01200249087010BD00000CD201209A
:108FB000B801002010B50021034805F095FA002003
:108FC0000249087010BD00000CD20120B801002039
:108FD0000149096801607047A80100200548006840
:108FE00000210A0442EA10420104034800680843D1
:108FF00011467047240C004024080040014903C971
:1090000070470000B001002010B5264826490860CE
:1090100000220821254803F02FF9002210212448BE
:1090200003F02AF901222021214803F025F900222A
:1090300040211F4803F020F9012280211C4803F041
:109040001BF901220421194803F016F9032200211B
:10905000012015F00EFD17490860002000F06AF8A5
:10906000154A0121154802F021FA154A002113483A
:1090700002F01CFA134804F015FF134804F012FF25
:109080004FF4FA53074A0021104800F0A9FF0421C9
:109090000F4805F003FA0F4804F013FFFFF77CFFB9
:1090A00010BD000024620220A80100200008024038
:1090B000000C0240BC010020ED92010860CF0120AD
:1090C000459301088CD20120CCD2012010CF012081
:1090D0004CD201204CD3012010B510480068006824
:1090E00020F001000D490968086000200C49086063
:1090F0000C49086000210C4A116051604FF4FA538A
:109100000A4A0B4800F06CFF04480068006840F011
:10911000010002490968086010BD000060CF01200D
:10912000240C004024080040B001002024620220EA
:1091300010CF012070B50546052D31D2DFE805F0CE
:10914000030C151E270009202849486000212848E3
:10915000417642F62F242CE000202449486001216A
:109160002348417642F62F2423E000201F4948601F
:1091700002211F48417641F217541AE000201B4992
:10918000486003211A48417640F66F0411E0002040
:109190001649486004211648417640F2374408E0F9
:1091A00009201249486000211148417642F62F24D7
:1091B00000BF00BF4FF080400C49086000210B4801
:1091C00081600B48D0ED070A00EE104AB8EE400A65
:1091D00020EE800ABCEEC00A10EE100A81B20348ED
:1091E000C1600021016104F075FD70BD0CD2012049
:1091F00024DF02200148007870470000B8010020F9
:1092000070B50546AC6BA06C406D022806D00120FD
:1092100084F83500E06C40F04000E064204600F047
:1092200006FE70BD70B506460025B46BA06B68B332
:10923000A06C0068006800F40025A06B00F001003D
:1092400078B975B1A06C0068C568E26B082303FBB0
:1092500002510022A06C00F035FFA06B401EA063FD
:109260002FE0A06C0068006800F4002048BBA06CF0
:1092700000680569E26B082303FB02510122A06C20
:1092800000F020FFA06B401EA0631AE0A06C0068F5
:10929000006800F4002020B1D4E911010968C86019
:1092A0000FE0A06C0068006800F4002048B9656C0D
:1092B000E06B042101FB0050A16C09680861206C7F
:1092C000A063A06B216C88420ED12068C06840F07A
:1092D00001002168C8602068006800F002000228D0
:1092E00002D1012084F8350070BD000010B50020C7
:1092F0000E490860FFF772FE0D4A03C20D480E4981
:1093000008600A490D48006815F078FE07480068B3
:1093100001280AD10548006838B14FF0805008494B
:109320000860BFF34F8FBFF36F8F10BDC0010020E7
:10933000B001002024620220A8010020BC0100200E
:1093400004ED00E010B500200F490860FFF746FE6D
:109350000E4A03C20E480F49086006F0FBFA0A499C
:109360000D48006815F04AFE0748006801280AD138
:109370000548006838B14FF0805008490860BFF3D5
:109380004F8FBFF36F8F10BDC4010020B0010020CC
:10939000A4A00220A8010020BC01002004ED00E0F0
:1093A00010B5024801F0E8FE10BD0000ECD001202D
:1093B00010B5024801F0E0FE10BD000060CF0120B2
:1093C00010B5024801F0D8FE10BD0000FCD301200A
:1093D00010B5024801F0D0FE10BD00004CD10120B4
:1093E00010B5024801F0C8FE10BD0000ACD101204C
:1093F00010B5024801F0C0FE10BD00005CD4012091
:109400000146087810381823B0FBF3F20848805C56
:10941000C865032A05D908686FF30900001D88652F
:1094200003E008686FF309008865886D70470000E5
:1094300054F80208014600208A6A8B69CBB932B120
:10944000012A0DD0022A03D0032A10D10EE000BF5A
:10945000CB6A03F08073B3F1807F00D1012007E075
:10946000CB6AB3F1C07F00D1012001E000E000BF72
:1094700034E08B69B3F5005F1AD132B1012A07D00D
:10948000022A03D0032A11D10AE000BF01200EE016
:10949000CB6A03F08073B3F1807F00D1012006E036
:1094A000CB6AB3F1C07F00D1012000E000BF15E01E
:1094B00032B1012A05D0022A04D0032A0CD103E0DC
:1094C00000BF00BF012008E0CB6A03F08073B3F156
:1094D000807F00D1012000E000BF00BF704710B5C1
:1094E000046863608468402C04D10468A260046846
:1094F000E16003E00468A1600468E26010BD30B57B
:109500000468246824F4802405682C60046863607F
:109510008468402C04D10468A2600468E16003E020
:109520000468A1600468E26030BD000010B5044624
:10953000012C05D101228021044802F09DFE04E0A7
:1095400000228021014802F097FE10BD0010024069
:10955000014903C970470000D801002010B5044636
:10956000202202492046FEF7C5FD10BDE001002083
:109570001CB503220021012015F07BFA1249086076
:109580000120FFF7D3FF00222021104802F074FED3
:109590004FF0FF30014600F033F8012202210C4861
:1095A00002F06AFE00224FF480410A4802F064FE95
:1095B00000200521084B8022CDE9001007A10C48AE
:1095C00015F04AFE1CBD00000002002000140240FD
:1095D0000004024000180240E0010020536574209E
:1095E00053657175656E636520205461736B00006F
:1095F000AD9601080148007870470000D0010020B6
:1096000070B504460D46094830C02046294606F08C
:1096100075F9074A03C200222021064802F02CFEF9
:1096200008220349044804F049FA70BDD80100201B
:10963000080200200014024024D0012001460A291B
:1096400003DB42F21070814201DD002070470248C6
:1096500001830120FAE70000E00100200146012912
:1096600001DB642901DD00207047024841830120AD
:10967000FAE70000E001002010B520B1012806D073
:1096800002280ED108E00021074C03C40AE00021A3
:10969000054CC4E9020105E00021034CC4E90401C2
:1096A00000E000BF00BF10BDE0010020054600261D
:1096B00037E000235A1E19461A48006815F008FAC8
:1096C0000120194908702C46208B0A2826DB208BA4
:1096D00042F21071884221DC608B01281EDB608B16
:1096E00064281BDC002611E0D4E900211046FFF7B6
:1096F00087FF208B14F030FBD4E902211046FFF7DE
:109700007FFF208B14F028FB701C86B2608BB04268
:10971000EADCD4E904211046FFF772FF0020024979
:109720000870C6E700020020D001002010B50548EF
:10973000007830B900231A4619460348006815F02E
:10974000FDFA10BDD001002000020020016801F5E3
:109750008051896941F00202016801F580518A61F6
:109760007047016801F58051896941F40052016830
:1097700001F580518A61704738B504460020009099
:10978000206800F58050806940F48011206800F561
:1097900080508161206800F5805080690090012030
:1097A00001F002FF0099206800F58050816138BD0A
:1097B00010B5024801F0EBFF10BD0000C8CE01203B
:1097C00030B503461479557944EA0520084C0C4419
:1097D0002064D4782406957844EA0544557844EA10
:1097E0000524157844EA0500014C0C44606430BD42
:1097F0000080024070B5AEB004460E46002526B18A
:109800004FF40061E160C900A16000201190129046
:109810001390149015901690E06918B94FF4806079
:10982000179001E0002017904FF40070189000206E
:1098300019901A901B901C901D9040201E900020A3
:109840001F90209021902290239024902590269084
:10985000802027900020289029902A902B902C90EF
:109860002D902068056871480540DDE91101084325
:109870001399084314990843A168084315990843AC
:1098800016990843E1680843179908431899084353
:10989000199908431A9908431B99084305432068FE
:1098A000056020680568012001F07EFE20680560E3
:1098B000DDE91C0108431E9908431F9908432099BC
:1098C00008432199084322990843239908432168B2
:1098D000486020684568012001F066FE2068456008
:1098E00024982168886025982168C8602068856967
:1098F0004FF641700540DDE9261040EA0140289905
:109900000843299908432A9908432B99084305439A
:109910002068856120688569012001F045FE206886
:109920008561DDE92C0108432168C8612068C569AB
:10993000012001F039FE2068C561002001904FF040
:1099400000700290002003904FF40010049000205B
:10995000059006900790089004200990C0050A9091
:1099600040120B9080010C9040120D9080200E90C0
:1099700000200F901090206800F5805085692C48D9
:109980000540DDE9010108430399084304990843B0
:10999000059908430699084307990843089908431D
:1099A000099908430543206800F5805085612068C7
:1099B00000F580508569012001F0F6FD206800F572
:1099C00080508561DDE90A0108430C9908430D992F
:1099D00008430E9908430F9940EA81001099084303
:1099E00040F40001206800F580500160206800F517
:1099F00080500568012001F0D7FD206800F58050F7
:109A00000560A069012809D1206800F58050C0696F
:109A100008490843216801F58051C86100212046AA
:109A20006269FFF7CDFE2EB070BD00000F8120FFF0
:109A3000233FDEF84000010038B5044600200090C6
:109A40002068006840F00400216808602068006811
:109A50000090012001F0A8FD00982168086038BD41
:109A600038B50446002000902068006840F00800E7
:109A700021680860206800680090012001F094FDD2
:109A800000982168086038BD10B54FF4007002F0EE
:109A9000D1FA10BD10B586B0044600200190022016
:109AA00005900D48844202D10120039001E002207C
:109AB00003900120049002F0A5FA694601A802F083
:109AC000EFF928B102F042FA4FF0FF3006B010BDB6
:109AD00002F03CFA0020F9E70080000810B50022EF
:109AE00001B909E0012901D10A0205E0022901D1E9
:109AF0000A0201E04FF440720B2800D9001D124BFE
:109B00001B6823F44073104C236023461B681343E7
:109B1000236023461B6823F0F803236023461B6859
:109B2000022444EAC0042343074C236023461B68F5
:109B300043F48033236000BF00BF00BFBFF34F8FEB
:109B400000BF00BF00BF10BD103C0240174A1268A2
:109B500022F44072154B1A60032906D11A46126886
:109B6000DB131A43114B1A600EE0022906D10F4A8B
:109B7000126842F400420D4B1A6005E00B4A12686D
:109B800042F00402094B1A60084A12684FF480330D
:109B900043EA00231A43054B1A6000BF00BF00BF11
:109BA000BFF34F8F00BF00BF00BF7047103C0240A3
:109BB0000B4A126822F44072094B1A601A46126866
:109BC0001A601A46126842F001021A60017000BF62
:109BD00000BF00BFBFF34F8F00BF00BF00BF704783
:109BE000103C024010B50D49096821F440710B4C3E
:109BF00021602146096841F44071216021460968CD
:109C000041F0010121600260436000BF00BF00BF5E
:109C1000BFF34F8F00BF00BF00BF10BD103C02401C
:109C20000C4A126822F440720A4B1A601A461268F3
:109C300042F480721A601A46126842F001021A60F9
:109C4000018000BF00BF00BFBFF34F8F00BF00BF48
:109C500000BF7047103C02400C4A126822F4407268
:109C60000A4B1A601A46126842F400721A601A46C9
:109C7000126842F001021A60016000BF00BF00BF1D
:109C8000BFF34F8F00BF00BF00BF7047103C0240C2
:109C90001D48006800F0020028B11C48806940F0AF
:109CA00020001A4988611848006800F0100028B1A7
:109CB0001648806940F01000144988611248006815
:109CC00000F0200028B11148806940F008000F49D9
:109CD00088610D48006800F0400028B10B48806999
:109CE00040F00400094988610748006800F08000DE
:109CF00028B10648806940F0020004498861F220DA
:109D000001490860704700000C3C0240CC3C012037
:109D100070B50446002500201449886102F0B2FAAB
:109D2000054609E0601C38B124B102F0ABFA401BD3
:109D3000A04201D9032070BD0D48006800F48030B6
:109D40000028EFD10A48006800F0F20018B1FFF7D0
:109D50009FFF0120EFE70648006800F0010010B106
:109D60000120034908600020E5E70000CC3C012009
:109D70000C3C0240F0B587B004460D461646002064
:109D80000290022006901848854202D101200490DA
:109D900001E0022004900120059002F033F901A9AE
:109DA00002A802F07DF828B102F0D0F84FF0FF30A1
:109DB00007B0F0BD002710E0D4F800C062460023D1
:109DC0002946022002F0CCF820B102F0BFF84FF093
:109DD000FF30EDE77F1C241D2D1DB742ECDB02F0A8
:109DE000B5F80020E4E700000080000870EE601A7B
:109DF000B7EEE12AB0EEC22BB7EEC03AB0EEC33BED
:109E0000B7EEC14A23EE043BB4EEC32BF1EE10FAD9
:109E100001D8012070470020FCE708B58DED000A4D
:109E2000BDF800100180BDF80210418008BD7047E8
:109E300010B504460CB9012010BD94F8350010B9D6
:109E4000204600F041F8022084F8350020680068C0
:109E50001C49084021680860616960680843E1683E
:109E6000084321690843A1680843A1690843216A9E
:109E70000843616A0843A16A0843E16A0843216B09
:109E80000843216809680843216808606068102851
:109E90000BD1217F607F41EA0021A07F41EA004190
:109EA000E07F41EA0060216888612068C06840F076
:109EB0001E002168C8600020E064012084F835009D
:109EC0000020B9E707F0E0FF10B586B00446354939
:109ED0002068884264D100BF3348006840F0010028
:109EE000314908600846006800F00100009000BF9A
:109EF00000BF702001900220029000200390049087
:109F00000D20059001A9294802F0A2F850200190E7
:109F1000022002900020039004900D20059001A9DA
:109F2000234802F095F84FF47070019002200290DF
:109F30000020039004900D20059001A91D4802F017
:109F400087F8C02001900220029000200390049026
:109F50000D20059001A9184802F07AF81748184911
:109F600008604FF000704860002115488160C160B2
:109F70004FF480610161890041618900816189112B
:109F8000C16100210162416201F01AFA18B1A721F2
:109F90000CA006F015FF00BF0948A064846300BF51
:109FA00006B010BD000005503438024000100240D9
:109FB0000000024000080240000402402864024001
:109FC00060CF01202E2E2F5372632F73746D3332A6
:109FD000663778785F68616C5F6D73702E63000020
:109FE0002DE9F84304460F4615461E464FF000087B
:109FF00000BF94F83400012802D10220BDE8F883A4
:10A00000012084F8340000BF022084F83500206865
:10A01000006840F48040216808602068006820F0F3
:10A0200002002168086020680068384321680860E1
:10A030002248A16CC8640020A16C0865A06320645C
:10A04000B6F5803F08D2226802F1280133462A463D
:10A05000A06C01F05AFA24E01948A16C4864012070
:10A06000A063E663656405E0E06B4008E063A06B15
:10A070004000A063E06BB0F5803FF5D2A06B801E7E
:10A08000A063A06B2064E06B042101FB0058E06B2F
:10A090000090226802F1280143462A46A06C00F095
:10A0A0001BF82068006840F001002168086000BFCC
:10A0B000002084F8340000BF00BF9FE70192010830
:10A0C00025920108034612B91868C16001E01868BA
:10A0D00001610020704700002DE9F04704460E465C
:10A0E00017461D46DDF820804FF00009A068802843
:10A0F00004D1400060650120BDE8F08700BF94F8FE
:10A100003400012801D10220F6E7012084F8340050
:10A1100000BF94F83500012873D1022084F835007F
:10A12000002060652068006840F480202168086095
:10A130002068056143463A4631462046FFF7CFF98D
:10A14000FA49206888425DD9F9492068884201D1DE
:10A15000202052E0F54948392068884201D120206A
:10A160004BE0F34960312068884201D1202044E06F
:10A17000EE4918312068884201D120203DE0EC49A9
:10A1800018312068884201D1C01436E0E7493039DF
:10A190002068884201D1C0142FE0E5497831206859
:10A1A000884201D1C01428E0E0493031206888425B
:10A1B00001D1C01421E0DE4930312068884202D14B
:10A1C0004FF4001019E0D94918392068884202D1AB
:10A1D0004FF4001011E0D64990312068884202D136
:10A1E0004FF4001009E0D14948312068884202D17B
:10A1F0004FF4001001E04FF00060CC494C3908608A
:10A2000020E1EFE3CA49A831206888425CD9C849F7
:10A210002068884201D1202052E0C4494839206892
:10A22000884201D120204BE0C1496031206888423A
:10A2300001D1202044E0BD4918312068884201D175
:10A2400020203DE0BA4918312068884201D1C0146D
:10A2500036E0B64930392068884201D1C0142FE079
:10A26000B34978312068884201D1C01428E0AF4951
:10A2700030312068884201D1C01421E0AC4930312E
:10A280002068884202D14FF4001019E0A74918391C
:10A290002068884202D14FF4001011E0A4499031A7
:10A2A0002068884202D14FF4001009E09F494831EC
:10A2B0002068884202D14FF4001001E04FF00060A6
:10A2C0009A4950390860BDE0994948312068884270
:10A2D0005CD997492068884201D1202052E09349F7
:10A2E00048392068884201D120204BE090496031F4
:10A2F0002068884201D1202044E08C491831206830
:10A30000884201D120203DE08949183120688842E7
:10A3100001D1C01436E0854930392068884201D126
:10A32000C0142FE0824978312068884201D1C014DE
:10A3300028E07E4930312068884201D1C01421E0F4
:10A340007B4930312068884202D14FF4001019E077
:10A35000764918392068884202D14FF4001011E084
:10A36000734990312068884202D14FF4001009E00F
:10A370006E4948312068884202D14FF4001001E054
:10A380004FF000606A491039C8605BE06849206896
:10A39000884201D1202052E064494839206888422F
:10A3A00001D120204BE0624960312068884201D110
:10A3B000202044E05D4918312068884201D12020E6
:10A3C0003DE05B4918312068884201D1C01436E075
:10A3D000564930392068884201D1C0142FE05449D1
:10A3E00078312068884201D1C01428E04F493031CB
:10A3F0002068884201D1C01421E04D4930312068E5
:10A40000884202D14FF4001019E0484918392068F9
:10A41000884202D14FF4001011E045499031206884
:10A42000884202D14FF4001009E0404948312068C9
:10A43000884202D14FF4001001E04FF000603C4927
:10A44000103988603949206888425CD938492068C9
:10A45000884201D1102052E03449483920688842AE
:10A4600001D110204BE0324960312068884201D18F
:10A47000102044E02D4918312068884201D1102075
:10A480003DE02B4918312068884201D1001536E0A3
:10A49000264930392068884201D100152FE024492F
:10A4A00078312068884201D1001528E01F493031F9
:10A4B0002068884201D1001521E01D493031206813
:10A4C000884202D14FF4801019E0184918392068E9
:10A4D000884202D14FF4801011E015499031206874
:10A4E000884202D14FF4801009E0104948312068B9
:10A4F000884202D14FF4801001E04FF080600B4998
:10A500004C39086020E10A49A831206888425FD9A7
:10A5100007492068884201D1102055E00349483995
:10A520002068884206D110204EE0000058640240A6
:10A5300010600240F8492068884201D1102043E0B1
:10A54000F6492068884201D110203DE0F24948399F
:10A550002068884201D1001536E0F049483920686A
:10A56000884201D100152FE0EB491831206888425C
:10A5700001D1001528E0E94918312068884201D14D
:10A58000001521E0E44930392068884202D14FF4B7
:10A59000801019E0E14930392068884202D14FF437
:10A5A000801011E0DC4930312068884202D14FF43C
:10A5B000801009E0D94930312068884202D14FF437
:10A5C000801001E04FF08060D44968390860BBE03A
:10A5D000D1491839206888425BD9CF496039206851
:10A5E000884201D1102050E0CC496039206888426F
:10A5F00001D1102049E0C8492068884201D11020CB
:10A6000043E0C6492068884201D110203DE0C2499C
:10A6100048392068884201D1001536E0BF494839E1
:10A620002068884201D100152FE0BB49183120680D
:10A63000884201D1001528E0B849183120688842C5
:10A6400001D1001521E0B44930392068884202D197
:10A650004FF4801019E0B14930392068884202D1A6
:10A660004FF4801011E0AC4930312068884202D1AB
:10A670004FF4801009E0A94930312068884202D1A6
:10A680004FF4801001E04FF08060A3497039C8603A
:10A690005AE0A14960392068884201D1102050E079
:10A6A0009E4960392068884201D1102049E09A49CA
:10A6B0002068884201D1102043E0984920688842F0
:10A6C00001D110203DE0944948392068884201D1E9
:10A6D000001536E0914948392068884201D10015BB
:10A6E0002FE08D4918312068884201D1001528E0FB
:10A6F0008A4918312068884201D1001521E0864935
:10A7000030392068884202D14FF4801019E0834923
:10A7100030392068884202D14FF4801011E07E4920
:10A7200030312068884202D14FF4801009E07B4923
:10A7300030312068884202D14FF4801001E04FF0A0
:10A74000806075497039886074491839206888427A
:10A750005BD9714960392068884201D1082050E0F6
:10A760006E4960392068884201D1082049E06A4971
:10A770002068884201D1082043E068492068884267
:10A7800001D108203DE0644948392068884201D160
:10A79000401536E0614948392068884201D14015AA
:10A7A0002FE05D4918312068884201D1401528E02A
:10A7B0005A4918312068884201D1401521E0564994
:10A7C00030392068884202D14FF4002019E0534903
:10A7D00030392068884202D14FF4002011E04E4900
:10A7E00030312068884202D14FF4002009E04B4903
:10A7F00030312068884202D14FF4002001E04FF050
:10A8000000704649643908601FE1434948312068B7
:10A8100088425BD9404960392068884201D10820CC
:10A8200050E03E4960392068884201D1082049E063
:10A8300039492068884201D1082043E0374920681F
:10A84000884201D108203DE03349483920688842D8
:10A8500001D1401536E0314948392068884201D19C
:10A8600040152FE02C4918312068884201D140154D
:10A8700028E02A4918312068884201D1401521E09A
:10A88000254930392068884202D14FF4002019E070
:10A89000224930392068884202D14FF4002011E06B
:10A8A0001D4930312068884202D14FF4002009E070
:10A8B0001A4930312068884202D14FF4002001E06B
:10A8C0004FF00070154968390860BEE01249183928
:10A8D000206888425DD9104960392068884201D1DA
:10A8E000082052E00D4960392068884201D10820D3
:10A8F0004BE009492068884201D1082045E007491A
:10A900002068884201D108203FE003494839206887
:10A91000884205D1401538E0706002407064024002
:10A92000FA492068884201D140152EE0F849206894
:10A93000884201D1401528E0F449603120688842FE
:10A9400001D1401521E0F24948392068884202D1FE
:10A950004FF4002019E0ED4918312068884202D1F7
:10A960004FF4002011E0EA4918312068884202D1F2
:10A970004FF4002009E0E54978312068884202D18F
:10A980004FF4002001E04FF00070E1498839C860C1
:10A990005BE0DF4978392068884201D1082051E026
:10A9A000DA4918392068884201D108204AE0D8499C
:10A9B00018392068884201D1082043E0D349483142
:10A9C0002068884201D108203CE0D14960392068E4
:10A9D000884201D1401535E0CC492068884202D137
:10A9E00040152FE04EE3CA492068884201D1401546
:10A9F00028E0C64960312068884201D1401521E035
:10AA0000C34948392068884202D14FF4002019E038
:10AA1000BE4918312068884202D14FF4002011E06D
:10AA2000BB4918312068884202D14FF4002009E068
:10AA3000B64978312068884202D14FF4002001E005
:10AA40004FF00070B24988398860B04930312068D1
:10AA500088425BD9AE4978392068884201D1AD4837
:10AA600050E0AA4918392068884201D1A94849E034
:10AA7000A74918392068884201D1A64842E0A34975
:10AA800048312068884201D1A2483BE0A0496039A2
:10AA90002068884201D1801534E09C4920688842B2
:10AAA00001D180152EE09A492068884201D1801595
:10AAB00028E0964960312068884201D1801521E064
:10AAC000934948392068884202D14FF4802019E028
:10AAD0008E4918312068884202D14FF4802011E05D
:10AAE0008B4918312068884202D14FF4802009E058
:10AAF000864978312068884202D14FF4802001E0F5
:10AB00004FF0807081491C39086020E18049303164
:10AB1000206888425BD97E4978392068884201D113
:10AB20007C4850E0794918392068884201D1794839
:10AB300049E0774918392068884201D1754842E0D8
:10AB4000724948312068884201D172483BE070491F
:10AB500060392068884201D1801534E06B49206853
:10AB6000884201D180152EE069492068884201D1D0
:10AB7000801528E0654960312068884201D1801540
:10AB800021E0634948392068884202D14FF480208F
:10AB900019E05E4918312068884202D14FF48020C4
:10ABA00011E05B4918312068884202D14FF48020BF
:10ABB00009E0564978312068884202D14FF480205C
:10ABC00001E04FF08070514920390860BFE05049E2
:10ABD0003039206888425BD94D49783920688842ED
:10ABE00001D14C4850E0494918392068884201D1C8
:10ABF000484849E0464918392068884201D145480B
:10AC000042E0424948312068884201D141483BE056
:10AC10003F4960392068884201D1801534E03B49C2
:10AC20002068884201D180152EE039492068884289
:10AC300001D1801528E0354960312068884201D172
:10AC4000801521E0324948392068884202D14FF40A
:10AC5000802019E02D4918312068884202D14FF434
:10AC6000802011E02A4918312068884202D14FF42F
:10AC7000802009E0254978312068884202D14FF4CC
:10AC8000802001E04FF0807021498839C8605EE083
:10AC90001F4978392068884201D11E4854E01B4979
:10ACA00018392068884201D11A484DE018491839EE
:10ACB0002068884201D1174846E01449483120688D
:10ACC000884201D113483FE0114960392068884229
:10ACD00001D1801538E00D492068884201D18015E6
:10ACE00032E00B492068884201D180152CE00749E9
:10ACF00060312068884201D1801525E00449483937
:10AD00002068884208D14FF480201DE0286402406A
:10AD10008860024004008000DF492068884202D138
:10AD20004FF4802010E0DD492068884202D14FF4C2
:10AD3000802009E0D84960312068884202D14FF470
:10AD4000802001E04FF08070D449A0398860D2495A
:10AD50001831206888425BD9D049903920688842F0
:10AD600001D1CF4850E0CC4930392068884201D128
:10AD7000CB4849E0C94930392068884201D1C848E8
:10AD800042E0C54930312068884201D1C4483BE0E7
:10AD9000C24978392068884201D1402034E0BE4958
:10ADA00018392068884201D140202DE0BB4918396C
:10ADB0002068884201D1402026E0B7494831206808
:10ADC000884201D140201FE0B449603920688842A0
:10ADD00002D14FF4803017E0AF492068884202D199
:10ADE0004FF4803010E0AD492068884202D14FF422
:10ADF000803009E0A84960312068884202D14FF4D0
:10AE0000803001E04FF48000A349343908601CE130
:10AE1000A2491831206888425BD9A049903920683E
:10AE2000884201D19E4850E09B49303920688842D1
:10AE300001D19B4849E0994930392068884201D1C5
:10AE4000974842E0944930312068884201D19448C3
:10AE50003BE0924978392068884201D1402034E0B3
:10AE60008D4918392068884201D140202DE08B4956
:10AE700018392068884201D1402026E086494831AF
:10AE80002068884201D140201FE084496039206851
:10AE9000884202D14FF4803017E07F492068884211
:10AEA00002D14FF4803010E07C492068884202D102
:10AEB0004FF4803009E0784960312068884202D13F
:10AEC0004FF4803001E04FF4800073493839086056
:10AED000BBE072494839206888425BD96F49903994
:10AEE0002068884201D16E4850E06B4930392068B3
:10AEF000884201D16A4849E068493039206888426F
:10AF000001D1674842E0644930312068884201D16C
:10AF100063483BE0614978392068884201D140208C
:10AF200034E05D4918392068884201D140202DE085
:10AF30005A4918392068884201D1402026E05649F4
:10AF400048312068884201D140201FE053496039D0
:10AF50002068884202D14FF4803017E04E492068C3
:10AF6000884202D14FF4803010E04C49206888427A
:10AF700002D14FF4803009E04749603120688842AF
:10AF800002D14FF4803001E04FF480004349A039F2
:10AF9000C8605AE0414990392068884201D1404850
:10AFA00050E03D4930392068884201D13C4849E0B1
:10AFB0003A4930392068884201D1394842E036495F
:10AFC00030312068884201D135483BE03349783937
:10AFD0002068884201D1402034E02F491839206888
:10AFE000884201D140202DE02C4918392068884240
:10AFF00001D1402026E0284948312068884201D10B
:10B0000040201FE0254960392068884202D14FF472
:10B01000803017E020492068884202D14FF4803008
:10B0200010E01E492068884202D14FF4803009E0C8
:10B03000194960312068884202D14FF4803001E024
:10B040004FF480001549A03988602068006840F0FE
:10B050001600216808602068406940F0800021687F
:10B060004861206C08B9A06C28B12068006840F0E5
:10B070000800216808602068006840F0010021682D
:10B08000086006E000BF002084F8340000BF4FF0E5
:10B0900002094846FFF730B840640240A060024011
:10B0A0000100800070B50446A56D01F0EBF806467E
:10B0B00094F83500022808D08020606500BF002089
:10B0C00084F8340000BF012070BD2068006820F0C3
:10B0D0001600216808602068406920F0800021681F
:10B0E0004861206C08B9A06C28B12068006820F085
:10B0F0000800216808602068006820F001002168CD
:10B1000008600FE001F0BEF8801B05280AD9202056
:10B11000606500BF002084F8340000BF032084F87D
:10B120003500D1E72068006800F001000028E9D16F
:10B1300094F85C103F208840A86000BF002084F88D
:10B14000340000BF012084F835000020BCE7014630
:10B1500091F83500022803D080204865012070470F
:10B16000052081F835000868006820F001000A68B1
:10B1700010600020F3E70000F8B5044600200090BE
:10B180008D4800684FF41651B0FBF1F7A56D2E689D
:10B1900094F85C1008208840304098B1206800681E
:10B1A00000F0040070B12068006820F004002168FD
:10B1B000086094F85C1008208840A860606D40F03A
:10B1C0000100606594F85C107C488840304068B1AC
:10B1D0002068406900F0800040B194F85C10774826
:10B1E0008840A860606D40F00200606594F85C10D3
:10B1F0007248C01C8840304070B12068006800F080
:10B20000020048B194F85C106C48C01C8840A860EB
:10B21000606D40F00400606594F85C101020884078
:10B22000304078B32068006800F0080050B394F80C
:10B230005C1010208840A8602068006800F480201E
:10B2400080B12068006800F4002028B9206CC8B1E3
:10B250002046216C884715E0A06C98B12046A16C6F
:10B2600088470FE02068006800F4807028B92068E3
:10B27000006820F0080021680860206C10B12046AA
:10B28000216C884794F85C102020884030400028CA
:10B2900065D02068006800F0100000285FD094F8A6
:10B2A0005C1020208840A86094F83500052828D13B
:10B2B0002068006820F01600216808602068406956
:10B2C00020F0800021684861206C08B9A06C28B18A
:10B2D0002068006820F008002168086094F85C107D
:10B2E0003F208840A86000BF002084F8340000BFE1
:10B2F000012084F83500206D10B12046216D88476B
:10B30000F8BD2068006800F4802080B120680068E3
:10B3100000F4002028B9606C10B12046616C8847A9
:10B320001DE0E06BD8B12046E16B884717E020684C
:10B33000006800F4807068B92068006820F0100090
:10B340002168086000BF002084F8340000BF01209D
:10B3500084F83500E06B10B12046E16B8847606DE2
:10B3600038B3606D00F00100F0B1052084F83500BD
:10B370002068006820F001002168086000BF009884
:10B38000401C0090B84200D905E02068006800F039
:10B3900001000028F3D100BF00BF002084F8340072
:10B3A00000BF012084F83500E06C10B12046E16C4C
:10B3B000884700BFA4E7000044010020010080008E
:10B3C0002DE9F0410446002500F05CFF074614B962
:10B3D0000120BDE8F081606A00B100BF00BF00201D
:10B3E00084F8340000BF022084F83500206800682B
:10B3F00020F00100216808600AE000F043FFC01B54
:10B40000052805D920206065032084F83500E0E791
:10B410002068006800F001000028EED1206805686F
:10B4200021480540D4E901010843E1680843216946
:10B43000084361690843A1690843E1690843216A37
:10B4400008430543606A042803D1D4E90B0108438B
:10B450000543206805602068456925F00705606A96
:10B460000543606A04280DD1A06A0543E06A48B12B
:10B470002046FDF7DFFF28B140206065012084F8F9
:10B480003500A6E7206845612046FDF7B9FF06466E
:10B4900094F85C103F208840B06000206065012077
:10B4A00084F83500002094E73F8010E010B5034693
:10B4B000002400BF93F83400012801D1022010BD00
:10B4C000012083F8340000BF93F83500012814D11F
:10B4D000062910D2DFE801F0030507090B0DDA6336
:10B4E0000AE01A6408E05A6406E09A6404E0DA6448
:10B4F00002E01A6500E000BF00E0012400BF002068
:10B5000083F8340000BF2046D9E72DE9F047044610
:10B510000D4616461F464FF00008D4F8589000BF5D
:10B5200094F83400012802D10220BDE8F087012000
:10B5300084F8340000BF94F8350001282BD1022094
:10B5400084F83500002060653B4632462946204697
:10B55000FDF7D5FF94F85C103F208840C9F808003B
:10B560002068006840F01600216808602068406983
:10B5700040F0800021684861206C28B12068006894
:10B5800040F00800216808602068006840F0010071
:10B590002168086006E000BF002084F8340000BF86
:10B5A0004FF002084046C0E731B5002400F06AFEC3
:10B5B000044600BF00F066FE001B00998842F9D3E4
:10B5C00038BD70B504460D461646002200BF94F8FB
:10B5D0004500012801D1022070BD012084F84500FA
:10B5E00000BF022084F84400A56200221FE005EBA2
:10B5F00042114FF00040086044F2F4504860C2EB42
:10B60000C21000EB400006EB80008860A0690128B2
:10B6100003D1486820F000404860581E904204D989
:10B6200005EB42102030C86000E0CD60521C9A4209
:10B63000DDD3206800F58050C560012084F8440007
:10B6400000BF002084F8450000BF00BFC4E770B50C
:10B6500004460D461646002200BF94F84500012816
:10B6600001D1022070BD012084F8450000BF0220F6
:10B6700084F84400E56200221BE005EB42114FF420
:10B6800080100860C2EBC21000EB400006EB8000A7
:10B690008860E06918B9086840F440000860581EE6
:10B6A000904204D905EB42102030C86000E0CD6024
:10B6B000521C9A42E1D3206800F5805005610120B8
:10B6C00084F8440000BF002084F8450000BF00BF9C
:10B6D000C8E770470146002200BF91F845000128E5
:10B6E00001D102207047012081F8450000BF0220EF
:10B6F00081F844003AE0521C886A006800F4407007
:10B70000B0F5007F07D1886A086301238B63886ADC
:10B71000C06888622AE0886A006800F4407030B926
:10B72000886B401C8863886AC06888621EE08B6AE8
:10B730004B63886B401C8863886B012801D1886A41
:10B740000863886A0068C0F30D40001FC863086B77
:10B7500083680B64886AC0688862012081F84400AD
:10B7600000BF002081F8450000BFBBE7886A006881
:10B7700000F0004008B9082ABDD3012081F8440038
:10B7800000BF002081F8450000BF0120AAE710B5E6
:10B790000446206800F58050406900F040004028D1
:10B7A0000FD1204600F060FA4021206800F580505B
:10B7B0004161012084F8440000BF002084F8450066
:10B7C00016E0206800F58050406900F0010078B173
:10B7D000204600F01BFB0121206800F580504161EC
:10B7E000012084F8440000BF002084F8450000BF19
:10B7F0004FF48031206800F580504161206800F5E9
:10B800008050406900F40040B0F5004F10D1204650
:10B81000FFF75FFF4FF40041206800F58050416161
:10B82000012084F8440000BF002084F8450000BFD8
:10B8300010BD00002DE9FC410446002500200190C8
:10B840009C4E0027804614B90120BDE8FC8194F885
:10B85000440028B9002084F84500204600F038F95B
:10B8600000BF9548006840F480409349086008464E
:10B87000006800F48040009000BF00BF8F4800685F
:10B8800020F400008D49086008460068216A0843DA
:10B890008A490860206800F58050006840F0010186
:10B8A000206800F58050016000F0ECFC07460FE0D6
:10B8B00000F0E8FCC01BB0F5FA7F09D9032084F83A
:10B8C000440000BF002084F8450000BF0320BCE70F
:10B8D000206800F58050006800F001000028E7D1E2
:10B8E0002068056925F01C0501F032FA0646744807
:10B8F000864205D37348864202D245F008051AE015
:10B900007048864205D36B48864202D245F00C054A
:10B9100011E06848864203D36B48864200D20AE0B1
:10B920006948864205D36948864202D245F004053B
:10B9300001E045F01005206805614FF40042002148
:10B94000204600F064FA48B14FF001084146204615
:10B95000FDF750FF012084F8440076E7FF20FFF751
:10B9600023FE6068002871D000F08CFC074600BF01
:10B9700001AA0121204600F02DF900F083FCC01B34
:10B9800041F2883188420FD94FF0010841462046E4
:10B99000FDF730FF012084F8440000BF002084F848
:10B9A000450000BF032050E7019800F00400042880
:10B9B000DED182020021204600F029FA48B14FF082
:10B9C000010841462046FDF715FF012084F8440098
:10B9D0003BE700F057FC074600BF01AA01212046C3
:10B9E00000F0F8F800F04EFCC01B41F288318842AC
:10B9F0000FD94FF0010841462046FDF7FBFE01201C
:10BA000084F8440000BF002084F8450000BF0320F4
:10BA10001BE7019800F020002028DED101AA1021A8
:10BA2000204600F0D7F848B14FF0010841462046C3
:10BA3000FDF7E0FE012084F8440006E7019800F0DD
:10BA4000040020B14FF40061E16002E00DE000214C
:10BA5000E160019800F00200022802D10021A160FB
:10BA60001EE04FF48041A1601AE0E068C0F3CF000F
:10BA7000A168C1F34F0140EA01020021204600F015
:10BA8000C6F948B14FF0010841462046FDF7B2FE25
:10BA9000012084F84400D8E640F6FF70FFF784FDEB
:10BAA00041462046FDF7A6FE012084F84400002010
:10BAB000CBE600000087930344380240043801407D
:10BAC000002D3101C00E160200E1F50580D1F0080D
:10BAD00010B586B004463949206888426BD100BF52
:10BAE00000BF3748006840F00070354908600846DC
:10BAF000006800F00070009000BF00BF00BF084663
:10BB0000006840F0806008600846006800F08060CF
:10BB1000009000BF00BF00BF0846006840F0006012
:10BB200008600846006800F00060009000BF00BF99
:10BB300000BF3220019002200290002003900320D9
:10BB400004900B20059001A91E4800F081FA862080
:10BB500001900220029000200390032004900B200B
:10BB6000059001A9184800F073FA4FF400500190B5
:10BB70000220029000200390032004900B200590E7
:10BB800001A9124800F064FA4FF4205001900220FD
:10BB9000029000200390032004900B20059001A93F
:10BBA0000B4800F055FA002205213D2000F0D8FB9B
:10BBB0003D2000F0C8FB06B010BD00000080024030
:10BBC00030380240000802400000024000040240F9
:10BBD000001802402DE9F04104460E4617460025A4
:10BBE000A84694F84400822802D10220BDE8F081E2
:10BBF000822084F844002068056905F01C05208A2D
:10BC00004FF4784101EAC0200543481100EA86104C
:10BC1000054325F0020545F001052068056100F0A7
:10BC200031FB804612E000F02DFBA0EB0800B0F5E0
:10BC3000803F09D3012084F8440000BF002084F82D
:10BC4000450000BF0320D1E72068056905F0010029
:10BC50000028E8D12068406980B23860012084F86B
:10BC600044000020C2E7000010B504460248006806
:10BC70000CF03EFD10BD00004801002010B5044648
:10BC800000BF94F84500012801D1022010BD012019
:10BC900084F8450000BF022084F844002046FDF7E8
:10BCA000DFFE2046FDF7C8FE2046FDF765FD204675
:10BCB000FDF757FD2046FDF749FD012084F84400BB
:10BCC00000BF002084F8450000BF00BFDEE770B56C
:10BCD000024600230025002400BF92F845000128F9
:10BCE00001D1022070BD012082F8450000BF022072
:10BCF00082F8440049B9012082F8440000BF0020C6
:10BD000082F8450000BF0120ECE7D06A006800F02F
:10BD1000004048B1122082F8440000BF002082F8A1
:10BD2000450000BF0120DDE740F2F450814208D910
:10BD3000B1FBF0F3B1FBF0F600FB161010B15B1C89
:10BD400000E00123012B13D1D06A006840F040507D
:10BD5000D66A3060C1F30C00D66A7060D06A0068A1
:10BD600040F00040D66A3060D06AC068D06232E0ED
:10BD700000242EE0D06A006820F04050D66A30607F
:10BD80002CB9D06A006840F08050D66A306040F22A
:10BD9000F450D66A7060581EA04210D1D06A006874
:10BDA00040F00050D66A3060581EC0EBC01000EB67
:10BDB0004000A1EB8005C5F30C00D66A7060D06A24
:10BDC000006840F00040D66A3060D06AC068D06237
:10BDD000641C9C42CED3106800F58050406900F08E
:10BDE000040048B10426106800F580504661002622
:10BDF000106800F580504660012082F8440000BFC2
:10BE0000002082F8450000BF00BF6BE770472DE9B6
:10BE1000F04104460E4617460025A84694F8440013
:10BE2000422802D10220BDE8F081422084F844007B
:10BE30002068056905F01C05208A4FF4784101EA65
:10BE4000C0200543481100EA8610054345F002056D
:10BE500045F00105B8B2216848612068056100F02D
:10BE600011FA804612E000F00DFAA0EB0800B0F5E0
:10BE7000803F09D3012084F8440000BF002084F8EB
:10BE8000450000BF0320CEE72068056905F00100EA
:10BE90000028E8D1012084F844000020C3E7000016
:10BEA0002DE9F04104460E460127002500BF254834
:10BEB000007D012802D10220BDE8F0810120214946
:10BEC000087500BF4CF25030FDF722FF0746002FE7
:10BED00030D1401E30602068012810D1207C61687C
:10BEE000FDF734FE4CF25030FDF712FF07461648BE
:10BEF000006848F204018843134908601AE0A56805
:10BF000012E0217C2846FDF7E9FD4CF25030FDF7A8
:10BF1000FFFE07460C48006820F0FA000A49086056
:10BF20000FB1356005E06D1CD4E902100844A84249
:10BF3000E7D800BF00BF00200249087500BF38469F
:10BF4000BAE70000CC3C0120103C024003480068E6
:10BF500040F000400149086000207047103C02405A
:10BF60002DE9F04106460F4614461D464FF00108E4
:10BF700000BF2248007D012802D10220BDE8F081E7
:10BF800001201E49087500BF4CF25030FDF7C0FE7D
:10BF90008046B8F1000F29D136B1012E09D0022E0A
:10BFA0000CD0032E15D10EE0E1B23846FDF700FEAD
:10BFB00010E0A1B23846FDF733FE0BE021463846CB
:10BFC000FDF74AFE06E022462B463846FDF70AFEFC
:10BFD00000E000BF00BF4CF25030FDF799FE8046F4
:10BFE0000748006820F001000549086000BF0020F4
:10BFF0000249087500BF4046C0E70000CC3C012064
:10C00000103C02400748006800F0004030B106488C
:10C0100004490C3908600548086001E001207047B8
:10C020000020FCE7103C024023016745AB89EFCDBF
:10C030007047000010B5044604480068204020B155
:10C04000024804602046FFF7F3FF10BD143C014096
:10C05000F8B502460B46002100250024002000BF51
:10C06000E4E0012606FA01F51E6806EA0504AC4282
:10C0700071D15E68022E02D05E68122E13D1CF08F5
:10C0800002F1200656F827004E07F70E0F26BE4095
:10C09000B0434F07FF0E1E69BE403043CF0802F188
:10C0A000200646F8270010684F000326BE40B04324
:10C0B0001E7906F003064F00BE40304310605E68F4
:10C0C000012E08D05E68022E05D05E68112E02D0C7
:10C0D0005E68122E13D190684F000326BE40B04315
:10C0E0004F00DE68BE4030439060506801268E40AD
:10C0F000B0431E79C6F300168E4030435060D068BE
:10C100004F000326BE40B0434F009E68BE40304300
:10C11000D0605E6806F08056B6F1805FA8D100BF9F
:10C12000444E366846F48046424F3E603E4636688E
:10C1300006F48046009600BF00BF3F4E8F0856F8B9
:10C1400027008E07370F0F26BE40B0433B4EB2424A
:10C1500002D100262EE068E0394EB24201D101261C
:10C1600028E0384EB24201D1022623E0364EB242D8
:10C1700001D103261EE0354EB24201D1042619E05A
:10C18000334EB24201D1052614E0324EB24201D103
:10C1900006260FE0304EB24201D107260AE02F4EAC
:10C1A000B24201D1082605E02D4EB24201D1092646
:10C1B00000E00A268F073F0FBE4030431E4E8F0817
:10C1C00046F82700274E3068A0435E6806F48036A4
:10C1D000B6F5803F00D12043224E3060361D3068D6
:10C1E000A0435E6806F40036B6F5003F00D1204358
:10C1F0001C4E361D3060361D3068A0435E6806F464
:10C200008016B6F5801F00D12043164E08363060E8
:10C21000361D3068A0435E6806F40016B6F5001FB0
:10C2200000D120430F4E0C363060491C1029FFF41A
:10C2300018AFF8BD44380240083801400000024001
:10C240000004024000080240000C024000100240BE
:10C250000014024000180240001C0240002002406E
:10C2600000240240003C0140024613690B400BB120
:10C27000012000E0002070470AB1816101E00B0459
:10C28000836170470148006870470000400100204A
:10C2900002480068401C01490860704740010020C6
:10C2A00010B50848006840F4007006490860032093
:10C2B00000F094F80F2000F007F800F019F80020C3
:10C2C00010BD0000003C024070B5044607480068FD
:10C2D0004FF47A71B0FBF1F5284601F0A8FC00227A
:10C2E0002146501E00F03CF8002070BD44010020A3
:10C2F00010B5032000F072F8002211466FF00B0019
:10C3000000F02EF8002211466FF00A0000F028F825
:10C31000002211466FF0090000F022F800221146B9
:10C32000501F00F01DF800221146101F00F018F8F1
:10C3300000220F21901E00F013F800220F21501E42
:10C3400000F00EF810BD00BF00F01F020121914067
:10C350004209920002F1E022C2F8001100BF7047CA
:10C360002DE9F05F80460D461646002703F0AAFA35
:10C37000074639462A46334601F00700C0F1070A4E
:10C38000BAF1040F02D94FF0040A01E0C0F1070A24
:10C39000D14600F1040ABAF1070F02D24FF0000AA9
:10C3A00001E0A0F1030AD4464FF0010A0AFA09FAA3
:10C3B000AAF1010A0AEA020A0AFA0CFA4FF0010B82
:10C3C0000BFA0CFBABF1010B0BEA030B4AEA0B0473
:10C3D0002146404603F07EFABDE8F09F00BF00F022
:10C3E0000702064B19684FF6FF031940044B0B4335
:10C3F00043EA0221014B196000BF70470CED00E0D9
:10C400000000FA0538B5002400BF2048006840F05D
:10C4100080501E4908600846006800F08050009077
:10C4200000BF00BF1A48006840F480301849086017
:10C43000FFF728FF044607E0FFF724FF001BB0F5D5
:10C440007A7F01D9032038BD1148406800F480305C
:10C45000B0F5803FF0D10E48006840F400300C4940
:10C460000860FFF70FFF044607E0FFF70BFF001B14
:10C47000B0F57A7F01D90320E5E70548406800F46C
:10C480000030B0F5003FF0D10020DCE7403802403A
:10C49000007000402DE9F8430446002600250027DF
:10C4A000A846A946207800F0010088B100BFFE48E8
:10C4B000006820F40000FC49086008460068616BD1
:10C4C0000843F949086000BF606B08B94FF00108E4
:10C4D000206800F40020B0F5002F13D1F24884301A
:10C4E000006820F44010E16B0843EF498431086094
:10C4F000E06BB0F5801F01D14FF00108E06B08B987
:10C500004FF00109206800F48010B0F5801F13D1AE
:10C51000E5488430006820F44000216C0843E2497B
:10C5200084310860206CB0F5800F01D14FF0010814
:10C53000206C08B94FF00109206800F08070B0F15C
:10C54000807F01D14FF00108207800F020002028E2
:10C5500070D100BFD4483830006840F08050D249D4
:10C56000383108600846006800F08050009000BF35
:10C5700000BFCE48006840F48070CC490860FFF7E7
:10C5800081FE064607E0FFF77DFE801B642802D986
:10C590000320BDE8F883C548006800F480700028D7
:10C5A000F1D0C1486830006800F4407585B3208E32
:10C5B00000F44070A8422BD0BB486830006820F4DB
:10C5C0004075B9486830006840F48030B649683139
:10C5D00008600846006820F480300860084605605E
:10C5E000006800F0010098B1FFF74CFE064608E035
:10C5F000FFF748FE801B41F28831884201D90320B1
:10C60000C7E7A94868300068C0F340000028EFD0B1
:10C6100000BF208E00F44070B0F5407F0BD1A248DF
:10C62000006820F4F810A24A216B114008439E498B
:10C63000086006E010E09C48006820F4F8109A4971
:10C640000860994868300068218EC1F30B010843E7
:10C6500095496831086000BF207800F0100010286C
:10C6600010D100BF90488430006820F080708E495F
:10C670008431086008460068A16B08438A49843108
:10C68000086000BF208800F48040B0F5804F09D1D9
:10C6900085488830006820F44030616E0843824944
:10C6A00088310860208800F40040B0F5004F09D1BF
:10C6B0007D488830006820F44020A16E08437A4904
:10C6C00088310860206800F48030B0F5803F09D1DF
:10C6D00075488830006820F44010E16E08437249C4
:10C6E00088310860206800F40030B0F5003F09D1BF
:10C6F0006D488830006820F44000216F08436A4983
:10C7000088310860207800F04000402809D1664850
:10C710008830006820F00300616C0843624988316A
:10C720000860207800F08000802809D15E488830B9
:10C73000006820F00C00A16C08435B498831086058
:10C74000208800F48070B0F5807F09D15648883089
:10C75000006820F03000E16C0843534988310860DC
:10C76000208800F40070B0F5007F09D14E48883071
:10C77000006820F0C000216D08434B4988310860F3
:10C78000208800F48060B0F5806F09D14648883079
:10C79000006820F44070616D0843434988310860A7
:10C7A000208800F40060B0F5006F09D13E48883061
:10C7B000006820F44060A16D08433B49883108605F
:10C7C000208800F48050B0F5805F09D13648883069
:10C7D000006820F44050E16D084333498831086017
:10C7E000208800F40050B0F5005F09D12E48883051
:10C7F000006820F44040216E08432B4988310860CE
:10C80000206800F48000B0F5800F09D126488830F8
:10C81000006820F08060A16F0843234988310860D8
:10C82000206800F40010B0F5001F0FD11E488830BA
:10C83000006820F00060E16F08431B498831086000
:10C84000E06FB0F1006F01D14FF00109207800F0E6
:10C850000800082801D14FF00109206800F4802069
:10C86000B0F5802F09D110488830006820F0407062
:10C87000616F08430C4988310860206800F40000AB
:10C88000B0F5000F0AD108488830006820F08050C9
:10C89000D4F880100843044988310860206800F00B
:10C8A0008060B0F1806F05E0083802400070004001
:10C8B000FFFCFF0F08D1CC48006820F00050D4F8EE
:10C8C00084100843C8490860206800F00060B0F197
:10C8D000006F0AD1C448001F006820F00070D4F82F
:10C8E00088100843C049091F0860206800F0805084
:10C8F000B0F1805F0AD1BC48001F006820F0806062
:10C90000D4F88C100843B849091F0860B8F1010F2A
:10C9100003D02068B0F1007F7ED1B3489038006822
:10C9200020F08060B04990390860FFF7ABFC064604
:10C9300006E0FFF7A7FC801B642801D9032028E646
:10C94000A94890380068C0F3C0600028F1D1207871
:10C9500000F00100B8B1606BA8B9A3480C380068BA
:10C96000C0F30145A0480C380068C0F30367606855
:10C97000800140EA054040EA0761207A41EA007000
:10C9800099490C390860206800F40020B0F5002FA8
:10C9900003D1E06BB0F5801F09D0206800F480104F
:10C9A000B0F5801F24D1206CB0F5800F20D18E48C7
:10C9B0000C380068C0F301458B480C380068C0F3A0
:10C9C00002776068800140EA0541207B41EA00600F
:10C9D00040EA077084490C3908608348001F0068EA
:10C9E00020F01F00616A491E08437F49091F086043
:10C9F000206800F08070B0F1807F17D17A480C3841
:10CA00000068C0F3036578480C380068C0F302770B
:10CA100060688101208A00E036E041EA004040EA97
:10CA2000056040EA077070490C390860206800F022
:10CA30000070B0F1007F0DD160688101208A41EA69
:10CA40000041207B41EA0061207A41EA007066499A
:10CA50000C39086064489038006840F08060624992
:10CA600090390860FFF70EFC064606E0FFF70AFC67
:10CA7000801B642801D903208BE55B48903800684F
:10CA8000C0F3C0600028F1D0B9F1010F7ED1564843
:10CA90009038006820F08050534990390860FFF7C3
:10CAA000F1FB064606E0FFF7EDFB801B642801D989
:10CAB00003206EE54C4890380068C0F340700028B1
:10CAC000F1D1206800F40020B0F5002F01D1E06B17
:10CAD00038B1206800F48010B0F5801F22D1206C9E
:10CAE00000BB414808380068C0F301453E4808389B
:10CAF0000068C0F302776069800140EA0541207E4A
:10CB000041EA006040EA0770374908390860081DAB
:10CB1000006820F4F851A06A401E41EA0020324922
:10CB2000091F0860206800F40010B0F5001F19D13B
:10CB3000E06FB0F1006F15D12B4808380068C0F3E2
:10CB40000365294808380068C0F3027760698101ED
:10CB5000208C41EA004040EA056040EA0770224923
:10CB600008390860207800F00800082820D11E4805
:10CB700008380068C0F303651B4808380068C0F334
:10CB800001476069800140EA074000E02AE040EA8E
:10CB90000561207F41EA0070134908390860081DCB
:10CBA000006820F44030E16A08430F49091F08601B
:10CBB0000D489038006840F080500B49903908606B
:10CBC000FFF760FB064606E0FFF75CFB801B64286E
:10CBD00001D90320DDE4044890380068C0F34070B8
:10CBE0000028F1D00020D4E49038024070B504460B
:10CBF0000D4600260CB9012070BD5148006800F0B8
:10CC00000F00A8420ED24E48006820F00F002843C3
:10CC10004B4908600846006800F00F00A84201D0A8
:10CC20000120E9E7207800F00200022807D14548FA
:10CC3000006820F0F000A1680843424908602078AD
:10CC400000F0010090B36068012807D13D48083822
:10CC50000068C0F34040A0B90120CDE76068022819
:10CC600007D1384808380068C0F3406048B901204F
:10CC7000C2E7344808380068C0F3400008B9012012
:10CC8000BAE73048006820F00300616808432D4986
:10CC90000860FFF7F7FA064609E0FFF7F3FA801B92
:10CCA00041F28831884202D90320A5E707E02548F0
:10CCB000006800F00C006168B0EB810FEDD12048F6
:10CCC000006800F00F00A8420ED91D48006820F04F
:10CCD0000F0028431A4908600846006800F00F005A
:10CCE000A84201D0012087E7207800F00400042842
:10CCF00007D11448006820F4E050E1680843114966
:10CD00000860207800F00800082808D10D48006865
:10CD100020F46040216940EAC1000A49086000F03F
:10CD20003DF808490968C1F30311074A515CC8403E
:10CD3000064908600F20FFF7C7FA00205CE70000F3
:10CD4000003C0240083802405CF802084401002020
:10CD500001480068704700004401002000B5FFF75B
:10CD6000F7FF04490968C1F38221034A515CC840B6
:10CD700000BD0000083802406CF8020800B5FFF75B
:10CD8000E7FF04490968C1F34231034A515CC840D6
:10CD900000BD0000083802406CF8020830B50021E0
:10CDA0000022002300201E4C246804F00C0424B14F
:10CDB000042C04D0082C2ED103E01A482DE01A4888
:10CDC0002BE0174C241F246804F03F01144C241F4F
:10CDD000246804F4800454B1134CB4FBF1F4104DF6
:10CDE0002D1F2D68C5F3881504FB05F209E00D4CD5
:10CDF000B4FBF1F40A4D2D1F2D68C5F3881504FB13
:10CE000005F2074C241F2468C4F30144641C63002A
:10CE1000B2FBF3F001E0034800BF00BF30BD0000EB
:10CE2000083802400024F40000127A0070B586B081
:10CE300006460C46154636BB00BF2748006840F042
:10CE40000100254908600846006800F001000090D4
:10CE500000BF00BF881501900220029003200490BB
:10CE600000200390059001A91C48FFF7F1F81A482B
:10CE70002838006820F0EC6044EA050108431649B0
:10CE80002839086025E000BF1348006840F004001E
:10CE9000114908600846006800F00400009000BFD7
:10CEA00000BF48150190022002900320049000204A
:10CEB0000390059001A90A48FFF7CAF806482838E8
:10CEC000006820F0784044EAC50108430249283947
:10CED000086006B070BD000030380240000002401B
:10CEE00000080240F8B5044600260CB90120F8BD40
:10CEF000207800F00100002871D0F848006800F0A8
:10CF00000C0004280DD0F548006800F00C0008283B
:10CF100013D1F248001F006800F48000B0F5800FC4
:10CF20000BD1EE4808380068C0F34040002869D0B3
:10CF30006068002866D10120D9E700BF6068B0F5BD
:10CF4000803F08D1E5480838006840F48030E34964
:10CF5000083908602EE0606868B9E0480838006861
:10CF600020F48030DD49083908600846006820F464
:10CF7000802008601EE06068B0F5A02F0DD1D74872
:10CF80000838006840F48020D44908390860084611
:10CF9000006840F4803008600CE0D0480838006831
:10CFA00020F48030CD49083908600846006820F434
:10CFB0008020086000BF606890B1FFF763F9054604
:10CFC00006E0FFF75FF9401B642801D903208EE7D4
:10CFD000C24808380068C0F340400028F1D011E092
:10CFE000FFF750F9054606E0FFF74CF9401B6428AF
:10CFF00001D903207BE7B94808380068C0F34040F6
:10D000000028F1D1207800F00200022869D1B3484D
:10D01000006800F00C0058B1B048006800F00C0047
:10D0200008281CD1AD48001F006800F48000B0B98A
:10D03000AA4808380068C0F3400020B1E068012821
:10D0400001D0012053E7A5480838006820F0F80017
:10D05000216940EAC100A1490839086041E0E0685F
:10D0600028B39E480838006840F001009B49083901
:10D070000860FFF707F9054606E0FFF703F9401BD4
:10D08000022801D9032032E7944808380068C0F329
:10D0900040000028F1D091480838006820F0F800DE
:10D0A000216940EAC1008D490839086019E08B48C0
:10D0B0000838006820F00100884908390860FFF747
:10D0C000E1F8054606E0FFF7DDF8401B022801D92C
:10D0D00003200CE7814808380068C0F340000028AE
:10D0E000F1D1207800F00800082836D16069D0B16D
:10D0F0007A486C30006840F0010078496C31086073
:10D10000FFF7C0F8054606E0FFF7BCF8401B022811
:10D1100001D90320EBE671486C300068C0F3400091
:10D120000028F1D019E06D486C30006820F0010053
:10D130006A496C310860FFF7A5F8054606E0FFF77D
:10D14000A1F8401B022801D90320D0E663486C30C7
:10D150000068C0F340000028F1D1207800F00400FE
:10D16000042874D15D483830006800F0805080B9E0
:10D1700000BF5A483830006840F080505749383175
:10D1800008600846006800F08050009000BF00BFB3
:10D1900001265348006800F48070B0B95048006818
:10D1A00040F480704E490860FFF76CF8054606E0D1
:10D1B000FFF768F8401B642801D9032097E6484828
:10D1C000006800F480700028F2D000BFA068012839
:10D1D00008D142486830006840F001003F4968319A
:10D1E00008602DE0A06868B93C486830006820F00D
:10D1F00001003A49683108600846006820F00400E0
:10D2000008601DE0A06805280DD13448683000682A
:10D2100040F004003149683108600846006840F079
:10D22000010008600CE02D486830006820F0010023
:10D230002A49683108600846006820F00400086048
:10D2400000BFA068A8B1FFF71DF8054609E02EE071
:10D25000FFF718F8401B41F28831884201D90320BA
:10D2600045E61E4868300068C0F340000028EFD053
:10D2700013E0FFF707F8054608E0FFF703F8401B47
:10D2800041F28831884201D9032030E613486830E2
:10D290000068C0F340000028EFD1012E07D10F48ED
:10D2A0003830006820F080500C4938310860A0699F
:10D2B000F0B30A48006800F00C00082868D0A069A4
:10D2C00002284DD105480838006820F080700349D5
:10D2D00008390860FEF7D6FF05460AE00838024024
:10D2E00000700040FEF7CEFF401B022801D903204A
:10D2F000FDE529480068C0F340600028F2D1D4E978
:10D3000007010843616A40EA81110122A06AC2EB69
:10D31000500041EA00412C20005D41EA00613020CC
:10D32000005D41EA00701C49091D0860081F00E00B
:10D3300030E0006840F08070091F0860FEF7A2FF2F
:10D34000054606E0FEF79EFF401B022801D9032098
:10D35000CDE511480068C0F340600028F2D019E024
:10D360000D48006820F080700B490860FEF78AFFC6
:10D37000054606E0FEF786FF401B022801D9032080
:10D38000B5E505480068C0F340600028F2D101E02F
:10D390000120ACE50020AAE500380240704770B5D6
:10D3A00004460CB9012070BD606A00B900BF0021BD
:10D3B000A16294F85D0028B9002084F85C00204642
:10D3C00000F054F8022084F85D002068006820F026
:10D3D000400021680860E068B0F5E06F01D90025E1
:10D3E00001E04FF48055E068B0F5706F05D0E0685B
:10D3F000B0F5E06F01D00021A162206B40B9E06878
:10D40000B0F5E06F02D90221216301E0012121631F
:10D41000D4E9010108432169084361690843218B6C
:10D4200001F400710843E1690843216A0843A16AD5
:10D430000843216808600421A06901EA1040616A7C
:10D440000843616B0843E16808432843216848604A
:10D450002068C06920F400602168C861002020664F
:10D46000012084F85D0000209DE7000010B586B023
:10D4700004466D49206888423BD100BF6B48006874
:10D4800040F40040694908600846006800F4004024
:10D49000009000BF00BF4FF4406001900220029056
:10D4A00000200390032004900620059001A9604805
:10D4B000FEF7CEFD5F48604908600020486000210B
:10D4C0005D488160C1604FF480610161002141616C
:10D4D0008161C16101624162FDF772FF20B140F2DA
:10D4E000011156A003F06CFC00BF5348A065846393
:10D4F00098E059492068884242D100BF4B48001D3E
:10D50000006840F480104949091D08600846006819
:10D5100000F48010009000BF00BF4FF42070019015
:10D520000220029000200390032004900520059023
:10D5300001A94A48FEF78CFD49484A4908604FF066
:10D54000806048604021474881600021C1604FF4FD
:10D5500080610161002141618161C1614FF440310D
:10D56000016200214162FDF72BFF20B140F22B1137
:10D5700032A003F025FC00BF3A486065846351E0A7
:10D580003949206888424DD100BF2848001D0068F5
:10D5900040F400102549091D08600846006800F4A1
:10D5A0000010009000BF00BF2020019002200290D8
:10D5B00000200390032004900820059001A92B4827
:10D5C000FEF746FD4FF480500190022002900020AB
:10D5D0000390032004900520059001A92448FEF73C
:10D5E00037FD1F483030234908604FF00070486015
:10D5F000002120488160C1604FF4806101610021F9
:10D6000041618161C16101624162FDF7D9FE20B1D2
:10D610004FF4AE7109A003F0D3FB00BF1548A0651D
:10D62000846300BF06B010BD003C0040403802409B
:10D630000008024010600240ECD001202E2E2F5333
:10D6400072632F73746D3332663778785F68616CFC
:10D650005F6D73702E6300000050014000140240A3
:10D66000706402404CD1012000540140000002408F
:10D6700000180240ACD101202DE9F04104460E46CD
:10D6800015460027A06870B96068B0F5827F0AD19E
:10D69000042084F85D002B4632463146204600F0D7
:10D6A00009F9BDE8F08100BF94F85C00012801D1C0
:10D6B0000220F6E7012084F85C0000BF94F85D00CA
:10D6C000012801D002276CE006B10DB9012768E0FE
:10D6D000042084F85D00002020662664A4F84450ED
:10D6E000A4F84650E0642065A087E087A068B0F504
:10D6F000004F05D12068006820F480402168086050
:10D70000E068B0F5E06F06D8A06D8069B0F5005F05
:10D7100001D1012745E02068406820F400502168CD
:10D720004860E068B0F5E06F06D92068406820F4F2
:10D7300080502168486005E02068406840F48050CF
:10D74000216848601A48A16D08641A48A16DC86331
:10D750001948A16DC8640020A16D0865B4F8463071
:10D76000D4F800C00CF10C01226CA06DFDF7CDFEC9
:10D770002068006800F04000402805D0206800685C
:10D7800040F04000216808602068406840F02000B8
:10D79000216848602068406840F0010021684860C6
:10D7A00000BF00BF002084F85C0000BF384678E767
:10D7B000D9F9010803FA0108B1F9010810B50446C6
