:020000040800F2
:10000000F80E0320D1800108D9800108DB800108A7
:10001000DD800108DF800108E180010800000000A8
:100020000000000000000000000000001580010832
:10003000E58001080000000069800108DBDD01089F
:10004000EB800108EB800108EB800108EB800108E0
:10005000EB800108EB800108EB800108EB800108D0
:10006000EB800108EB800108EB8001085D8F01083F
:10007000EB800108EB800108EB800108EB800108B0
:10008000EB800108EB800108EB800108EB800108A0
:10009000EB800108EB800108EB8001082591010845
:1000A00009DF0108EB800108EB800108EB80010803
:1000B000EB800108EB800108EB800108EB80010870
:1000C000EB800108EB800108EB800108EB80010860
:1000D000EB8001089DE70108EB800108EB80010837
:1000E000EB800108EB800108EB800108EB80010840
:1000F000EB800108EB800108EB800108EB80010830
:10010000EB800108EB800108EB800108EB8001081F
:10011000EB800108EB80010815DF0108EB80010886
:10012000EB800108698F0108758F0108EB800108D9
:10013000818F0108F58F0108EB800108EB80010831
:10014000EB800108EB800108EB800108EB800108DF
:10015000EB8001088D8F0108998F0108EB80010861
:10016000EB800108EB800108EB800108EB800108BF
:10017000EB800108EB800108EB8001080000000023
:10018000EB800108EB800108EB800108EB8001089F
:10019000EB800108EB800108EB800108EB8001088F
:1001A000EB800108EB800108EB800108EB8001087F
:1001B000EB800108EB800108EB800108EB8001086F
:1001C000EB800108EB80010800000000EB800108D3
:1001D000EB800108EB800108EB800108EB8001084F
:1001E000EB800108EB800108EB800108EB8001083F
:0801F000EB800108EB8001081F
:020000040800F2
:108000000000000000000000000000000000000070
:108010000000000000000000000000000000000060
:108020000000000000000000000000000000000050
:108030000000000000000000000000000000000040
:108040000000000000000000000000000000000030
:020000040801F1
:1000000000000000000000000000000000000000F0
:1000100000000000000000000000000000000000E0
:1000200000000000000000000000000000000000D0
:1000300000000000000000000000000000000000C0
:1000400000000000000000000000000000000000B0
:020000040801F1
:10800000DFF80CD000F0B4FA0048004785380208C9
:10801000F80E03202B4B19680868B0E8F04F80F386
:108020000988BFF36F8F4FF0000080F3118870470D
:108030000000000006480068006880F3088862B607
:1080400061B6BFF34F8FBFF36F8F00DF00BF00BF7C
:1080500008ED00E0DFF80C00016841F470010160F8
:10806000704700BF88ED00E0EFF30980BFF36F8F2A
:10807000144B1A681EF0100F08BF20ED108A20E97B
:10808000F04F106008B44FF0500072B680F31188C2
:10809000BFF34F8FBFF36F8F62B611F03DFB4FF010
:1080A000000080F3118808BC19680868B0E8F04F38
:1080B0001EF0100F08BFB0EC108A80F30988BFF3E0
:1080C0006F8F704700000020EFF3058070470000BD
:1080D0000648804706480047FEE7FEE7FEE7FEE762
:1080E000FEE7FEE7FEE7FEE7FEE7FEE7A9DE0108A2
:1080F0000180010840EA01039B0703D009E008C999
:10810000121F08C0042AFAD203E011F8013B00F85C
:10811000013B521EF9D27047D2B201E000F8012BA8
:10812000491EFBD270470022F6E710B513460A46F7
:1081300004461946FFF7F0FF204610BD10B5002297
:1081400000E0521C835C8C5CA34201D1002BF8D16F
:10815000D8B2E1B2401A10BD30B504460020034643
:1081600000E05B1C934203D2E05CCD5C401BF8D086
:1081700030BD30B50B46014600202022012409E025
:1081800021FA02F59D4205D303FA02F5491B04FAD0
:1081900002F52844151EA2F10102F1DC30BD2DE9E3
:1081A000F05F0546002092469B468846064681467B
:1081B00040241BE0284641464746224600F0F9F994
:1081C00053465A46C01A914110D3114618462246CA
:1081D00000F0E0F92D1A67EB01084F462246012016
:1081E000002100F0D7F917EB00094E41201EA4F141
:1081F0000104DFDC484631462A464346BDE8F09F8D
:108200002DE9FE4F804681EA0300C00F0C46009026
:1082100021F0004123F00045B8EB0200A94105D24E
:108220004046214690461C460B46024623F000403D
:10823000104347D0270DC7F30A00C3F30A51029039
:10824000401A019040286BDAC3F3130040F4801BFE
:108250000098924620B10023D2EB030A63EB0B0B8C
:1082600001985946C0F14002504600F093F9064685
:108270000D4650465946019A00F0ABF910EB080044
:108280006141002487EA115284EAE7731A4340D01F
:10829000009A62B3019A012A4FEA075215DC001BCB
:1082A00061EB02014FF0004202EA0752CDE90042C1
:1082B000001C41F5801132462B4600F0ABF903B0AB
:1082C000BDE8F08F40462146F9E7001B61EB020153
:1082D000001C41F5801300185B412018A2F500171F
:1082E00047EB030140EAD570B6196D4111E06D0806
:1082F0004FEA360645EAC0754FEA0752001B61EBAC
:108300000201001C41F5801149084FEA30000019B4
:10831000514132462B4603B0BDE8F04F00F06BB937
:108320000098012240000023D0EB020263EBE073CF
:10833000009821464FEAE074B8EB000061EB0401BD
:10834000E9E783F000435BE781F0004158E72DE95E
:10835000FE4F81EA030404F0004421F00041009440
:108360004FF0000B23F0004350EA01045ED052EAC4
:1083700003045BD0C3F30A54C1F30A552C44A4F29E
:10838000F3340194A0FB0254C1F3130141F48011B2
:10839000C3F3130343F4801301FB024400FB034EB9
:1083A000840A970A44EA815447EA8357A4FB076882
:1083B00002958D0A05FB07854FEA932C04FB0C54AC
:1083C0002705029D4FEA065847EA1637B5EB080520
:1083D0006EEB070C870E920E47EA811742EA831272
:1083E000A7FB0201B6EB0B0164EB00042B0D43EA83
:1083F0000C335E1844EB1C50DA465146E7FB020191
:10840000C5F313044FEA0B3343EA14534FEA043223
:10841000019C43EA0603A4F10C040294009CCDE9FC
:1084200000B400F0F7F803B0BDE8F08F002001467B
:10843000F9E72DE9F04D81EA030404F0004B21F047
:10844000004514464FF0000A23F0004150EA0502AF
:1084500020D054EA01021DD0C5F30A570246C5F3E5
:108460001303C1F31300C1F30A5640F4801543F41B
:108470008013A7EB0608101BD64608F2FD3873EBF5
:10848000050002D308F1010801E092185B41B8F140
:10849000000F03DA00200146BDE8F08D00204FF404
:1084A0008011064684460EE0171B73EB050705D3C3
:1084B000121B63EB050306434CEA010C49084FEA23
:1084C000300092185B4150EA0107EDD152EA0300F7
:1084D00012D082EA040083EA0501084305D0101B8C
:1084E000AB4106D20122002306E000224FF00043F8
:1084F00002E06FF0010253101AEB06004CEB08513A
:1085000010EB0A0041EB0B01BDE8F04D00F073B831
:10851000C1F30A52C1F3130140F2FF3341F4801159
:108520009A4202DA00200146704740F233439A42F1
:10853000A2F2334202DC524200F03BB800F02AB80B
:1085400030B5041E71F1000404DB4FF000444042DA
:1085500064EB0101141E73F1000405DB1C464FF0AF
:108560000043524263EB0403994208BF904230BD7E
:10857000064C074D06E0E06840F0010394E8070070
:1085800098471034AC42F6D3FFF73EFD00B2020824
:1085900020B20208202A04DB203A00FA02F100206F
:1085A00070479140C2F1200320FA03F31943904031
:1085B0007047202A04DB203A21FA02F0002170479C
:1085C00021FA02F3D040C2F120029140084319463B
:1085D0007047202A06DBCB17203A41FA02F043EA23
:1085E000E07306E041FA02F3D040C2F1200291406C
:1085F00008431946704710B5141E73F1000408DAD9
:10860000401C41F1000192185B411A4301D120F056
:10861000010010BD2DE9F04D92469B4611B1B1FA13
:1086200081F202E0B0FA80F220329046FFF7B2FF0A
:1086300004460F4640EA0A0041EA0B0153465A46F7
:10864000084313D0114653EA010019D0C8F1400283
:108650005046FFF7AEFF05460E4650465946424685
:10866000FFF798FF084305D0012004E02046394673
:10867000BDE8F08D0020054346EAE0762C43374301
:108680000A986305E40AA0EB08000022FD0A44EA08
:1086900047540A3002D500200146E9E701051019C8
:1086A0006941DDE9084500196941BDE8F04DA2E7DF
:1086B00070B58C1810F8015B15F0070301D110F8A4
:1086C000013B2A1106D110F8012B03E010F8016BD1
:1086D00001F8016B5B1EF9D12B0705D40023521E54
:1086E0000DD401F8013BFAE710F8013BCB1A921CBC
:1086F00003E013F8015B01F8015B521EF9D5A142BA
:10870000D8D3002070BD00002DE9FF4F0026B6EB46
:10871000111F0E9F80F08A81DFF82093C84DDFF88B
:10872000248300BF90F800A0D5ED091AD5ED080A02
:108730004FEA5A0B6AF3CF326BF3CF3C4FEA9A0BF6
:108740004FEADA0A6BF3CF336AF3CF3490F801A023
:108750004FEA5A0B6AF38E326BF38E3C4FEA9A0B58
:108760004FEADA0A6BF38E336AF38E3490F802A084
:108770004FEA5A0B6AF34D326BF34D3C4FEA9A0BBA
:108780004FEADA0A6BF34D336AF34D3490F803A0E5
:108790004FEA5A0B6AF30C326BF30C3C4FEA9A0B1C
:1087A0004FEADA0A6BF30C336AF30C3490F804A046
:1087B0004FEA5A0B6AF3CB226BF3CB2C4FEA9A0B9E
:1087C0004FEADA0A6BF3CB236AF3CB2490F805A0C7
:1087D0004FEA5A0B6AF38A226BF38A2C4FEA9A0B00
:1087E0004FEADA0A6BF38A236AF38A2490F806A028
:1087F0004FEA5A0B6AF349226BF3492C4FEA9A0B62
:108800004FEADA0A6BF349236AF3492490F807A088
:108810004FEA5A0B6AF308226BF3082C4FEA9A0BC3
:108820004FEADA0A6BF308236AF3082490F808A0E9
:108830004FEA5A0B6AF3C7126BF3C71C4FEA9A0B45
:108840004FEADA0A6BF3C7136AF3C71490F809A06A
:108850004FEA5A0B6AF386126BF3861C4FEA9A0BA7
:108860004FEADA0A6BF386136AF3861490F80AA0CB
:108870004FEA5A0B6AF345126BF3451C4FEA9A0B09
:108880004FEADA0A6BF345136AF3451490F80BA02C
:108890004FEA5A0B6AF304126BF3041C4FEA9A0B6B
:1088A0004FEADA0A6BF304136AF3041490F80CA08D
:1088B0004FEA5A0B6AF3C3026BF3C30C4FEA9A0BED
:1088C0004FEADA0A6BF3C3036AF3C30490F80DA00E
:1088D0004FEA5A0B6AF382026BF3820C4FEA9A0B4F
:1088E0004FEADA0A6BF3820390F80FB06AF382045E
:1088F00090F80EA06AF341026BF300021FFA82FEA9
:1089000000EE10EA4FEA5A0EB8EE400A6EF3410C40
:108910004FEA5B0E40EE801A6EF3000C1FFA8CFEDD
:1089200000EE10EA4FEA9A0EC8ED001AB8EE400ABF
:1089300095ED0B1AD5ED0A0A6EF341034FEA9B0E33
:1089400000EE801A6EF300031FFA83FE00EE90EA39
:108950004FEADA0A88ED011AF8EE600A95ED0D0A81
:1089600095ED0C2A4FEADB0B6AF3410402EE200A74
:108970006BF300041FFA84FA00EE90AA88ED020A55
:10898000F8EE602AD5ED0F0A95ED0E2A42EE220A86
:1089900010EE90AAC8ED030ACA45B8BFC8ED040A94
:1089A00010DB10EE10AADFF8A0B0DA4508DB11EEFC
:1089B00010AADFF898B0D345D8BFC8ED041A01DD7E
:1089C00088ED040ADDF808B04FEA960A98ED040A2B
:1089D0000BEB4A0BDDF80CE087ED000A95ED110A70
:1089E000BBF800B0761C95ED101A00EE90BAB6B246
:1089F0001030F8EE600A01EE200A87ED010A88EDDA
:108A0000050A3EF81AA0D5ED130A00EE10AA95ED5E
:108A1000121AB8EE400A41EE000AC7ED020A0C37FE
:108A2000B6EB111FC8ED060AFFF47CAE0F9906EBFA
:108A30004600088004B0BDE8F08F00000000F04060
:108A4000A4C80220B443022000009642000016434E
:108A50002DE9F04F394887B035A1FFF76FFB374D4F
:108A60000028DFF8DC9008BFC9F8005055D0354821
:108A70002FA1FFF763FB002804BF3248C9F80000AC
:108A80004BD04FF0020A4FF000080127CDF80080CC
:108A900002974FF0150B2C4C284ECDE9037A02F0CB
:108AA000E9F805A9684601F0D7FF002808BF0025AE
:108AB00006D1226800230220314602F06DF830B161
:108AC00002F060F807B04FF0FF30BDE8F08F241DD2
:108AD0006D1C5D4506F10406EBDB02F053F8194806
:108AE000164CCDF810A0A042CDF8008014BFCDF8F0
:108AF00008A00297039702F0BDF805A9684601F0A7
:108B0000ABFF30B102F03EF807B04FF0FF30BDE8E8
:108B1000F08F02F037F8C9F8004050220B48D9F81E
:108B20000010FFF7E7FA07B00020BDE8F08F000063
:108B30004346475F534543544F52000000800008AE
:108B4000C00100200000010814AF0208A4C80220E0
:108B50002DE9F04FDFF8C4A08BB03148DAF80010EF
:108B600081420CBF2F4E2E4E2F4D00272C483446ED
:108B70004FF0150B4FF0020886424FF00109CDF877
:108B8000248005970CBFCDF81C90CDF81C80CDF843
:108B9000209002F06FF80AA905A801F05DFF0028F7
:108BA00008BF002706D12A6800230220214601F0D1
:108BB000F3FF30B101F0E6FF0BB04FF0FF30BDE83E
:108BC000F08F2D1D7F1C5F4504F10404EBDB01F0E9
:108BD000D9FFDAF80010002005901148CDF8248064
:108BE000814214BFCDF81C80CDF81C90CDF82090A8
:108BF00002F040F805A8694601F02EFF30B101F0FF
:108C0000C1FF0BB04FF0FF30BDE8F08F01F0BAFFAD
:108C1000CAF800600BB00020BDE8F08FC001002052
:108C20000080000800000108A4C8022001480021BB
:108C300004F0DBB9E8BA01200148002104F0F5B9DD
:108C4000E8BA01200149D1E906017047A0010020DE
:108C500070B5254C00220821204602F05CF9234D16
:108C600000221021284602F056F901222846202130
:108C700002F051F900222846402102F04CF901226D
:108C80002846802102F047F901222046042102F003
:108C900042F903220021012011F084F814490860F0
:108CA00020B100231A46194611F046FA1148407FB8
:108CB00000F05AF8104A0121104801F0D9F9104A81
:108CC00000210E4801F0D4F90E4803F045FE0E488D
:108CD00003F042FEBDE870400C4A00210C484FF4FE
:108CE000FA5300F05BBB000000080240000C024099
:108CF000A0010020A4C80220918E0108D8BC012048
:108D0000F58E010868BB0120A8BB0120A44B0220FE
:108D10006CB9012070B50E4C00222068D0F800C05C
:108D20000C4D0D4E2CF0010CC0F800C02A603260D2
:108D300000210A484FF4FA53C0E90622084A0948BC
:108D400000F02CFB2068016841F00101016070BD5A
:108D5000D8BC0120240C004024080040A0010020C1
:108D6000A44B02206CB90120194B00221949042898
:108D70004FF0040C30B426D2DFE800F002080E1FDA
:108D80000A20486042F62F205A770CE04FF0010C81
:108D900042F62F204A6004E04FF0020C41F21750D7
:108DA0004A6083F81DC04FF080430B60C1E9022088
:108DB0000A6130BC074803F018BD4FF0030C40F6C1
:108DC0006F004A60EDE740F237404A60E9E7000093
:108DD000A4C80220E8BA012010B5806B816C496DEF
:108DE000022906D0012180F83510C16C41F0400104
:108DF000C16400F001FA10BD10B5816B0C468A6B9E
:108E0000886C016802B30A68A36B02F4002213F0B5
:108E1000010F0BD152B1C968E26B01EBC201002214
:108E200000F028FBA06B401EA0631EE00A6812F44D
:108E3000002F1AD10969E26B01EBC201012200F097
:108E400019FBA06B401E0FE0086810F4002F0DBF47
:108E50000868606CC86010F4002F06D1E26B606C8B
:108E600000EB82000861206CA063A06B216C88423B
:108E700018BF10BD2068C16841F00101C1602068C1
:108E8000006810F0020F1CBF012084F8350010BDEF
:108E900070B5134C00201349134AE060096812684A
:108EA00005040B0445EA114108431A4304F10C017F
:108EB000C4E906200D4860616068401C606020685D
:108EC00011F062FBE068012818BF70BD4FF08050C0
:108ED00007490860BFF34F8FBFF36F8F70BD00006D
:108EE000A0010020240C004024080040A44B0220D4
:108EF00004ED00E070B5144C00201449144B2061BF
:108F00000A6819680604DFF84CC01304C4F814C0DA
:108F100046EA124210431943C4E90610A06804F15E
:108F20001001401CA060206811F02EFB2069012870
:108F300018BF70BD4FF0805007490860BFF34F8FD6
:108F4000BFF36F8F70BD0000A0010020240C004013
:108F500024080040248A022004ED00E0014800F0CB
:108F6000DBBE000038BD0120014800F0D5BE000086
:108F7000D8BC0120014800F0CFBE000058BE01203F
:108F8000014800F0C9BE000098BD0120014800F072
:108F9000C3BE0000F8BD0120014800F0BDBE0000C6
:108FA000B8BE012006480122802110B501F0B3FFB0
:108FB00000220448BDE81040202101F0ACBF0000B1
:108FC0000010024000140240074A10B5C2E9000137
:108FD00006480022202101F09EFFBDE81040024912
:108FE0000822034803F022BBD001002000140240F5
:108FF00020BA0120014801F09EB9000024B90120E7
:109000002DE9F041044621B14FF40061C800C4E9E4
:109010000201E069002500280CBF4FF4806028465B
:109020003C4B40262268D4E9021C176841EA0C0137
:10903000084307EA030140F4007008431060206809
:109040000768012001F090F82068076020684660FA
:1090500020684668012001F087F820684FF64172C9
:109060004660206885602068C5602068816911407D
:1090700041F08001816120688669012001F074F867
:10908000206886612068C5612068C569012001F0FB
:109090006BF82068204AC561206800F5805081691E
:1090A000114041F0040141F008718161206800F530
:1090B00080508569012001F057F82168174801F5B3
:1090C00080518D61216801F580510860206800F5AC
:1090D00080500568012001F047F8206800F58050B5
:1090E0000560A069012808D1206800F58050C16999
:1090F00041F0400141F48031C1616069084A8188D2
:1091000011640178D0F8010041EA00205064BDE804
:10911000F08100000F8120FF233FDEF88020C10294
:10912000008002404FF4007001F0BCBDFEE700007B
:109130002DE9F0412A4E04460020B06101F0F0FE16
:10914000284D0746286810F4803F0FD0B4F1FF3F48
:1091500008D024B101F0E4FEC01BA04202D90320D4
:10916000BDE8F081286810F4803FEFD1286810F046
:10917000F20F28682BD010F0020F03D0B06940F036
:109180002000B061286810F0100F03D0B06940F0E3
:109190001000B061286810F0200F03D0B06940F0D3
:1091A0000800B061286810F0400F03D0B06940F0AB
:1091B0000400B061286810F0800F03D0B06940F05F
:1091C0000200B061F22028600120BDE8F08110F0BB
:1091D000010F1CBF012028600020BDE8F0810000C5
:1091E000688801200C3C024010B5FFF7B1FCBDE8D7
:1091F0001040002010F062B970470000002804BF42
:109200000120704770B5044690F83500002804BF6F
:10921000204600F057F8022084F8350020682849DD
:10922000026811400160201D626990E80B10104334
:10923000A26943EA0C03034304F120000B4343EA11
:10924000020C0FC84CEA000C20684CEA010C216BA0
:109250004CEA0202D0F800C01A43114341EA0C0163
:109260000160606810281ED14FF47F40A17F4FF04D
:109270007F4C257F90FAA0F20302607FB2FA82F25F
:1092800093FAA3F39CFAACF694F81FC09040B3FA9B
:1092900083F32268B6FA86F699400CFA06F328435F
:1092A000194308439061206800220121C36843F0FC
:1092B0001E03C360E26484F83510104670BD0000E0
:1092C00007F0E0FFF0B50646006887B0A0F1A041C6
:1092D000B1F5A0211CBF07B0F0BD2948016841F0DD
:1092E00001010160006800250D27694600F00100BA
:1092F00005907020009002242248CDE90145CDE977
:10930000035701F0DBFC50200090CDE901451E48D9
:109310006946CDE9035701F0D1FC4FF4707000901D
:10932000CDE9014519486946CDE9035701F0C6FC6E
:10933000C0200090CDE9014515486946CDE90357A5
:1093400001F0BCFC144F4FF0007C124C3815276024
:109350008310C4E901C5C4E903500201810020461D
:10936000C4E907356562C4E9051200F0C3FD0028B1
:1093700018BFFFF7DBFEB464A66307B0F0BD0000C2
:109380003438024000100240000002400008024051
:1093900000040240D8BC01202864024038B50446CD
:1093A00090F83400012804BF022038BD01204FF09E
:1093B000020C84F8340084F835C0D4F800C0DCF81E
:1093C000005045F48045CCF80050D4F800C0DCF8DB
:1093D000005025F00205CCF80050D4F800C0DCF8AD
:1093E00000502943CCF80010D4F848C000251F498C
:1093F000B3F5803FCCF84C10A16C0D65A5632564D6
:1094000005D22168A06C283100F060FE24E0A16C38
:10941000DFF85CC0C1F844C0A063E3636264E06B42
:10942000B0F5803F09D3E06B4008E063A06B4000DB
:10943000A063E06BB0F5803FF5D2A06B801EA06307
:10944000A16BE36BE06B2164009002EB8303216866
:10945000A06C283100F016F82068016841F0010185
:109460000160002084F8345038BD0000D98D010817
:10947000F98D01080068002A0CBFC160016100205D
:10948000704700002DE9F84F85680024DDF828C0FA
:10949000802D009415D090F83440012C04BF022098
:1094A000BDE8F88F90F835600125002480F834502D
:1094B000012E0CD00221009180F834400098BDE8C4
:1094C000F88F4FF4807141650120BDE8F88F0225C7
:1094D00080F8355044650468256845F4802525608A
:1094E000046823610368C3F804C08368402B0368E1
:1094F0001DBF99600168CA609A6004BF0268D160AC
:10950000DFF8E0C30168F84AF84B6145DFF8E0C3D3
:10951000F84CF94DF94EFA4FDFF8E883DFF8E8939D
:10952000DFF8E8A3DFF8E8B325D9914218BF9942E4
:1095300003D0614518BFA14201D1202118E0A94202
:1095400018BFB14203D0B94218BF414502D14FF410
:1095500000610DE0494518BF514507D059451EBF70
:10956000DFF8B0E371454FF0006101D14FF4001115
:10957000DFF8A4E328E0DFF8A4E3714527D991429E
:1095800018BF994203D0614518BFA14201D12021E3
:1095900018E0A94218BFB14203D0B94218BF4145F3
:1095A00002D14FF400610DE0494518BF514507D085
:1095B00059451EBFDFF85CE371454FF0006101D1F2
:1095C0004FF40011DFF858E3CEF8001052E0DFF856
:1095D00054E3714527D9914218BF994203D06145A0
:1095E00018BFA14201D1202118E0A94218BFB14201
:1095F00003D0B94218BF414502D14FF400610DE0DC
:10960000494518BF514507D059451EBFDFF804E34F
:1096100071454FF0006101D14FF40011DFF808E30C
:10962000CEF80C1026E0914218BF994203D0614554
:1096300018BFA14201D1202118E0A94218BFB142B0
:1096400003D0B94218BF414502D14FF400610DE08B
:10965000494518BF514507D059451EBFDFF8B4E250
:1096600071454FF0006101D14FF40011DFF8B8E20D
:10967000CEF80810DFF86CE20168714525D99142F7
:1096800018BF994203D0614518BFA14201D11021F2
:1096900018E0A94218BFB14203D0B94218BF4145F2
:1096A00002D14FF480610DE0494518BF514507D004
:1096B00059451EBFDFF85CE271454FF0806101D172
:1096C0004FF48011DFF850E228E0DFF850E27145F6
:1096D00027D9914218BF994203D0614518BFA142D2
:1096E00001D1102118E0A94218BFB14203D0B942FC
:1096F00018BF414502D14FF480610DE0494518BFC4
:10970000514507D059451EBFDFF808E271454FF0BB
:10971000806101D14FF48011DFF804E2CEF800102F
:1097200052E0DFF800E2714527D9914218BF994213
:1097300003D0614518BFA14201D1102118E0A94210
:1097400018BFB14203D0B94218BF414502D14FF40E
:1097500080610DE0494518BF514507D059451EBFEE
:10976000DFF8B0E171454FF0806101D14FF4801115
:10977000DFF8B4E1CEF80C1026E0914218BF994210
:1097800003D0614518BFA14201D1102118E0A942C0
:1097900018BFB14203D0B94218BF414502D14FF4BE
:1097A00080610DE0494518BF514507D059451EBF9E
:1097B000DFF860E171454FF0806101D14FF4801115
:1097C000DFF864E1CEF80810DFF818E101687145B0
:1097D00025D9914218BF994203D0614518BFA142D3
:1097E00001D1082118E0A94218BFB14203D0B94203
:1097F00018BF414502D14FF400710DE0494518BF33
:10980000514507D059451EBFDFF808E171454FF0BB
:10981000007101D14FF40021DFF8FCE028E0DFF80F
:10982000FCE0714527D9914218BF994203D06145A8
:1098300018BFA14201D1082118E0A94218BFB142C6
:1098400003D0B94218BF414502D14FF400710DE079
:10985000494518BF514507D059451EBFDFF8B4E050
:1098600071454FF0007101D14FF40021DFF8B0E0F5
:10987000CEF8001077E0DFF8ACE0714527D99142CF
:1098800018BF994203D0614518BFA14201D10821F8
:1098900018E0A94218BFB14203D0B94218BF4145F0
:1098A00002D14FF400710DE0494518BF514507D072
:1098B00059451EBFDFF85CE071454FF0007101D1E2
:1098C0004FF40021DFF860E0CEF80C104BE091423D
:1098D00018BF994203D0614518BFA14226D1082183
:1098E0003DE00000586402401060024010640240F5
:1098F00070600240706402402860024028640240A8
:109900008860024088640240406002404064024037
:10991000A0600240A06402400C640240B8600240B3
:10992000086402405860024000600240A94218BF2B
:10993000B14203D0B94218BF414502D14FF4007182
:109940000DE0494518BF514507D059451EBFDFF806
:10995000D8E271454FF0007101D14FF40021DFF8DA
:10996000CCE2CEF80810DFF8C8E20168714525D9CD
:10997000914218BF994203D0614518BFA14201D15D
:10998000AC4918E0A94218BFB14203D0B94218BF90
:10999000414502D14FF480710DE0494518BF514552
:1099A00007D059451EBFDFF880E271454FF0807146
:1099B00001D14FF48021DFF880E228E0DFF87CE27B
:1099C000714527D9914218BF994203D0614518BF0C
:1099D000A14201D1974918E0A94218BFB14203D072
:1099E000B94218BF414502D14FF480710DE049459D
:1099F00018BF514507D059451EBFDFF82CE271450D
:109A00004FF0807101D14FF48021DFF834E2CEF8BD
:109A1000001052E0DFF82CE2714527D9914218BFBF
:109A2000994203D0614518BFA14201D1814918E094
:109A3000A94218BFB14203D0B94218BF414502D173
:109A40004FF480710DE0494518BF514507D0594585
:109A50001EBFDFF8D4E171454FF0807101D14FF4A2
:109A60008021DFF8C8E1CEF80C1026E0914218BF43
:109A7000994203D0614518BFA14201D16D4918E058
:109A8000A94218BFB14203D0B94218BF414502D123
:109A90004FF480710DE0494518BF514507D0594535
:109AA0001EBFDFF884E171454FF0807101D14FF4A2
:109AB0008021DFF878E1CEF80810DFF874E1016862
:109AC000714522D9914218BF994203D0614518BF10
:109AD000A14201D15C4916E0A94218BFB14203D0AE
:109AE000B94218BF414501D140210CE0494518BF9A
:109AF000514506D059451EBF4B4A91424FF4800153
:109B000001D14FF480314C4A25E0DFF830E1714556
:109B100023D9914218BF994203D0614518BFA14291
:109B200001D1494916E0A94218BFB14203D0B94258
:109B300018BF414501D140210CE0494518BF5145AE
:109B400006D059451EBF384A91424FF4800101D1D9
:109B50004FF480313A4A11604AE0DFF8E8E071459D
:109B600023D9914218BF994203D0614518BFA14241
:109B700001D1354916E0A94218BFB14203D0B9421C
:109B800018BF414501D140210CE0494518BF51455E
:109B900006D059451EBF244A91424FF4800101D19D
:109BA0004FF48031214AD16022E0914218BF99429E
:109BB00003D0614518BFA14201D1234916E0A94253
:109BC00018BFB14203D0B94218BF414501D140216D
:109BD0000CE0494518BF514506D059451EBF124AF1
:109BE00091424FF4800101D14FF480310F4A9160CE
:109BF00001680A6842F016020A6001684A6942F088
:109C000080024A61016C002904BF816C002904D0E4
:109C100001680A6842F008020A600068016841F0C1
:109C2000010101604AE40000A064024000600240BB
:109C300058640240040080000C640240B860024096
:109C40000864024058600240010080002DE9F041A4
:109C5000876D044601F064F9054694F83500002646
:109C6000022806D080206065012084F83460BDE8B9
:109C7000F0812068016821F01601016020684169C7
:109C800021F080014161206C002804BFA06C0028F5
:109C900004D02068016821F0080101602068016893
:109CA00021F0010101602068006810F0010F12D05E
:109CB00001F036F9401B052808D9202161650320F1
:109CC00084F8346084F83500BDE8F08120680068CD
:109CD00010F0010FECD194F85C103F22012002FA41
:109CE00001F1B96084F8346084F835000020BDE8E3
:109CF000F08190F83510022903D0802141650120C0
:109D00007047052180F835100068016821F00101D5
:109D100001600020704700002DE9F8430446724AB4
:109D2000002700970821A56D4FF4165094F85C3079
:109D300012682E68B2FBF0F801FA03F3334211D037
:109D40002068026812F0040F0CD0026822F00402AE
:109D5000026094F85C0001FA00F0A860606D40F0C9
:109D60000100606594F85C1060488840304209D07A
:109D70002168496911F0800F04D0A860606D40F03F
:109D80000200606594F85C1059488840304209D060
:109D90002168096811F0020F04D0A860606D40F0DE
:109DA0000400606594F85C1010208840304220D098
:109DB0002168096811F0080F1BD0A86020680168AD
:109DC00011F4802F09D0006810F4002F02D0A16C8C
:109DD00079B10CE0216C51B90BE0016811F4807F7E
:109DE00003D1016821F008010160216C09B120460E
:109DF000884794F85C1020204FF0010988403042D9
:109E000049D02168096811F0100F44D0A86094F877
:109E1000350005282068016809D011F4802F2AD068
:109E2000006810F4002F23D0E16B19B331E021F06A
:109E3000160101602068416921F080014161206CB8
:109E4000002804BFA06C002804D02068016821F01D
:109E50000801016094F85C003F2101FA00F0A8605D
:109E600084F8347084F83590216DC1BBBDE8F88367
:109E7000616C71B90FE0016811F4807F07D101684E
:109E800021F01001016084F8347084F83590E16BA2
:109E900009B120468847606D002808BFBDE8F883F7
:109EA000606D10F0010F15D0052084F83500206892
:109EB000016821F0010101600098401C00904045BC
:109EC00004D82068006810F0010FF5D184F83470D0
:109ED00084F83590E16C002908BFBDE8F88320467E
:109EE00001B0BDE8F04308474401002001008000B4
:109EF000040080002DE9F047044601F011F8002C21
:109F0000054604BF0120BDE8F0870026022084F842
:109F1000346084F835002068016821F00101016097
:109F20002068006810F0010F11D000BF00F0F8FFAA
:109F3000401B052806D920216165032084F83500DF
:109F4000BDE8F0872068006810F0010FEED1D4E979
:109F5000023CD4E90010D4E9047218434CEA070823
:109F6000D4E90653D4E908C740EA0809086849EA71
:109F70000202DFF8F0802A4342EA030200EA080006
:109F800042EA0C02042F42EA000003D1D4E90B2379
:109F90001A431043086023680122606A5969042843
:109FA00021F0070140EA010142D1A06AD4F818C0AB
:109FB0000143BCF1000F0AD0BCF5005F1CD00028A3
:109FC0001CBF012802282CD0032826D030E020B165
:109FD000012807D002280AD02AE0E06A10F0807F2A
:109FE0001FD125E0E06AB0F1C07F21D119E0E06A1D
:109FF00010F0807F15D11BE098B1012808D002280D
:10A000000FD0032804BFE06AB0F1C07F09D00FE091
:10A01000E06A10F0807F04D10AE0E06A10F0807FEF
:10A0200006D04020606584F835200120BDE8F08727
:10A03000596120680C49C3B2103B6FF30900A1FBC2
:10A0400003310A4B090903295B5CE36588BF001DE6
:10A050003F21A06599408160666584F83520002025
:10A06000BDE8F0873F8010E0ABAAAAAAA8AE02081C
:10A0700090F834C00023BCF1010F04BF02207047E8
:10A080004DF8044D90F835404FF0010C80F834C085
:10A09000012C18BF012306D0002180F834105DF890
:10A0A000044B184670470629F6D2DFE801F0030595
:10A0B00007090B0DC263EFE70264EDE74264EBE7CB
:10A0C0008264E9E7C264E7E70265E5E7F0B490F887
:10A0D00034404FF0000C012C846D02BF0220F0BC14
:10A0E000704790F83570012680F834600025012F04
:10A0F0001CBF4FF0020C80F8345002D0F0BC604618
:10A100007047022680F83560456505682E6826F49C
:10A1100080262E6005686B608368402B036803BF50
:10A120009A600268D16099601CBF0168CA6090F8AB
:10A130005C103F2202FA01F1A16001680A6842F056
:10A1400016020A6001684A6942F080024A61016CA5
:10A1500021B101680A6842F008020A6000680168DB
:10A1600041F001010160C9E731B500F0D9FE0446B4
:10A1700000F0D6FE0099001B8842F9D338BD0000DC
:10A180002DE9F00390F845C00024BCF1010F02BF97
:10A190000220BDE8F00370474FF001098162002BF7
:10A1A00080F845904FF0020C80F844C01DD9A3F10F
:10A1B000010644F2F4554FF0004700BFC4EBC41849
:10A1C00001EB441C08EB480802EB8808CCF800704F
:10A1D000B442CCE901583ABF0CF12008CCF80C800D
:10A1E000CCF80C10641C9C42E8D30368002203F5F1
:10A1F0008053D96080F8449080F845201046BDE82F
:10A20000F00370472DE9F00390F845C00024BCF13D
:10A21000010F02BF0220BDE8F00370474FF00108B4
:10A22000C162002B80F845804FF0020C80F844C0DA
:10A2300084BF5D1E4FF480161FD900BFC4EBC41C41
:10A240000CEB4C0701EB441C02EB8707CCF80060D9
:10A25000CCF80870C7692FB9DCF8007047F44009E2
:10A26000CCF80090AC423ABF0CF12007CCF80C704F
:10A27000CCF80C10641C9C42E0D30368002203F568
:10A280008053196180F8448080F845201046BDE86D
:10A29000F0037047704790F845100022012904BF71
:10A2A000022070474DF8044D4FF0010C80F845C076
:10A2B000022180F8441000242EE00B68521C03F4A5
:10A2C0004073B3F5007F1CD00B6813F4407F1ED0A1
:10A2D000826B521C012AC0E90D1208BF01630A6893
:10A2E000C2F30D42121FC263026B92680264C96816
:10A2F000816280F844C080F8454000205DF8044B3E
:10A300007047C0F838C00163C968816204E0836B9C
:10A310005B1C8363C9688162816A0B6813F0004F1C
:10A3200001D1042AC9D380F844C080F845400120F7
:10A330005DF8044B704770B504460068002500F5D1
:10A3400080500126416911F0400F0CD0204600F0EA
:10A350004FFA2168402001F58051486184F844603B
:10A3600084F845500EE0406910F0010F0AD02046F5
:10A3700000F030FB206800F58050466184F84460AE
:10A3800084F845504FF48030216801F580514861D0
:10A39000206800F58050406910F4004F08BF70BD80
:10A3A0002046FFF777FF21684FF4004001F5805108
:10A3B000486184F8446084F8455070BD2DE9F04F41
:10A3C00085B04FF000050400029502BF012005B0E2
:10A3D000BDE8F08F94F8440020B9204684F8455039
:10A3E00000F064F9A748016841F480410160006809
:10A3F00000F480400090A448016821F4000101604D
:10A400000268216A11430160206800F580500168EC
:10A4100041F00101016000F083FD0646206800F56F
:10A420008050006810F0010F15D000BF00F078FDDB
:10A43000801BB0F5FA7F07D9032084F8440084F824
:10A44000455005B0BDE8F08F206800F580500068E9
:10A4500010F0010FEAD12068006920F01C0601F01D
:10A4600019FB8A4A8A4902448A4238BF46F00806E4
:10A4700015D3884A884902448A4238BF46F00C0600
:10A480000DD38649864A0144914208D38549864ABC
:10A490000844904234BF46F0040646F01006206897
:10A4A000066100214FF40042204600F095FA002892
:10A4B0004FF001067CD1FF20FFF756FE60680028B0
:10A4C00077D000F02DFD4FF4784A81464FF0820B93
:10A4D00041F2883794F8440082282CD084F844B0A4
:10A4E0002068228A01690AEAC22201F01C01114394
:10A4F00021F0020141F04108C0F8108000F010FD89
:10A5000018F0010F054610D000F00AFD401BB0F511
:10A51000803F05D3002084F8446084F845000AE0B9
:10A520002068006910F0010FEED12068406980B208
:10A53000029084F8446000F0F3FCA0EB0900B842FC
:10A5400009D901212046FEF75BFD002084F8446014
:10A5500084F8450052E0029810F0040FBAD00021B0
:10A5600020464FF4805200F037FA002871D100F0F5
:10A57000D7FC80464FF0000B94F8440082282FD07F
:10A58000822084F844002168228A08690AEAC222EB
:10A5900000F01C00104320F0020040F04109C1F817
:10A5A000109000F0BDFC19F0010F054612D001E03B
:10A5B0004FE043E000F0B4FC401BB0F5803F04D313
:10A5C00084F8446084F845B00AE02068006910F01F
:10A5D000010FECD12068406980B2029084F8446099
:10A5E00000F09EFCA0EB0800B8420BD901212046E8
:10A5F000FEF706FD84F8446084F845B005B00320FA
:10A60000BDE8F08F029810F0200FB5D01021204641
:10A6100002AA00F0A7F8E0B9029810F0040F1ABFE0
:10A620004FF40061E160C4F80CB010F0020F12BFEB
:10A63000C4F808B04FF48040A06018E0D4E90210DC
:10A64000C00840EA510082B22046002100F0C4F95F
:10A6500048B101212046FEF7D3FC84F8446005B0E0
:10A660000120BDE8F08F40F6FF70FFF77DFD00216F
:10A670002046FEF7C5FC84F8446005B00020BDE824
:10A68000F08F0000443802400438014000D3CEFE71
:10A69000C0E1E40040F1E9FD40787D0100796CFC07
:10A6A000005A6202001F0AFA80F0FA02F0B5006850
:10A6B00087B0A0F18041B1F520311CBF07B0F0BDDB
:10A6C0002348016841F000710160016801F00071E8
:10A6D0000591016841F080610160016801F08061CD
:10A6E0000591016841F000610160006802240025C5
:10A6F000694600F00060059003260B2732208DE8A4
:10A70000F100144800F0DAFA862069468DE8F1007D
:10A71000114800F0D3FA200369468DE8F1000F4894
:10A7200000F0CCFA4FF420506946CDE900040C4803
:10A73000CDE90256049700F0C1FA002205213D2020
:10A7400000F05AFC3D2000F04BFC07B0F0BD0000CB
:10A75000303802400008024000000240000402407D
:10A76000001802402DE9F041044690F844001746D5
:10A77000822804BF0220BDE8F08182204FF4784394
:10A7800084F844005A11206802EA8112B4F810C01B
:10A79000016903EACC2301F01C011943114321F0A4
:10A7A000020141F00106066100F0BAFB16F0010F4C
:10A7B00005464FF0010612D000F0B2FB401BB0F589
:10A7C000803F07D3002084F8446084F845000320CC
:10A7D000BDE8F0812068006910F0010FECD120681D
:10A7E000406980B2386084F844600020BDE8F081A0
:10A7F000014800680AF078BA48010020F8B504461C
:10A8000090F84500012804BF0220F8BD0125022070
:10A8100084F8455084F8440000262068016841F01F
:10A82000080101602068006800902846FFF79CFC42
:10A830002168009808602068016841F00401016007
:10A840002068006800900120FFF78EFC21680098C6
:10A850000860206800F58050816941F480118161B1
:10A86000206800F58050806900900120FFF77CFC93
:10A87000206800F5805100988861206800F58050BC
:10A88000816941F400518161206800F5805081693F
:10A8900041F00201816184F84450002084F8456051
:10A8A000F8BD90F845200023012A04BF022070471C
:10A8B0002DE9F001012780F84570022280F844203C
:10A8C0004FF0000679B1D0F82CC0DCF8002012F06F
:10A8D000004F10D0122180F8441080F8456001200C
:10A8E000BDE8F001704780F8447080F845600120B1
:10A8F000BDE8F001704740F2F455A94221D9B1FBFF
:10A90000F5F205FB1214B1FBF5F2002C18BF521C36
:10A91000012A16D0002A48D9C2F10104A2F1010C83
:10A92000C4EBC41404EB440401EB8401C1F30C0434
:10A93000C16AD1F8008028F04058C1F80080D3B92E
:10A9400012E0DCF80020C1F30C0142F04052CCF8D8
:10A950000020C26A5160C16A0A6842F000420A607F
:10A96000C16AC968C16220E0C16AD1F8008048F0BC
:10A970008058C1F80080C16A63454D6008D1C16A42
:10A98000D1F8008048F00058C1F80080C16A4C60DE
:10A99000C16AD1F800805B1C934248F00048C1F8BE
:10A9A0000080C16AC968C162C3D3016801F58051E2
:10A9B0004A6912F0040F05D004224A61016801F5CA
:10A9C00080514E6080F8447080F845600020BDE8FA
:10A9D000F00170477047000070B5044690F84400DD
:10A9E000422804BF022070BD42204FF4784384F80F
:10A9F00044001FFA82FC20685E11258A06EA811253
:10AA00000169C0F814C003EAC52301F01C002168E5
:10AA10001843104340F003060E6100F081FA16F06F
:10AA2000010F05464FF0010612D000BF00F078FA82
:10AA3000401BB0F5803F06D3002084F8446084F8C2
:10AA40004500032070BD2068006910F0010FEDD1B2
:10AA500084F84460002070BD2DE9F047474F06465A
:10AA60008846387D012804BF0220BDE8F087012018
:10AA700038754CF25030FEF75BFB00287AD1411E4E
:10AA8000C8F8001031683E4C012943D0D6E9025184
:10AA90002944A94288BF4FF0F8096BD9317C284678
:10AAA00011F0FF024FF000010AD0012A08BF4FF455
:10AAB000807105D0022A0CBF4FF400714FF4407131
:10AAC0000B2888BF281D226899FAA9F322F4407246
:10AAD00022602268B3FA83F398401143216040F06A
:10AAE0000200216821F0F8012160216808432060FC
:10AAF000206840F480302060BFF34F8F4CF250301C
:10AB0000FEF716FB216821F0FA01216060B3C8F856
:10AB100000502FE0317C70682268032822F44072D4
:10AB200022601BD0022820680CBF40F4004040F097
:10AB30000400206022684FF4803040EA0120104376
:10AB40002060BFF34F8F4CF25030FEF7F1FA2168CE
:10AB500021F0040121F4004121600BE0226848F259
:10AB6000040010432060E5E7D6E902216D1C114482
:10AB7000A94293D800213975BDE8F0876888012083
:10AB8000103C02400348016841F000410160002090
:10AB900070470000103C02402DE9F047334F8146DA
:10ABA000154698460E46387D012804BF0220BDE8B0
:10ABB000F087012038754CF25030FEF7B9FA0028C2
:10ABC00050D12B4CB9F1000F09D0B9F1010F12D0BF
:10ABD000B9F1020F1FD0B9F1030F2AD03AE0206873
:10ABE00020F44070206020682060206840F0010060
:10ABF000206035700CE0206820F4407020602068F0
:10AC000040F480702060206840F0010020603580B2
:10AC1000BFF34F8F1EE0206820F440702060206852
:10AC200040F400702060206840F001002060356032
:10AC30000EE0206820F440702060206840F44070EE
:10AC40002060206840F0010020603560C6F8048074
:10AC5000BFF34F8F4CF25030FEF76AFA216821F0B3
:10AC60000101216000213975BDE8F0876888012065
:10AC7000103C02400648006810F0004F04BF01205D
:10AC8000704704480449054A01600260002070478B
:10AC9000103C0240043C024023016745AB89EFCDE4
:10ACA0007047000004490A68024208BF704710B5A7
:10ACB0000860FFF7F5FF10BD143C01402DE9F84F87
:10ACC0008D4E002201274FF003094FF00F0800BFFF
:10ACD0000B6807FA02FC03EA0C03634540F00681A7
:10ACE0004C68022C18BF122C12D1D408D1F810B025
:10ACF0004FEA427A00EB8404256A4FEADA6A08FADE
:10AD00000AFE0BFA0AFA25EA0E054AEA050525624B
:10AD100091F804B05400D0F800A00BF0030B09FA2E
:10AD200004F50BFA04FB2AEA050A4BEA0A0AC0F802
:10AD300000A0D1F804A0BAF1010F18BFBAF1020FB8
:10AD400005D0BAF1110F18BFBAF1120F19D1D0F80E
:10AD500008A0D1F80CB02AEA050A0BFA04FB4BEA6A
:10AD60000A0AC0F808A0D0F804A091F804B02AEAB2
:10AD70000C0CCBF3001B0BFA02FA4AEA0C0CC0F8DD
:10AD800004C0D0F80CC0D1F808A02CEA050C0AFACF
:10AD900004F444EA0C0CC0F80CC0D1F804C01CF058
:10ADA000805F7CD0356822F0030C940745F4804521
:10ADB0003560240F35680CF1804C0CF5983C05F497
:10ADC0008045009508FA04FADCF80858A0F1804B99
:10ADD000BBF5003B25EA0A0508BF4FF0000A48D042
:10ADE000A0F1804ABAF5013A08BF4FF0010A40D0FD
:10ADF000A0F1804ABAF5023A08BF4FF0020A38D0F3
:10AE0000A0F1804ABAF5033A08BF4FF0030A30D0E8
:10AE1000A0F1804ABAF5043A08BF4FF0040A28D0DE
:10AE2000A0F1804ABAF5053A08BF4FF0050A20D0D4
:10AE3000A0F1804ABAF5063A08BF4FF0060A18D0CA
:10AE4000A0F1804ABAF5073A08BF4FF0070A10D0C0
:10AE5000A0F1804ABAF5083A08BF4FF0080A08D0B6
:10AE6000A0F1804ABAF5093A0CBF4FF0090A4FF039
:10AE70000A0A0AFA04FA214C4AEA0505CCF80858ED
:10AE80004D68D4F800C015F4803F2CEA030C18BFBD
:10AE90004CEA030C1A4DC4F800C04C6800E025E0F1
:10AEA000D5F800C014F4003F2CEA030C18BF4CEA9C
:10AEB000030CDFF850A0C5F800C04C68DAF800C0F9
:10AEC00014F4801F2CEA030C18BF4CEA030C0E4C40
:10AED000CAF800C04D68D4F800C015F4001F2CEA71
:10AEE000030C18BF4CEA030CC4F800C0521C102A13
:10AEF000FFF4EEAEBDE8F88F44380240003C01405C
:10AF0000043C0140083C01400C3C01400069084001
:10AF100018BF01207047002A08BF090481617047EB
:10AF200001480068704700004001002002480168A5
:10AF3000491C01607047000040010020074810B51F
:10AF4000016841F400710160032000F085F80F20D2
:10AF500000F006F800F018F8002010BD003C024098
:10AF6000084A10B504464FF47A701268B2FBF0F04C
:10AF700001F0F6FB00222146501E00F03DF80020B3
:10AF800010BD000044010020032010B500F064F85B
:10AF900000226FF00B00114600F02EF800226FF037
:10AFA0000A00114600F028F800226FF0090011464F
:10AFB00000F022F80022501F114600F01DF8002278
:10AFC000101F114600F018F800220F21901E00F00B
:10AFD00013F800220F21BDE81040501E00F00CB8FD
:10AFE000410900F01F008A00012102F1E02201FA6C
:10AFF00000F0C2F800017047164B30B41B68C3F371
:10B000000223C3F1070CBCF1040F88BF4FF0040CFE
:10B010001C1D072C34BF0023DB1E012404FA0CFC8A
:10B0200004FA03F5ACF101042140A5F1010C9940AB
:10B030000CEA0202114300284FEA0111B8BF00F0E8
:10B040000F0000F1E020B4BF80F8141D80F8001458
:10B0500030BC70470CED00E0074900F007004FF6E8
:10B06000FF030A681A4042EA002040F0FD7040F0F9
:10B0700080600860704700000CED00E01C4838B5A7
:10B08000016841F08051016000681A4D00F0805065
:10B090000090286840F480302860FFF741FF0446A4
:10B0A000686810F4803F09D1FFF73AFF001BB0F544
:10B0B0007A7F15D8686810F4803FF5D0286840F48E
:10B0C00000302860FFF72CFF0446686810F4003F4A
:10B0D0000CD100BFFFF724FF001BB0F57A7F01D928
:10B0E000032038BD686810F4003FF3D0002038BD5D
:10B0F00040380240007000402DE9F84F04460078C7
:10B10000DFF824844FF0000910F0010FCA4610D078
:10B11000D8F8000020F40000C8F80000D8F80000BB
:10B12000616B0843C8F80000606B002808BF4FF04F
:10B130000109FE4D206810F4002F10D0E06B296843
:10B1400021F4401108432860E06BB0F5801F08BF70
:10B150004FF0010903D0002808BF4FF0010A206812
:10B1600010F4801F10D0206C296821F4400108439E
:10B170002860206CB0F5800F08BF4FF0010903D0A4
:10B18000002808BF4FF0010A206810F0807F18BF28
:10B190004FF0010910F0200F60D0E548016841F040
:10B1A000805101600068E34F00F0805000903868E3
:10B1B00040F480703860FFF7B3FE0646386810F43C
:10B1C000807F09D1FFF7ACFE801B642800F24D831D
:10B1D000386810F4807FF5D0D74F386810F440708D
:10B1E00028D0218E01F44071814223D0386839681B
:10B1F00020F4407041F480313960396821F48031A5
:10B2000039603860386810F0010F13D0FFF788FEFE
:10B210000646386810F0020F08BF41F2883B09D19A
:10B22000FFF77EFE801B584500F21F83386810F040
:10B23000020FF5D0206B4FF4407181431CBFD8F84A
:10B24000000020F4F81000F0F58000BFC8F80000FE
:10B25000208E3968C0F30B0008433860207810F066
:10B26000100F07D0286820F0807028602868A16B34
:10B27000084328602188B14811F4804F05D0616EE1
:10B28000026822F4403211430160218811F4004F1A
:10B2900005D0A16E026822F44022114301602168AA
:10B2A00011F4803F05D0E16E026822F44012114390
:10B2B0000160216811F4003F05D0216F026822F47B
:10B2C000400211430160217811F0400F05D0616CFC
:10B2D000026822F0030211430160217811F0800F0F
:10B2E00005D0A16C026822F00C0211430160218894
:10B2F00011F4807F05D0E16C026822F03002114326
:10B300000160218811F4007F05D0216D026822F0D0
:10B31000C00211430160218811F4806F05D0616D76
:10B32000026822F4407211430160218811F4006F19
:10B3300005D0A16D026822F44062114301602188AA
:10B3400011F4805F05D0E16D026822F44052114390
:10B350000160218811F4005F05D0216E026822F49B
:10B36000404211430160216811F4800F05D0A16FA4
:10B37000026822F0806211430160216811F4001F0D
:10B380000BD0E16F026822F0006211430160E16FAF
:10B39000B1F1006F08BF4FF0010A216811F0080FEA
:10B3A00018BF4FF0010A11F4802F05D0616F0268B9
:10B3B00022F0407211430160216811F4000F06D0A1
:10B3C000D4F88010026822F0805211430160216895
:10B3D00011F0806F06D0D4F88410026822F0005279
:10B3E00011430160206810F0006F06D0D4F8880087
:10B3F000296821F0007108432860206810F0805F00
:10B4000006D0D4F88C00296821F0806108432860B8
:10B41000B9F1010F47F6C0794FF440364FF070672D
:10B420004FF0E0481CBF2068B0F1007F0CD000F066
:10B430002CB900BFD8F8001020F4407020F0704004
:10B4400021F4F811084301E73D48016821F08061CB
:10B450000160FFF765FD83463948006810F0006F12
:10B460000CD000BFFFF75CFDA0EB0B00642800F2DE
:10B47000FC813348006810F0006FF3D1207810F0A1
:10B48000010F34D0606B90BB2E4A106896FAA6F17B
:10B49000126897FAA7F300F44030D4F804C0B1FA68
:10B4A00081F199FAA9FBC84002F07061B3FA83F206
:10B4B00096FAA6FEBBFA8BF3BEFA8EFBD14097FA42
:10B4C000A7FE0CFA03F2BEFA8EF3D4F808C000FA15
:10B4D0000BF098FAA8FEDFF86CB010439940BEFA62
:10B4E0008EF208430CFA02F10843CBF80000206802
:10B4F00010F4002F03D0E16BB1F5801F06D010F4DB
:10B50000801F4CD0206CB0F5800F48D10D490868E1
:10B5100096FAA6F2096800F44030B2FA82F296FA7E
:10B52000A6FC99FAA9FB0FE0083802408C380240CB
:10B5300040380240007000407038024090380240AD
:10B540000038024084380240D04097FAA7F263687E
:10B55000BCFA8CFCB2FA82FEBBFA8BFB98FAA8F21A
:10B5600000FA0CF003FA0BF301F0E041D4F80CB050
:10B57000B2FA82F298FAA8FCD1401843C04BBCFA48
:10B580008CFC0BFA0EF2104301FA0CF10843186020
:10B590002868616A20F01F02481E10432860206856
:10B5A00010F0807F33D0B64A106897FAA7F112687E
:10B5B00096FAA6FB00F07060B1FA81F199FAA9FC45
:10B5C000C8400090BBFA8BFB2169BCFA8CFC606818
:10B5D00098FAA8F302F0E04201FA0BF100FA0CF03D
:10B5E00097FAA7FB40EA010E0098B3FA83F3A44947
:10B5F000BBFA8BFC98FAA8FBDA4000FA0CF3BBFA12
:10B600008BF04EEA030302FA00F01843086020684A
:10B6100010F0007F20D099FAA9F1606896FAA6F39D
:10B62000D4F808E0D4E903C2B1FA81F1B3FA83F3A4
:10B6300000FA01F197FAA7FB91489A40BBFA8BF305
:10B6400098FAA8FB11430CFA03F2BBFA8BF31143EF
:10B650000EFA03F2114301608A48016841F08061EB
:10B660000160FFF75DFC83468648006810F0006FBC
:10B670000BD100BFFFF754FCA0EB0B0064287CD873
:10B680008048006810F0006FF4D0BAF1000F75D058
:10B69000DFF8F0A1DAF8000020F08050CAF80000CE
:10B6A000FFF73EFC8346DAF8000010F0005F0AD096
:10B6B000FFF736FCA0EB0B0064285ED8DAF8000038
:10B6C00010F0005FF4D1206810F4002F01D0E16B7E
:10B6D00021B110F4801F3CD0206CD0BB6A490868AF
:10B6E00096FAA6F2096800F44030B2FA82F2636971
:10B6F00096FAA6FCD04099FAA9FB97FAA7F2BCFAF1
:10B700008CFCB2FA82FEBBFA8BFB98FAA8F200FA24
:10B710000CF003FA0BF301F0E041D4F818B0B2FAE0
:10B7200082F298FAA8FCD1401843574B0BFA0EF25C
:10B73000BCFA8CFC104301FA0CF1084318606FF05E
:10B74000FF0B2868A16A20F4F8500BEB0121084395
:10B750002860206810F4001F39D0E06FB0F1006F4E
:10B7600035D14949086897FAA7F3096898FAA8F209
:10B7700099FAA9FCB2FA82F201E076E07DE096FA4D
:10B78000A6FB00F07060B3FA83F3BBFA8BFED4F82B
:10B7900020B0D8406369BCFA8CFC0BFA0EFB97FA18
:10B7A000A7FE03FA0CF301F0E041BEFA8EFC98FA12
:10B7B000A8FED14000FA0CF243EA0B0B324BBEFA62
:10B7C0008EF04BEA020201FA00F010431860207874
:10B7D00010F0080F36D02C480268016896FAA6F3DC
:10B7E00096FAA6FCD4F814B001F44031B3FA83F30E
:10B7F00097FAA7F699FAA9F9D94002F07062B6FA59
:10B8000086F3B9FA89F6DA40BCFA8CFC0BFA06F337
:10B8100097FAA7F701FA0CF6B7FA87F1D4F81CC02B
:10B8200098FAA8F702FA01F1B7FA87F233431943FD
:10B830000CFA02F2114301602868E16A20F44030FA
:10B8400008432860DAF8000040F08050CAF8000091
:10B85000FFF766FB0446DAF8000010F0005F0CD139
:10B86000FFF75EFB001B642802D90320BDE8F88FB8
:10B87000DAF8000010F0005FF2D00020BDE8F88F89
:10B880008438024000380240883802402DE9F047F1
:10B89000DFF8E48106460F46D8F8000000F00F00FC
:10B8A000B8420CD2D8F8000020F00F003843C8F896
:10B8B0000000D8F8000000F00F00B84272D13078D4
:10B8C0006E4D10F0020F05D0B068296821F0F0012C
:10B8D00008432860307810F0010F50D07068684934
:10B8E000012821D00968022823D011F0020F59D075
:10B8F000296821F0030108432860FFF711FB044683
:10B90000706841F28839012817D00228286800F0B1
:10B910000C0022D000B300BFFFF702FB001B48451C
:10B9200029D90320BDE8F087096811F4003FDFD171
:10B9300038E011F0007FDBD134E0286800F00C0023
:10B9400004281CD0FFF7ECFA001B4845E9D828680A
:10B9500000F00C000428F5D111E008280FD000BF3A
:10B96000FFF7DEFA001B4845DBD8286800F00C0022
:10B970000828F5D103E0286810F00C0FCCD1D8F8D6
:10B98000000000F00F00B8420FD9D8F8000020F0F6
:10B990000F003843C8F80000D8F8000000F00F008E
:10B9A000B84202D00120BDE8F087307810F0040FD3
:10B9B00005D0F068296821F4E05108432860307808
:10B9C00010F0080F06D03069296821F4604141EA7F
:10B9D000C00028602B48296811F00C0138D04310B2
:10B9E000042908BF184633D0082931D1264947F623
:10B9F000C07C0A680C6802F03F0214F4800F0CD07F
:10BA00000868B3FBF2F29CFAACF300EA0C00B3FA5C
:10BA100083F3D84002FB00F20CE00B68B0FBF2F0BD
:10BA20009CFAACF203EA0C03B2FA82F223FA02F2B5
:10BA300000FB02F208684FF4403393FAA3F100F4DC
:10BA40004030B1FA81F1C840401C4000B2FBF0F038
:10BA50002968F02292FAA2F201F0F001B2FA82F221
:10BA6000D1400A4A515CC840094908600F20FFF7DD
:10BA700077FA0020BDE8F087003C02400838024019
:10BA8000003802400024F40004380240B0AE02083E
:10BA90004401002001480068704700004401002074
:10BAA00008484FF4E052016892FAA2F2064801F405
:10BAB000E051B2FA82F2D140044A0068515CC840B9
:10BAC000704700000838024044010020C0AE020860
:10BAD00008484FF46042016892FAA2F2064801F465
:10BAE0006041B2FA82F2D140044A0068515CC84019
:10BAF000704700000838024044010020C0AE020830
:10BB000021492248096811F00C0108BF7047204BF9
:10BB1000042904BF18467047082918BF70474DF81C
:10BB2000044D47F6C0711B4AD2F800C014680CF0EF
:10BB30003F0C14F4800F0BD01068B3FBFCF391FAA8
:10BB4000A1FC0840BCFA8CF1C84003FB00F00AE0FD
:10BB50001368B0FBFCF091FAA1FC1940BCFA8CF31D
:10BB6000D94000FB01F011684FF440335DF8044BFD
:10BB700093FAA3F201F44031B2FA82F2D140491CA7
:10BB80004900B0FBF1F07047083802400024F4008F
:10BB900000127A00043802400028234870B5234C74
:10BBA00086B0D0F800C015460E464FF000034FF0A7
:10BBB00002014FF003021AD04CF0040CC0F800C090
:10BBC000006800F00400059008020090CDE9011320
:10BBD00017486946CDE90323FFF770F8216846EA64
:10BBE000C50021F078410843206006B070BD4CF0DC
:10BBF000010CC0F800C0006800F0010005904FF48F
:10BC000080700090CDE901130A486946CDE903230D
:10BC1000FFF754F8216846EA050021F0EC6108437B
:10BC2000206006B070BD0000303802400838024085
:10BC300000080240000002402DE9F84F0446007859
:10BC4000DFF8E0934FF0000BF74D10F0010F5BD0E1
:10BC5000D9F8000000F00C0004280AD0D9F8000040
:10BC600000F00C0008280DD1281D006810F4800F8A
:10BC700008D0286810F4003F46D06068002800F023
:10BC8000DF8141E06068B0F5803F04BF286840F480
:10BC900080300AD010B1B0F5A02F11D0286820F460
:10BCA00080302860286820F4802028606068D0B147
:10BCB000FFF736F90646286810F4003F08D023E065
:10BCC000286840F480202860286840F48030ECE741
:10BCD000FFF726F9801B642800F23F81286810F4E2
:10BCE000003FF5D010E0FFF71BF90646286810F476
:10BCF000003F09D0FFF714F9801B642800F22D8162
:10BD0000286810F4003FF5D1207810F0020F5CD0C5
:10BD1000D9F80000F82710F00C0F19D0D9F800005E
:10BD200000F00C00082804D1C048006810F4800F0F
:10BD30000ED0E0680028286833D040F00100286069
:10BD4000FFF7EEF80646286810F0020F14D01CE04A
:10BD5000286810F0020F1CBFE068012840F07081D5
:10BD60002069296897FAA7F2B2FA82F200FA02F281
:10BD700021F0F800104312E0FFF7D2F8801B0228F0
:10BD80007CD8286810F0020FF6D02169286897FA4D
:10BD9000A7F2B2FA82F220F0F8009140084328603E
:10BDA00013E020F001002860FFF7BAF80646286883
:10BDB00010F0020F09D000BFFFF7B2F8801B022875
:10BDC0005CD8286810F0020FF6D1207810F0080F28
:10BDD0002BD0974E60690028306813D040F00100E6
:10BDE0003060FFF79DF80746306810F0020F1CD155
:10BDF000FFF796F8C01B022840D8306810F0020FF9
:10BE0000F6D012E020F001003060FFF789F8074615
:10BE1000306810F0020F08D0FFF782F8C01B02282C
:10BE20002CD8306810F0020FF6D1207810F0040FF3
:10BE300078D0DFF80082D8F8000010F0805F0CD1D5
:10BE4000D8F8000040F08050C8F80000D8F8000092
:10BE50004FF0010B00F080500090774F386810F4DD
:10BE6000807F15D1386840F480703860FFF758F84B
:10BE70000646386810F4807F0AD100E06DE0FFF7D5
:10BE80004FF8801B642868D8386810F4807FF4D09D
:10BE9000A0686A4E012804BF306840F0010009D054
:10BEA00008B1052813D0306820F0010030603068F8
:10BEB00020F004003060A06841F2883AC8B1FFF772
:10BEC0002FF80746306810F0020F08D021E03068E4
:10BED00040F004003060306840F00100EAE7FFF70E
:10BEE0001FF8C01B504538D8306810F0020FF6D04C
:10BEF0000FE0FFF715F80746306810F0020F08D082
:10BF0000FFF70EF8C01B504527D8306810F0020F1D
:10BF1000F6D1BBF1000F05D0D8F8000020F080501A
:10BF2000C8F80000A069E8B3D9F8001001F00C01CE
:10BF300008296FD00228286820F0807028600FD070
:10BF4000FEF7EEFF0446286810F0007F67D000BFC0
:10BF5000FEF7E6FF001B02285DD90320BDE8F88F3D
:10BF6000FEF7DEFF0646286810F0007F09D000BF0C
:10BF7000FEF7D6FF801B0228EFD8286810F0007F5C
:10BF8000F6D1D4E9096247F6C0704FF4403390FA15
:10BF9000A0F14FF0FF3000EB520893FAA3F3B1FA8F
:10BFA00081F000E03BE006FA00F1D4E907C9B3FAFA
:10BFB00083F24FF0706A08FA02F39AFAAAF20B437E
:10BFC000D4E90B744FF0E0464CEA0900B2FA82F172
:10BFD00096FAA6FC1843154B07FA01F2BCFA8CF14D
:10BFE000104304FA01F108431860286840F080709B
:10BFF0002860FEF795FF0446286810F0007F0ED1F8
:10C00000FEF78EFF001B0228A7D8286810F0007FDB
:10C01000F6D004E014E0286810F0007F98D10020EA
:10C02000BDE8F88F0838024000380240043802406A
:10C0300074380240403802400070004070380240BE
:10C040000120EDE77047002804BF012070472DE96B
:10C05000F047044690F85D000025A56220B920460F
:10C0600084F85C5000F058F8022284F85D202068C3
:10C07000016821F040010160E068B0F5E06F8CBF1D
:10C0800000214FF48051B0F5706F1CBFB0F5E06F28
:10C09000A5620123D4F830C0BCF1000F36D0D4E93A
:10C0A000010CD4E90426B4F8188040EA0C09D4F84D
:10C0B00028C0324349EA0209D4E9077008F400763F
:10C0C000D4F8008049EA060604223E43304340EAA1
:10C0D0000C00C8F80000A069D4F824C0676BD4F83D
:10C0E0000C8002EA104026684CEA070248EA000089
:10C0F0001043084370602068C16921F40061C16188
:10C10000256684F85D300020BDE8F087B0F5E06F6B
:10C110008CBF22632363C2E72DE9F043016800244A
:10C1200003250646A1F180404FF00208B0F570509B
:10C1300087B04FF4806746D05048A1F18042B2F5F5
:10C14000A8324FF0050968D0B2F580621CBF07B075
:10C15000BDE8F083016841F4001101600068082126
:10C16000029400F4001005902020CDE90351CDE9A0
:10C17000000843486946FEF7A1FD4FF48050694628
:10C18000CDE900083F48CDE90245CDF81090FEF713
:10C1900095FD3D4D4FF000703C492960C5E9010413
:10C1A000C5E903476C612846AC61EC612C626C62A6
:10C1B000FDF7A0FE002818BFFCF7B8FFB565AE6319
:10C1C00007B0BDE8F0833248016841F400410160E6
:10C1D00000680621029400F400400590CDE9035167
:10C1E0004FF440606946CDE900082A48FEF766FD35
:10C1F000294D2A48C5E90004AC602846C5E9034733
:10C200006C61AC61EC612C626C62FDF773FE00281E
:10C2100018BFFCF78BFFB5652CE0016841F4801175
:10C22000016000686946CDE9024500F48010059080
:10C230004FF42070CDF81090CDE900081848FEF7B3
:10C240003DFD184D4021184A4FF080602A604FF4A0
:10C25000403268602846C5E90214C5E90474AC613F
:10C26000C5E907426C62FDF745FE002818BFFCF7E0
:10C270005DFF7565AE6307B0BDE8F08344380240EA
:10C280000000024000180240F8BD0120A0640240F6
:10C29000403802400008024038BD012010600240D2
:10C2A0000014024098BD0120706402402DE9F04165
:10C2B000044604200026A368002B04BFD4F804C061
:10C2C000BCF5827F13D094F85CC0BCF1010F04BFB1
:10C2D0000220BDE8F08194F85D7000254FF0010C5C
:10C2E00084F85CC0012F18BF022609D062E084F8F0
:10C2F0005D002046BDE8F04113460A4600F0C4B890
:10C30000002918BF002A45D02164B3F5004F84F8F6
:10C310005D002566E5642565A587A4F84420A4F89A
:10C320004620E58704D12068016821F4804101603E
:10C33000E068B0F5E06F04D8A06D8069B0F5005FEB
:10C3400028D02068416821F400514160E068B0F5D0
:10C35000E06F206841688CBF21F4805141F4805126
:10C360004160A06D16490164A16D1648C863A16DB6
:10C370001548C864A06D0565B4F846302168226C84
:10C38000A06D0C31FDF7A2FE2068016811F0400F8E
:10C3900006D101E001260DE0016841F04001016095
:10C3A0002068416841F0200141602068416841F007
:10C3B00001014160304684F85C50BDE8F081000026
:10C3C0007BDA010899DA010859DA010830B401680A
:10C3D0004FF0000C244A2548A1F18043B3F5705377
:10C3E0001AD0B3F58C331CBF30BC70472049214BA9
:10C3F000B1F8E843B3F801305BBA21F81430B1F872
:10C40000E8335B1C9BB2A1F8E833B3F5FA7F22D086
:10C41000FA2B08BFD16022E01749134BB1F8E8436B
:10C42000B3F801305BBA21F81430B1F8E8335B1C83
:10C430009BB2A1F8E833B3F5FA7F03D0FA2B08BF1B
:10C44000916003E00D4BA1F8E8C39360012230BC7A
:10C450000821FEF760BD0A4BA1F8E8C3D3600122B2
:10C4600030BC9102FEF757BD900100200018024039
:10C47000BA47022093010020D0430220C445022085
:10C48000AE490220704700002DE9F041044690F8C3
:10C490005C000026012804BF0220BDE8F0814FF0B7
:10C4A000010C94F85D0000256768012884F85CC0E1
:10C4B00008D0B7F5827F03BFA768002F04280226A3
:10C4C00040F0A48000291ABF002A002B012600F0AA
:10C4D0009D8094F85D0004281CBF052084F85D0051
:10C4E0002566A163A387E3872264A4F84430A4F8F7
:10C4F0004630E56425652068416821F4C04141600B
:10C50000E068B0F5E06F2068416884BF21F4805195
:10C5100041600CD841F480514160606D8069B0F594
:10C52000005F38D0A06D8069B0F5005F46D094F808
:10C530005D00A16D04280CBF374838480864A16D20
:10C540000CBF37483748C863A06D3749C164A06D38
:10C550000565B4F846302168226CA06D0C31FDF7FA
:10C56000B5FD2068416841F001014160606D0564DE
:10C57000606DC563606DC564606D0565E38F22689D
:10C58000A16B606D0C32FDF7A1FD2068016811F010
:10C59000400F31D12CE094F83C0010F0010F2068DE
:10C5A000416814BF41F4804121F480414160E08F33
:10C5B00014BF0CEB50004008E087B3E720684168E7
:10C5C00021F480514160B4F8460010F0010F20685A
:10C5D000416814BF41F4005121F400514160B4F8A6
:10C5E000460014BF0CEB50004008A4F846009EE73C
:10C5F000016841F0400101602068416841F020017C
:10C6000041602068416841F002014160304684F891
:10C610005C50BDE8F08100007BDA01088FDA010888
:10C6200099DA0108AFDB010859DA010870B5044650
:10C6300090F85C000026012804BF022070BD012094
:10C6400094F85D30002584F85C00012B18BF0226A9
:10C6500065D1002914BF002A012660D0A3684FF0DD
:10C66000030CA163A28784F85DC02566E287256478
:10C670002565E564A4F84450A4F84650B3F5004F8E
:10C6800004D121680A6842F480420A60616D264A3A
:10C690000A64626D2549D163626D2549D164616D7B
:10C6A0000D6521684A6822F480424A60E168B1F56C
:10C6B000E06F11D8616D8969B1F5005F0CD1E18F30
:10C6C00011F0010F15D021684A6842F480424A6097
:10C6D000E18F00EB5100E087E38F2268A16B606D72
:10C6E0000C32FDF7F3FC2068016811F0400F0CD10B
:10C6F00007E02068416821F480414160E08F4008F4
:10C70000E9E7016841F0400101602068416841F0BB
:10C71000200141602068416841F0020141603046DB
:10C7200084F85C5070BD000085DA010849DB01081F
:10C7300059DA0108012202482021FEF7ECBB000073
:10C740000014024070477047704704284FF0E02003
:10C7500001690CBF41F0040121F00401016170473F
:10C76000401EB0F1807F24BF012070474FF0E021D0
:10C770004861F020034A82F8140D002007228861E6
:10C780000A6170470FE000E07047704730B490F8DE
:10C790003C20012A02BF022030BC7047012280F8F1
:10C7A0003C2002685368A2F1804CBCF5803CD2F872
:10C7B00008C01CBFA2F18044B4F5823403D14C6898
:10C7C00023F4700323430C688D6823F070032CF06E
:10C7D00080014FF0000C23435360026829439160AD
:10C7E00080F83CC0604630BC7047002804BF012080
:10C7F000704710B5044690F83D0028B9002084F831
:10C800003C00204600F00CF8022084F83D0020682F
:10C81000211D01F085FB012084F83D00002010BDA2
:10C8200030B5006887B04649B0F1804F52D000243F
:10C830004FF00205A0F18042B2F580622CD0B2F533
:10C8400080624FD0B2F5806260D0B2F5806267D06E
:10C85000B2F598311CBF07B030BD3A48016841F4C9
:10C86000803101600068032100F4803005900820C9
:10C870000090CDE90154CDE9034133486946FEF704
:10C880001DFA002205211820FEF7B6FB5FF0180004
:10C89000FEF7A6FB07B030BD086840F00200086054
:10C8A0000868694600F00200059004200090CDE978
:10C8B00001542648CDE90345FEF700FA1020009008
:10C8C000CDE9015422486946CDE90345FEF7F6F962
:10C8D00007B030BD086840F001000860086800F04B
:10C8E00001001AE0086840F0040008600868694622
:10C8F00000F00400059001200090CDE90154154896
:10C90000CDE90345FEF7DAF907B030BD086840F01D
:10C9100008000860086800F00800059007B030BD06
:10C92000086840F01000086008680022052100F047
:10C93000100005903620FEF75FFB3620A8E70000C8
:10C94000403802404438024000000240000C0240DF
:10C950000004024000100240022180F83D10012234
:10C9600001680B6843F001030B6080F83D20002054
:10C9700070470168CA6842F00102CA600068016835
:10C9800041F00101016000207047022141F21112C3
:10C9900080F83D1001680B6A134208D10A6A40F220
:10C9A00044431A4203D10A6822F001020A600121BD
:10C9B00080F83D1000207047016841F21112CB68E9
:10C9C00023F00103CB600068016A114207D1016ABC
:10C9D0009210114203D1016821F001010160002091
:10C9E000704790F83C20012A0DBF0220012380F8F7
:10C9F0003C30704770B4022280F83D20D0F800C06F
:10CA0000DCF8082022F0770222F4803222F47F4200
:10CA1000CCF808200A68502A49D00CDC202A7DD0A6
:10CA200004DC002A7BD0102A7AD0BCE0302A78D0EF
:10CA3000402A7CD0B7E0602A56D0702A0DD0B2F5DB
:10CA4000805F03D0B2F5005F1ED0ACE001688A6859
:10CA500022F0070222F4803244E00268D1E9014C5E
:10CA6000C968956844EA012141EA0C0C25F47F412C
:10CA70004CEA0101916001688A6822F0770222F491
:10CA8000803242F077022DE00268D1E9014CC9689A
:10CA9000956844EA012141EA0C0C25F47F414CEAF7
:10CAA0000101916001688A6842F480421AE00268DC
:10CAB000D1F804C0C968146A156A25F00106166227
:10CAC00024F00A05946945EA0C0C24F0F00444EAC9
:10CAD00001119161C2F820C001688A6822F07002D9
:10CAE00042F057028A605EE00268D1F804C0C9686B
:10CAF000146A24F0100414629469166A24F47045D0
:10CB000026F0A00445EA0131916144EA0C1CC2F808
:10CB100020C001688A6822F0700204E034E023E05B
:10CB20002AE039E003E042F067028A603BE00268F5
:10CB3000D1F804C0C968146A156A25F001061662A6
:10CB400024F00A05946945EA0C0C24F0F00444EA48
:10CB500001119161C2F820C001688A6822F0700258
:10CB600042F047028A601EE001688A6822F0700283
:10CB700042F007028A6016E001688A6822F07002BB
:10CB800042F017028A600EE001688A6822F07002A3
:10CB900042F027028A6006E001688A6822F070028B
:10CBA00042F037028A60002180F83D3080F83C1066
:10CBB000084670BC7047704770B504460068002591
:10CBC000016911F0020F1CBFC16811F0020F13D0F0
:10CBD00001216FF00202026121772068806910F064
:10CBE000030F204602D0FFF7E6FF04E000F0D2F882
:10CBF000204600F0F9F925772068016911F0040F4B
:10CC00001CBFC16811F0040F13D002216FF00402A1
:10CC1000026121772068806910F4407F204602D0AD
:10CC2000FFF7C9FF04E000F0B5F8204600F0DCF99A
:10CC300025772068016911F0080F1CBFC16811F049
:10CC4000080F13D004216FF00802026121772068D9
:10CC5000C06910F0030F204602D0FFF7ACFF04E0DC
:10CC600000F098F8204600F0BFF9257720680169A8
:10CC700011F0100F1CBFC16811F0100F13D0082164
:10CC80006FF01002026121772068C06910F4407FC4
:10CC9000204602D0FFF78FFF04E000F07BF820462B
:10CCA00000F0A2F925772068016911F0010F1CBF7F
:10CCB000C16811F0010F05D06FF00101016120463C
:10CCC00000F0F2F920686FF08005016911F0800F23
:10CCD0001CBFC16811F0800F03D005612046FFF72B
:10CCE00053FD2068016911F4807F1CBFC16811F0F9
:10CCF000800F03D005612046FFF746FD20680169DB
:10CD000011F0400F1CBFC16811F0400F05D06FF04B
:10CD100040010161204600F05AFA2068016911F0D3
:10CD2000200F1ABFC16811F0200F70BD6FF02001F5
:10CD300001612046BDE87040FFF727BD4DF804EDC6
:10CD4000006800210222B0F1804F85B015D0A0F11B
:10CD50008043B3F580631CBF05B05DF804FB202061
:10CD60000090CDE901210948CDE90312694600BFD1
:10CD7000FDF7A4FF05B05DF804FB01200090CDE9AC
:10CD80000121CDE9031002486946F1E700040240A1
:10CD9000000002407047002804BF0120704770B5B2
:10CDA000044690F83D000D4628B9002084F83C0068
:10CDB000204600F015F8022084F83D002068211D6F
:10CDC00001F0AEF820680121026822F0080202603A
:10CDD000206802682A43026084F83D10002070BD7C
:10CDE000704700002DE9F047044690F83C000D46DE
:10CDF00001280DBF0220012684F83C60BDE8F087C1
:10CE000002200C2A84F83D0047D006DC6AB1042ACF
:10CE10001DD0082A2FD000F0BFB8DFF88CC1102A2F
:10CE2000624B4ED0142A7DD0B6E0206801F0DCF8C9
:10CE30002068816941F0080181612068816921F0E1
:10CE400004018161206829698269114311E0206829
:10CE500001F0FDF82068816941F40061816120687A
:10CE6000816921F48061816120682969826942EACF
:10CE70000121816190E0206801F01FF92068C169FB
:10CE800041F00801C1612068C16921F00401C1615C
:10CE900020682969C269114311E0206801F043F953
:10CEA0002068C16941F40061C1612068C16921F451
:10CEB0008061C16120682969C26942EA0121C161BA
:10CEC0006AE02068016A21F480310162076A4168E2
:10CED000426D6045B5F8089027F40037D5F800801A
:10CEE00022F0700222F4803247EA094C48EA02023A
:10CEF00018BF984204D16B6921F4803141EA0321C3
:10CF00004160426569688165C0F820C02068416D54
:10CF100041F0080141652068416D21F0040141653F
:10CF2000206800E003E02969426D114333E0206886
:10CF3000016A21F480110162026A4168476D60450F
:10CF4000B5F8089022F40012D5F8008027F4E04CE0
:10CF50002CF0807C42EA09524CEA082C18BF984217
:10CF600004D16B6921F4802141EA83214160C0F83A
:10CF700054C06968C16502622068416D41F4006176
:10CF800041652068416D21F480614165206829690F
:10CF9000426D42EA01214165002084F83D6084F839
:10CFA0003C00BDE8F08700000000014000040140A3
:10CFB000002804BF0120704710B5044690F83D00DA
:10CFC00028B9002084F83C00204600F00CF802202C
:10CFD00084F83D002068211D00F0A2FF012084F8A4
:10CFE0003D00002010BD704770470268012303FA1E
:10CFF00001F1136A8B431362136A194311620168CA
:10D00000A1F18042B2F580321CBFA1F18042B2F59D
:10D01000823203D14A6C42F400424A6400680168DB
:10D0200041F001010160002070474DF8044D026895
:10D030004FF0000C01230CFA01FC146A03FA01F111
:10D0400024EA01011162116A41EA0C0111620168CE
:10D0500041F2111240F2444CA1F18044B4F5803405
:10D060001CBFA1F18044B4F582340AD10C6A144289
:10D0700004BF0C6A14EA0C0F03D14C6C24F4004476
:10D080004C6401680C6A144204BF0A6A12EA0C0F6D
:10D0900003D10A6822F001020A6080F83D300020C6
:10D0A0005DF8044B704700000068A0F18041B1F5C5
:10D0B000A03106D011F5983118BF704702480068BA
:10D0C000004700F0A7BC0000BC02002090F83C2004
:10D0D000012A04BF0220704730B4012380F83C309D
:10D0E000022280F83D2002684C68D2F808C00D6822
:10D0F0002CF0700C44EA0C0C2CF0070C2CF4803C47
:10D1000045EA0C0CC2F808C04A6812F00F0F56D15D
:10D110001211082A53D2DFE802F052525252142759
:10D120003D040268D1E90345D1F808C091684CEA92
:10D13000052C4CEA040C21F47F414CEA010191607A
:10D140003DE00268D2F820C0146A24F001041462A1
:10D1500002680C69916921F0F00141EA04119161C2
:10D160000168C1F820C02AE00268D1F808C0096946
:10D17000146A156A24F00A0425F001051562956900
:10D1800044EA0C0C25F0F00444EA01119161C2F864
:10D1900020C014E00268D1F808C00969146A24F0BC
:10D1A000100414629469156A24F4704444EA01314D
:10D1B000916125F0A00444EA0C1CC2F820C00021B3
:10D1C00080F83D3080F83C10084630BC704770470E
:10D1D00070B5044690F869002025212814D12068F4
:10D1E000816811F0800F0FD0816821F0800181608B
:10D1F000206E002818BFFCF729FD2068016821F087
:10D20000C001016084F8695094F86A00222819D19D
:10D210002068816811F0400F14D0816821F040012E
:10D220008160606E002818BFFCF710FD206801685F
:10D2300021F4907101602068816821F00101816012
:10D2400084F86A50002070BD7047000070B5016816
:10D2500004462025C8690A688B6810F00F0F57D064
:10D2600003F0010C02F490765CEA060600F0F08010
:10D2700010F0010F18BF12F4807F05D001260E6256
:10D28000E16E41F00101E16610F0020F18BF13F0EA
:10D29000010F06D0266802213162E16E41F00401DF
:10D2A000E16610F0040F18BF13F0010F06D02368D9
:10D2B00004211962E16E41F00201E16610F0080FED
:10D2C0001CBF02F0200151EA0C0106D0236808219E
:10D2D0001962E16E41F00801E166E16E002908BFC4
:10D2E00070BD10F0200F18BF12F0200F0BD094F873
:10D2F0006A202046B4F85C10222A46D02068816952
:10D3000041F008018161E06E10F0080F70D16AE011
:10D3100010F0200F18BF12F0200F7CD094F86A3064
:10D320002046B4F85C20222B04D0886940F0080025
:10D33000886170BD8368B3F5805F04BF0369002B0B
:10D340004B6A416D03EA02021AD04B1C43650A7016
:10D35000B0F85A10491E0904090CA0F85A1018BF59
:10D3600070BD01680A6822F490720A6001688A68D8
:10D3700022F001028A6080F86A5000F09DF970BDC9
:10D380000A80416D891C4165E2E78268B2F5805FE1
:10D3900004BF0269002A0368426D5B6A1DD002F176
:10D3A000010CC0F854C0194082F80010B0F85A10AF
:10D3B000491E0904090CA0F85A10A4D101680A6892
:10D3C00022F490720A6001688A6822F001028A6081
:10D3D00080F86A5000F070F995E719401180416DAE
:10D3E000891C4165E2E72068806810F0400F29D071
:10D3F0002068016821F4907101602068816821F043
:10D400000101816084F86A502068816811F0400F42
:10D4100014D0816800E01BE021F040018160606E63
:10D4200060B12D490165606EFCF763FC002808BF00
:10D4300070BD606E016DBDE8704008472046FFF783
:10D4400003FF70BD2046FFF7FFFE0020E06670BDC1
:10D4500010F0800F18BF12F0800F2DD094F86900E3
:10D46000212818BF70BDB4F8520098B1A068B0F57B
:10D47000805F04BF20690028E06C15D0411CE16486
:10D4800021680078C1F82800B4F85200401EA4F8C2
:10D49000520070BD086820F08000086020680168B4
:10D4A00041F04001016070BD0088C0F3080088624F
:10D4B000E06C801CE064E7E710F0400F14BF12F04E
:10D4C000400F70BD0A68204622F040020A6084F8CE
:10D4D000695000F037F970BD9DE20108002804BFD3
:10D4E0000120704710B5044690F8690028B9002063
:10D4F00084F86800204600F029F8242084F86900A8
:10D500002068016821F001010160204600F05CFF05
:10D51000012808BF10BD606A00281CBF204600F02B
:10D520002EFE2068416821F49041416020688168A6
:10D5300021F02A0181602068016841F00101016049
:10D540002046BDE8104000F087BE00002DE9F047FE
:10D550000746006886B0A0F18041B1F588311CBF54
:10D5600006B0BDE8F0872948016841F0100101606C
:10D570000068022101224FF0040C00F01000059019
:10D5800003234FF440408DE80F1021486946FDF712
:10D5900095FB204C002620484FF480694FF000682E
:10D5A0004FF4803A20602046C4E90186C4E903694B
:10D5B0006661A661C4E9076A6662FCF79BFC002805
:10D5C00018BFFBF7B3FD154D40217C66A7631448D7
:10D5D000C5E90216C5E90496AE61C5E9076A6E623F
:10D5E000C5E900082846FCF785FC002818BFFBF7B2
:10D5F0009DFD3D6600220521AF632520FDF7FCFC63
:10D600002520FDF7EDFC06B0BDE8F0874438024068
:10D610000004024058BE012040640240B8BE012010
:10D62000B864024070B5044690F86A0020283BD1E7
:10D63000002912BF002A012070BD94F8680001285B
:10D6400032D0012384F8683061650025A4F85820A1
:10D650002220E56684F86A00636E1448D863636E1E
:10D6600013481864636E1348D8641346606E0565EA
:10D670000846D4F864C00246216860462431FCF7AD
:10D6800025FD84F868502068016841F480710160CC
:10D690002068816841F0010181602068816841F063
:10D6A00040018160002070BD022070BD15E30108BB
:10D6B00053E30108B1E201087047704770B50446B2
:10D6C00090F86900202834D1002912BF002A0120D7
:10D6D00070BD94F8680001282BD0012384F86830CD
:10D6E000E1640025A4F850202120A4F85220E5662A
:10D6F00084F86900236E1048D863236E0F481864BD
:10D70000236E0F48D864206E05652368206E03F1F0
:10D71000280C13466246FCF7D9FC216840200862B9
:10D7200084F868502068816841F0800181600020A1
:10D7300070BD022070BD00005DE301088DE30108AB
:10D74000B1E201080068A0F18041B1F5883118BF4D
:10D750007047014800680047B80200207047000089
:10D7600070B5174D01212846FDF7D0FB154C2178E7
:10D770000843207002212846FDF7C8FB217841EAC2
:10D780004000207004212846FDF7C0FB217841EAC3
:10D79000800101F007002070A9152846FDF7B6FBAF
:10D7A0000028094805D00122BDE87040D103FDF7EB
:10D7B000B2BBBDE8704000224FF40041FDF7ABBBA7
:10D7C00000140240D80100200000024030B50322BE
:10D7D0000021012087B00CF0E5FA1749486020B11C
:10D7E00000231A4619460CF0A7FC02AA01210024C6
:10D7F00002254FF4007082E83300104802A9FDF7BB
:10D800005DFA0023022118464FF4612202F0D4F899
:10D8100001F01CFF0D480023AA02CDE9005408A125
:10D820000CF0A4FF0F480023EA01CDE9005408A141
